:020000040800F2
:1000000000000420E97C0008691500086B15000851
:100010006D1500086F15000871150008397D00087E
:100020000000000000000000000000007315000840
:100030007515000800000000771500087915000804
:10004000397D0008397D0008397D0008397D0008B8
:10005000397D0008397D0008397D0008397D0008A8
:10006000397D0008397D0008397D0008397D000898
:10007000397D0008397D0008397D0008397D000888
:10008000397D0008397D0008397D0008397D000878
:10009000397D0008397D0008397D0008397D000868
:1000A00081150008397D0008397D0008397D000878
:1000B000397D0008397D0008397D0008397D000848
:1000C000397D0008397D0008397D0008397D000838
:1000D000397D0008397D0008397D0008397D000828
:1000E000397D0008397D0008397D0008397D000818
:1000F000397D0008397D0008397D0008397D000808
:10010000397D0008397D0008397D0008397D0008F7
:10011000397D0008397D0008397D0008397D0008E7
:10012000397D0008397D0008397D0008397D0008D7
:10013000397D0008397D000800000000397D000885
:10014000397D0008397D0008397D0008397D0008B7
:10015000397D0008397D0008397D0008397D0008A7
:10016000397D0008397D0008397D00080000000055
:10017000397D0008397D0008397D00080000000045
:10018000397D0008397D0008397D0008397D000877
:10019000397D0008397D0008397D0008397D000867
:1001A000397D0008397D0008397D00080000000015
:1001B000397D0008397D0008397D0008397D000847
:1001C000397D0008397D0008397D0008397D000837
:1001D000397D0008397D0008397D0008397D000827
:1001E000000000000000000000000000397D000851
:1001F000397D000800000000397D0008397D0008C5
:10020000397D0008397D0008397D0008397D0008F6
:10021000397D0008397D000800000000397D0008A4
:10022000000000000000000000000000397D000810
:08023000397D0008397D00084A
:1002380010B5054C237833B9044B13B10448AFF318
:1002480000800123237010BDF41500200000000079
:10025800A8EC000808B5034B1BB103490348AFF3EA
:10026800008008BD00000000F8150020A8EC000878
:10027800034613F8012B002AFBD1181A01387047DE
:1002880081F0004102E000BF83F0004330B54FEA3F
:1002980041044FEA430594EA050F08BF90EA020FAC
:1002A8001FBF54EA000C55EA020C7FEA645C7FEA3F
:1002B800655C00F0E2804FEA5454D4EB5555B8BF62
:1002C8006D420CDD2C4480EA020281EA030382EAD3
:1002D800000083EA010180EA020281EA0303362D65
:1002E80088BF30BD11F0004F4FEA01314FF4801C38
:1002F8004CEA113102D0404261EB410113F0004F4A
:100308004FEA03334CEA133302D0524263EB430300
:1003180094EA050F00F0A780A4F10104D5F1200E9E
:100328000DDB02FA0EFC22FA05F2801841F10001F9
:1003380003FA0EF2801843FA05F359410EE0A5F1CD
:1003480020050EF1200E012A03FA0EFC28BF4CF0FE
:10035800020C43FA05F3C01851EBE37101F00045B4
:1003680007D54FF0000EDCF1000C7EEB00006EEBC1
:100378000101B1F5801F1BD3B1F5001F0CD349084B
:100388005FEA30004FEA3C0C04F101044FEA4452A2
:1003980012F5800F80F09A80BCF1004F08BF5FEA29
:1003A800500C50F1000041EB045141EA050130BD09
:1003B8005FEA4C0C404141EB0101013C28BFB1F51B
:1003C800801FE9D291F0000F04BF01460020B1FA66
:1003D80081F308BF2033A3F10B03B3F120020CDA39
:1003E8000C3208DD02F1140CC2F10C0201FA0CF017
:1003F80021FA02F10CE002F11402D8BFC2F1200C7C
:1004080001FA02F120FA0CFCDCBF41EA0C01904031
:10041800E41AA2BF01EB0451294330BD6FEA04047A
:100428001F3C1CDA0C340EDC04F11404C4F1200265
:1004380020FA04F001FA02F340EA030021FA04F377
:1004480045EA030130BDC4F10C04C4F1200220FACE
:1004580002F001FA04F340EA0300294630BD21FA0C
:1004680004F0294630BD94F0000F83F4801306BFD2
:1004780081F480110134013D4EE77FEA645C18BFC6
:100488007FEA655C29D094EA050F08BF90EA020F5D
:1004980005D054EA000C04BF1946104630BD91EA55
:1004A800030F1EBF0021002030BD5FEA545C05D158
:1004B8004000494128BF41F0004130BD14F5800497
:1004C8003CBF01F5801130BD01F0004545F0FE410B
:1004D80041F470014FF0000030BD7FEA645C1ABF40
:1004E800194610467FEA655C1CBF0B46024650EA77
:1004F800013406BF52EA033591EA030F41F40021A3
:1005080030BD00BF90F0000F04BF0021704730B528
:100518004FF4806404F132044FF000054FF00001FD
:1005280050E700BF90F0000F04BF0021704730B5BE
:100538004FF4806404F1320410F0004548BF404293
:100548004FF000013EE700BF42004FEAE2014FEAE8
:1005580031014FEA02701FBF12F07F4393F07F4FC3
:1005680081F06051704732F07F4208BF704793F0C6
:100578007F4F04BF41F40021704730B54FF46074D9
:1005880001F0004521F000411CE700BF50EA0102DC
:1005980008BF704730B54FF000050AE050EA010285
:1005A80008BF704730B511F0004502D5404261EBF5
:1005B80041014FF4806404F132045FEA915C3FF436
:1005C800D8AE4FF003025FEADC0C18BF03325FEAD3
:1005D800DC0C18BF033202EBDC02C2F1200300FA84
:1005E80003FC20FA02F001FA03FE40EA0E0021FAA9
:1005F80002F11444BDE600BF70B54FF0FF0C4CF497
:10060800E06C1CEA11541DBF1CEA135594EA0C0F48
:1006180095EA0C0F00F0DEF82C4481EA030621EA83
:100628004C5123EA4C5350EA013518BF52EA0335BE
:1006380041F4801143F4801338D0A0FB02CE4FF070
:100648000005E1FB02E506F00042E0FB03E54FF0A0
:100658000006E1FB03569CF0000F18BF4EF0010E98
:10066800A4F1FF04B6F5007F64F5407404D25FEA94
:100678004E0E6D4146EB060642EAC62141EA555147
:100688004FEAC52040EA5E504FEACE2EB4F1FD0C89
:1006980088BFBCF5E06F1ED8BEF1004F08BF5FEA07
:1006A800500E50F1000041EB045170BD06F00046B9
:1006B80046EA010140EA020081EA0301B4EB5C0466
:1006C800C2BFD4EB0C0541EA045170BD41F480115E
:1006D8004FF0000E013C00F3AB8014F1360FDEBF83
:1006E800002001F0004170BDC4F10004203C35DA5F
:1006F8000C341BDC04F11404C4F1200500FA05F3E2
:1007080020FA04F001FA05F240EA020001F0004282
:1007180021F0004110EBD37021FA04F642EB0601F8
:100728005EEA430E08BF20EAD37070BDC4F10C0422
:10073800C4F1200500FA04F320FA05F001FA04F2E6
:1007480040EA020001F0004110EBD37041F10001D2
:100758005EEA430E08BF20EAD37070BDC4F12005DD
:1007680000FA05F24EEA020E20FA04F301FA05F245
:1007780043EA020321FA04F001F0004121FA04F2ED
:1007880020EA020000EBD3705EEA430E08BF20EABD
:10079800D37070BD94F0000F0FD101F000464000F7
:1007A80041EB010111F4801F08BF013CF7D041EA79
:1007B800060195F0000F18BF704703F0004652007D
:1007C80043EB030313F4801F08BF013DF7D043EA4E
:1007D8000603704794EA0C0F0CEA135518BF95EA04
:1007E8000C0F0CD050EA410618BF52EA4306D1D18B
:1007F80081EA030101F000414FF0000070BD50EAAA
:10080800410606BF1046194652EA430619D094EA33
:100818000C0F02D150EA013613D195EA0C0F05D11D
:1008280052EA03361CBF104619460AD181EA030171
:1008380001F0004141F0FE4141F470014FF0000029
:1008480070BD41F0FE4141F4780170BD70B54FF0C4
:10085800FF0C4CF4E06C1CEA11541DBF1CEA135544
:1008680094EA0C0F95EA0C0F00F0A7F8A4EB050426
:1008780081EA030E52EA03354FEA013100F088801D
:100888004FEA03334FF0805545EA131343EA1263E6
:100898004FEA022245EA111545EA10654FEA00269B
:1008A8000EF000419D4208BF964244F1FD0404F554
:1008B800407402D25B084FEA3202B61A65EB0305B0
:1008C8005B084FEA32024FF480104FF4002CB6EB6D
:1008D800020E75EB030E22BFB61A754640EA0C00ED
:1008E8005B084FEA3202B6EB020E75EB030E22BF2D
:1008F800B61A754640EA5C005B084FEA3202B6EB6E
:10090800020E75EB030E22BFB61A754640EA9C002C
:100918005B084FEA3202B6EB020E75EB030E22BFFC
:10092800B61A754640EADC0055EA060E18D04FEABA
:10093800051545EA16754FEA06164FEAC30343EA5A
:1009480052734FEAC2025FEA1C1CC0D111F4801F27
:100958000BD141EA00014FF000004FF0004CB6E720
:1009680011F4801F04BF01430020B4F1FD0C88BFBF
:10097800BCF5E06F3FF6AFAEB5EB030C04BFB6EBCA
:10098800020C5FEA500C50F1000041EB045170BDBD
:100998000EF0004E4EEA113114EB5C04C2BFD4EBEA
:1009A8000C0541EA045170BD41F480114FF0000E6E
:1009B800013C90E645EA060E8DE60CEA135594EAEA
:1009C8000C0F08BF95EA0C0F3FF43BAF94EA0C0FED
:1009D8000AD150EA01347FF434AF95EA0C0F7FF462
:1009E80025AF104619462CE795EA0C0F06D152EAB6
:1009F80003353FF4FDAE1046194622E750EA41069A
:100A080018BF52EA43067FF4C5AE50EA41047FF4AA
:100A18000DAF52EA43057FF4EBAE12E74FF0FF3C0F
:100A280006E000BF4FF0010C02E000BF4FF0010CE0
:100A38004DF804CD4FEA410C7FEA6C5C4FEA430C59
:100A480018BF7FEA6C5C1BD001B050EA410C0CBFA8
:100A580052EA430C91EA030F02BF90EA020F00200A
:100A6800704710F1000F91EA030F58BF994208BF71
:100A780090422CBFD8176FEAE37040F0010070472E
:100A88004FEA410C7FEA6C5C02D150EA013C07D185
:100A98004FEA430C7FEA6C5CD6D152EA033CD3D0D0
:100AA8005DF8040B704700BF8446104662468C46CA
:100AB8001946634600E000BF01B5FFF7B7FF0028FD
:100AC80048BF10F1000F01BD4DF808EDFFF7F4FF26
:100AD8000CBF012000205DF808FB00BF4DF808EDB1
:100AE800FFF7EAFF34BF012000205DF808FB00BFD4
:100AF8004DF808EDFFF7E0FF94BF012000205DF8F6
:100B080008FB00BF4DF808EDFFF7CEFF94BF0120AA
:100B180000205DF808FB00BF4DF808EDFFF7C4FFA3
:100B280034BF012000205DF808FB00BF4FEA410CEC
:100B38007FEA6C5C02D150EA013C0AD14FEA430CCF
:100B48007FEA6C5C02D152EA033C02D14FF000000C
:100B580070474FF0010070474FEA410212F500124A
:100B680015D211D56FF47873B3EB625212D94FEAEC
:100B7800C12343F0004343EA505311F0004F23FAD6
:100B880002F018BF404270474FF00000704750EA2B
:100B9800013005D111F0004008BF6FF000407047E8
:100BA8004FF00000704700BF4FEA4102B2F1E04346
:100BB80024BFB3F5001CDCF1FE5C0DD901F0004C3C
:100BC8004FEAC0024CEA5070B2F1004F40EB83008C
:100BD80008BF20F00100704711F0804F21D113F1B8
:100BE8003872BCBF01F00040704741F480114FEAF1
:100BF8005252C2F11802C2F1200C10FA0CF320FA7A
:100C080002F018BF40F001004FEAC1234FEAD32396
:100C180003FA0CFC40EA0C0023FA02F34FEA430300
:100C2800CCE77FEA625307D150EA01331EBF4FF089
:100C3800FE4040F44000704701F0004040F0FE40A4
:100C480040F40000704700BF53B94AB9002908BFF3
:100C580000281CBF4FF0FF314FF0FF3000F0B0B953
:100C6800ADF1080C6DE904CE00F006F8DDF804E0FB
:100C7800DDE9022304B070472DE9F04F099D88464D
:100C880004468E46002B4AD18A4217465FD9B2FAEB
:100C980082F64EB1C6F1200301FA06FEB740B44011
:100CA80020FA03F343EA0E0E4FEA17481FFA87FCAF
:100CB800230CBEFBF8F108FB11EE01FB0CF243EA32
:100CC8000E439A4207D9FB1801F1FF3002D29A422B
:100CD80000F2548101469B1AA2B2B3FBF8F008FB5C
:100CE800103300FB0CFC42EA034294450BD9BA18B6
:100CF80000F1FF332CBF01240024944502D9002CB5
:100D080000F03F81184640EA0140A2EB0C020021A6
:100D18001DB1F2400023C5E90023BDE8F08F8B42E6
:100D280005D90DB1C5E9000100210846F5E7B3FA78
:100D380083F100294ED14345C0F01281824240F22E
:100D48000F810846002DE8D0C5E9004EE5E7002AE6
:100D580000F0AC80B2FA82F6002E40F0BB808B1A0D
:100D68004FEA124EBCB20121020C80B2B3FBFEFC6A
:100D78000EFB1C3342EA034304FB0CF29A420ED9E1
:100D8800FB180CF1FF382CBF4FF001094FF0000998
:100D98009A4203D9B9F1000F00F0EC80C4469B1ABF
:100DA800B3FBFEF80EFB183304FB08F440EA0342D9
:100DB80094420BD9BA1808F1FF332CBF0120002048
:100DC800944202D9002800F0D1809846121B48EAC4
:100DD8000C409DE7C1F120068B4008FA01F400FAA7
:100DE80001F922FA06F728FA06F88A401F4320FA82
:100DF80006F3380C23431FFA87FC1C0CB8FBF0FEE3
:100E080000FB1E8844EA08440EFB0CF8A0450ED9E6
:100E18003C190EF1FF3A2CBF4FF0010B4FF0000BBD
:100E2800A04503D9BBF1000F00F0B880D646A4EB6B
:100E380008041FFA83F8B4FBF0F300FB134403FB28
:100E48000CFC48EA0444A4450ED93C1903F1FF30D0
:100E58002CBF4FF001084FF00008A44503D9B8F1A2
:100E6800000F00F09F80034643EA0E40A4EB0C04F9
:100E7800A0FB02EC64457346E04602D307D1F14576
:100E880005D2BEEB02036CEB070C0138E0465DB1FE
:100E9800B9EB030264EB080404FA06F622FA01F33C
:100EA800CC401E43C5E90064002136E7B1FBF2FCE3
:100EB800010C144680B2964641EA08412026904625
:100EC80040EA01431046B1FBF2F1A3EB080341EA03
:100ED8000C414BE7B740C6F1200301FA06F221FAAC
:100EE80003F84FEA174E20FA03F3BCB2B04013439D
:100EF800020C190C80B2B8FBFEF90EFB198841EA06
:100F0800084109FB04F8884551D9791809F1FF3CD3
:100F18002CBF4FF0010A4FF0000A884502D9BAF1F8
:100F2800000F31D0A1EB0801B1FBFEF909FB04F871
:100F38000EFB19119BB243EA0143434535D2FB1816
:100F480009F1FF312CBF4FF0010A4FF0000A434569
:100F5800BBD2BAF1000FB8D1A9F102013B44B4E702
:100F6800841A68EB030201209646EBE63A44A8F19E
:100F780002082BE7ACF1020C3B4410E702393B4472
:100F8800A9E63A440238BEE6A7EB0808A9F1020C24
:100F98004144B1FBFEF909FB04F8C9E7AEF1020EC2
:100FA8003C4444E7023B3C445EE749468DE7A1EBFD
:100FB8000801CC46B1FBFEF909FB04F8B8E700BF0D
:100FC800704700BF82B00D4BD3F88C2042F001026D
:100FD800C3F88C20D3F88C2002F001020092009A0A
:100FE800D3F88C2042F00202C3F88C20D3F88C305E
:100FF80003F002030193019B02B07047000C024604
:1010080000B583B001904FF0FF33012201A90348D6
:1010180006F074F8019803B05DF804FB141600207C
:1010280010B9024B01221A60704700BF90170020C8
:1010380072B6FEE708B5022005F0D8FD00B908BD74
:10104800FFF7F6FF08B5002001F0B6FE18B901F069
:10105800C5FE10B908BDFFF7EBFFFFF7E9FF000079
:1010680008B51148114B036040F614634360002330
:1010780083600122C260036143618361C3610362CB
:1010880002F082F950B90021074802F009FD38B989
:101098000021054802F032FD20B908BDFFF7C8FF5E
:1010A800FFF7C6FFFFF7C4FF3C17002000540040BD
:1010B80008B51548154B03604FF4165343600023D9
:1010C8008360C36003610C224261836103624362EF
:1010D8008362436606F06CF970B900210A4805F08E
:1010E80000FE58B90021084805F020FE40B906481E
:1010F80005F0D8FD30B908BDFFF79AFFFFF798FF54
:10110800FFF796FFFFF794FFA8160020002400467B
:1011180008B51548154B03604FF4E13343600023CD
:101128008360C36003610C2242618361C36103620F
:101138004362836206F03CF970B900210A4805F061
:10114800D0FD58B90021084805F0F0FD40B906481F
:1011580005F0A8FD30B908BDFFF76AFFFFF768FF83
:10116800FFF766FFFFF764FF141600200038014000
:1011780000B59FB06022002106A807F033FD0020CB
:1011880000900190029003900490059005F0D6FC21
:10119800E0B91023069301220D920E934FF080437D
:1011A8000F930023149306A802F092FF80B91F231F
:1011B80000930021019102910391049105916846E1
:1011C80002F0ECFD30B91FB05DF804FBFFF730FF0B
:1011D800FFF72EFFFFF72CFF2DE9F0472DED088BC9
:1011E800BAB001F05BFEFFF725FFFFF7C1FFFFF77D
:1011F800E9FEFFF727FFFFF733FFFFF759FFFFF778
:1012080087FF06F059FC002000F09EFA012100201B
:1012180000F0DCFABA4807F093FB002000F0BAFAB5
:10122800B84807F08DFB01F0E3FBB74807F088FBEF
:10123800012401E00134A4B27F2C0FD8610089B2E7
:1012480064230093012339AAB04802F0BFF90028AB
:10125800F0D12146AE4807F00BFBEBE73C2200211A
:101268002AA807F0BFFC2AA800F09AFD00242694BB
:1012780027942894299401F0FFF921942294239427
:1012880024942594204600F0ABFD18B1A14807F03E
:1012980057FB24E0A04807F053FB20E09F4B1B7846
:1012A800002B00F0298106F099FC9D4B18789D4B86
:1012B800D3ED007A9FED9C7A67EE877AFCEEE77AA9
:1012C800CDED097A9DF8241001F02CFC01F05AFAB2
:1012D800002000F06DFA44F6206001F01BFE0020AB
:1012E80000F058FA01F056FA642001F013FE0AA93A
:1012F8002AA800F069FD0CAB01930BAB009326AB59
:101308000FCB01F0CDF90EAA0DA921A800F0F6FD2A
:10131800864C204607F014FB0A98FFF715F9024699
:101328000B46834807F0A4FA0B98FFF70DF902461D
:101338000B46804807F09CFA0E98FFF705F902461D
:101348000B467D4807F094FA204607F0F9FA7B48E7
:1013580007F0F6FA9DED0E1ADDED0B0A9DED0A0A6F
:1013680001F0AAFB00231B931C931D931E931F934C
:101378002093DDED0A8A9FED727A78EE877ADFEDA9
:10138800716A77EEA67AC7EE276ADFED6F0AB7EEC5
:10139800000A30EE660A09F0C7FCDDED0B7A20EE94
:1013A800278A9DED0E1AF0EE480AB0EE680A06F09C
:1013B800D9FB1BA801F008FA00283FF46FAF9DED98
:1013C8001D9ADFED5F9ADDED1B7A77EEA97A9FED26
:1013D8005DBA77EE8B7A89EEA70ADFED5BAAB7EEE6
:1013E80000AAF0EE6A0A3AEE400A09F09DFC29EEDE
:1013F800009ADDED208ADDED1E7A77EEA97A77EE88
:101408008B7A89EEA70AF0EE6A0A3AEE400A09F0EA
:101418008BFC68EE808A0A9D0F958DED108ADDF8A9
:1014280038A0CDF844A001F06FFD1290DDF86C9063
:10143800CDF84C908DED149ADDF87080CDF854807D
:10144800002316931E9F1797CDED188A1F9E199695
:101458001A9304AC17AB0FCB84E80F0013AB0FCB78
:101468008DE80F000FAB0FCB06F090FB2B4B012242
:101478001A70364807F064FA2846FFF765F80446FC
:101488000D465046FFF760F8CDE9020118EE100A44
:10149800FFF75AF8CDE9000122462B462C4807F001
:1014A800E7F94846FFF750F804460D464046FFF76F
:1014B8004BF8CDE9020119EE100AFFF745F8CDE91E
:1014C800000122462B46234807F0D2F93846FFF799
:1014D8003BF804460D463046FFF736F8CDE90201E1
:1014E80018EE900AFFF730F8CDE9000122462B46A6
:1014F800194807F0BDF9D6E6184807F021FAD2E6F0
:1015080000ED00081CED000838ED00083C1700202D
:101518005CED000880ED0008A4ED0008101600201E
:1015280028140020C41E00200000C842CCED00088A
:101538000CEE00082CEE00084CEE000818ED000830
:1015480052B82E40339388435839A8C068EE000833
:101558008CEE0008B0EE0008D4EE0008F8EE0008A3
:10156800FEE7FEE7FEE7FEE7FEE7704770477047D5
:1015780008B501F0BDFC08BD08B5002000F070F901
:1015880008BD000082B0074BD3F8942042F0040253
:10159800C3F89420D3F8943003F004030193019B1B
:1015A80002B07047000C024610B5B8B004460021DE
:1015B80033913491359136913791C02202A807F0C2
:1015C80011FB22681B4B9A4201D038B010BD402253
:1015D8000023CDE9022302A803F0DAFB30BB164C46
:1015E800D4F88C3043F00203C4F88C30D4F88C3033
:1015F80003F002030093009BC02333931223349318
:101608000023359336930423379333A90B4805F009
:1016180045F9D4F89C3043F40013C4F89C30D4F84E
:101628009C3003F400130193019BCEE7FFF700FD04
:10163800D5E700BF00540040000C024600040242F7
:1016480010B5BAB0044600213591369137913891DA
:101658003991C02204A807F0C5FA2368364A934294
:1016680004D0364A934233D03AB010BD202200232A
:10167800CDE9042304A803F08BFB30BB304BD3F82F
:10168800A82042F04002C3F8A820D3F8A82002F00E
:1016980040020092009AD3F88C2042F00102C3F86D
:1016A8008C20D3F88C3003F001030193019B0C23A9
:1016B80035930223369300233793389308233993BD
:1016C80035A9204805F0EAF8CEE7FFF7B1FCD5E7E1
:1016D80001220023CDE9042304A803F059FB38BBF9
:1016E800174BD3F8A42042F48042C3F8A420D3F8BF
:1016F800A42002F480420292029AD3F88C2042F08D
:101708000102C3F88C20D3F88C3003F00103039353
:10171800039B4FF4C063359302233693002337931A
:1017280038930723399335A9064805F0B7F89BE79E
:10173800FFF77EFCD4E700BF0024004600380140D4
:10174800000C024600000242E8B910B586B00F4B03
:10175800D3F88C2042F00102C3F88C20D3F88C30E7
:1017680003F001030093009B2023019301230293BC
:10177800002403940323049301A9054805F08EF877
:10178800204606B010BD6FF001007047000C0246FD
:101798000000024238B908B501222021034805F0AB
:1017A80091F9002008BD6FF0010070470000024267
:1017B80038B908B500222021034805F083F9002034
:1017C80008BD6FF0010070470000024210B586B0F6
:1017D8001D4BD3F88C2042F00402C3F88C20D3F8B8
:1017E8008C3003F004030093009B4FF400530193E3
:1017F80002230393049341B90023029301A91348D8
:1018080005F04CF8002006B010BD0446104B0293BA
:1018180001A90E4805F042F804EB44040D4B03EB14
:1018280084040D49204605F063F90C4A002120463E
:1018380005F04DF900220F21182001F041FA182077
:1018480001F04EFADEE700BF000C02460008024233
:1018580000001110941700200D00000681180008E0
:1018680008B500EB4000034B03EB800005F046F998
:1018780008BD00BF9417002008B50020FFF7D0FB73
:1018880008BD2DE9F8431E468368B3B10023184606
:10189800BDE8F8830134A4B2B442F8D209EB0401DC
:1018A800012308EB040289B2287B6F69B847034615
:1018B8000028EFD04FF0FF33E9E705468946904608
:1018C80000231C46E8E72DE9F8431E468368B3B1B8
:1018D80000231846BDE8F8830134A4B2B442F8D214
:1018E80009EB0401012308EB040289B2287B2F6964
:1018F800B84703460028EFD04FF0FF33E9E7054625
:101908008946904600231C46E8E738B5044690F817
:10191800303023B1012384F83030002038BD4FF037
:101928007E53436300F120050121284600F062F947
:1019380068B90121284600F088F958B900212846DD
:1019480000F0A4F80028E5D04FF0FF30E6E74FF0AC
:10195800FF30E3E74FF0FF30E0E7000008B5F7EEAF
:10196800007AB4EEE70AF1EE10FA16D9F3EE097A26
:10197800B4EEE70AF1EE10FA15D9DFED0F7AB4EEFE
:10198800E70AF1EE10FA10D9DFED0C7AB4EEE70AA7
:10199800F1EE10FA0BD8222100E00421203000F0EB
:1019A80075F830B908BD0221F8E71221F6E73221AF
:1019B800F4E74FF0FF30F5E7000048420000C84266
:1019C80090F83130012B0AD010B5044690ED0D0A7D
:1019D800FFF7C4FF28B9012384F8313010BD002077
:1019E80070474FF0FF30F9E730B583B00C460DF182
:1019F8000601203000F017F948B90546BDF9060080
:101A080000F038F884ED000A284603B030BD4FF0E6
:101A1800FF35F9E7C8B108B503460A6802604868A7
:101A2800586088689860087B187308691861486965
:101A38005861886998610848586208481862C969F5
:101A48009962DB6222B1904708BD4FF0FF307047C2
:101A58004FF0FF30F8E700BF8B180008CF180008D8
:101A680010B54468C068A04710BD10B50468C068C8
:101A7800A04710BD07EE900AF8EEE77A9FED020A3C
:101A880087EE800A704700BF0000C84230B583B0B7
:101A980005460C4601236A460421FFF7E1FF034689
:101AA80078B1012C15D0222C34D031D8022C31D069
:101AB800122C2FD0042C51D0002B78D0184603B00C
:101AC80030BD012301AA0C212846FFF7C9FF0346B0
:101AD800E7E7002BE7D19DF8043043F002038DF8C7
:101AE8000430012301AA0C212846FFF7BEFF034654
:101AF8000028D8D19DF8043023F002038DF8043073
:101B0800012301AA0C212846FFF7AFFF0346CAE7C5
:101B1800322CCFD19DF8002012F0040FCAD1002B2F
:101B2800C8D19DF8043043F002038DF80430012336
:101B380001AA0C212846FFF798FF03460028B9D1CF
:101B48009DF8043023F002038DF80430012301AA24
:101B58000C212846FFF789FF0346ABE7002BADD1E0
:101B68009DF8043043F002038DF80430DBB243F0F3
:101B780040038DF80430012301AA0C212846FFF701
:101B880074FF0346002899D19DF8043023F002031E
:101B98008DF80430DBB243F040038DF804300123A4
:101BA80001AA0C212846FFF760FF034684E79DF849
:101BB800003064F300038DF80030C4F34002DBB258
:101BC80062F382038DF80030C4F38002DBB262F363
:101BD800C7138DF80030C4F30114DBB264F30513A6
:101BE8008DF8003001236A4604212846FFF73DFF9F
:101BF800034663E730B583B004460D46012301AAC6
:101C08000421FFF72DFF08B103B030BD9DF8043063
:101C180065F386138DF80430012301AA04212046B8
:101C2800FFF723FFF0E710B582B00C46022301AAA4
:101C38000621FFF715FF9DF8052022809DF8043046
:101C480003EB0223238002B010BD30B583B00446F5
:101C58000D46012301AA0421FFF702FF08B103B0D2
:101C680030BD9DF8043065F3C3038DF804300123BB
:101C780001AA04212046FFF7F8FEF0E7002070478C
:101C88000020704708B501F045F908BD08B501F016
:101C98003BF908BD10B584B04FF0FF3402940193AE
:101CA800009201230A4601460448006801F020FE1C
:101CB80008B904B010BD4FF0FF30FAE7A0170020B4
:101CC80010B584B04FF0FF340294019300920123C1
:101CD8000A4601460448006801F036FD08B904B018
:101CE80010BD4FF0FF30FAE7A017002030B589B0DB
:101CF80004460D4620220021684606F073FF74B39F
:101D080085B31A4B1D601A4B00931A4B019370232D
:101D18008DF80C30184B0493184B0593184B069309
:101D2800184B079369462046FFF774FEA0B9204672
:101D3800FFF7EBFD80B92046FFF742FE60B9B3EE2E
:101D4800090A2046FFF70AFE044628B9642001F074
:101D5800E1F8204609B030BD4FF0FF34F9E74FF005
:101D6800FF34F6E74FF0FF34F3E700BFA017002079
:101D7800851C0008891C0008C91C00089D1C000857
:101D8800951C00088D1C000820B108B529B1FFF783
:101D98002BFE08BD4FF0FF3070474FF0FF30F8E7DB
:101DA80008B50649FFF7A2FF18B1054806F0C8FDB7
:101DB80008BD044806F0C4FDFAE700BF3C17002040
:101DC80034EF00085CEF000808B5FFF7DDFF00B945
:101DD80008BD024806F0B4FDFAE700BF88EF000826
:101DE80038B5044615480023036043608360C36028
:101DF800036143618361124B0360124B4360124BD2
:101E0800C360124B8360124B0361124B436100F0B5
:101E1800AFF8054608B1284638BD2146074800F006
:101E2800F1F805460028F6D1044800F0DFF8054629
:101E38000028F0D10A2000F045F8ECE7A4170020AC
:101E4800751E0008791E0008A51E00087D1E0008E2
:101E5800CD1E0008D51E000808B50A4601460248EE
:101E680000F0F2F808BD00BFA4170020002070475A
:101E78000020704700B583B013464FF0FF32009240
:101E88000A464100044801F0A1FB10B903B05DF80F
:101E980004FB0120FAE700BF3C17002000B583B01F
:101EA80013464FF0FF3200920A464100044801F001
:101EB800CFFA10B903B05DF804FB0120FAE700BFC0
:101EC8003C17002008B501F025F808BD0FB400B58F
:101ED800C3B044AB53F8042B01934FF4807102A8AC
:101EE80006F0DEFD02A9044806F0C2FC43B05DF826
:101EF80004EB04B0704700BFB8EF000898B170B5A4
:101F08000C461546064649B142B101460020FFF786
:101F1800A3FF20B933682360B3682B6070BD024803
:101F280006F00EFDF6E77047BCEF000800B583B079
:101F38008DF80710C36801220DF10701007E98474C
:101F480010B903B05DF804FB0120FAE710B511469B
:101F580084681A46007EA04700B910BD0120FCE73E
:101F680008B543690148984708BD00BFF8EF000865
:101F780060B310B50446436953B3026962B102689D
:101F880072B1416881B1816891B1C168A1B19047CE
:101F9800B0B90123A37610BD0E4898470320FAE78D
:101FA8000D4898470320F6E70C4898470320F2E7C6
:101FB8000B4898470320EEE70A4898470320EAE7CA
:101FC80009492046FFF7CCFF0120E4E702207047CB
:101FD8000320E0E710F000082CF0000848F00008A3
:101FE80068F0000884F00008A0F0000830B1827E94
:101FF800012A05D1C27E0276002070470220704770
:1020080003207047C8B1827E012A18D1417603297E
:1020180017D8DFE801F002060A0E4422C276084605
:1020280070474522C276002070474422C2760020BD
:1020380070474422C2760020704702207047032070
:10204800704700207047000070B582B0002800F08B
:10205800978014460546837E012B03D0032630461D
:1020680002B070BD00231A464B48415C2846FFF772
:102078005DFF0646002876D12B690A20984706237B
:102088006A4600212846FFF761FF064600286FD1FF
:102098009DF800209DF8013043EA022307EE903AAC
:1020A800F8EEE77AC4ED007A17EE900AFEF74CFADC
:1020B80035A3D3E90023FEF7C9FB35A3D3E90023F1
:1020C800FEF79AFA0022354BFEF7DEF8FEF76CFDB4
:1020D80007EE900A2060B2EE027A67EE877AF1EE98
:1020E800046A87EEA67ADFED2E7A77EE277AC4EDBA
:1020F800017A9DF803209DF8043043EA022307EE95
:10210800903AF8EEE77AC4ED027A17EE900AFEF7F5
:102118001BFA1DA3D3E90023FEF798FB0022214BED
:10212800FEF76AFA0022204BFEF7AEF8FEF73CFDF8
:1021380007EE900AA0609FED1D7AF4EEC77AF1EEE3
:1021480010FA01DDF0EE477AC4ED027AF5EEC07AB6
:10215800F1EE10FA11D4C4ED027A0098E060BDF8EF
:10216800043023827BE712492846FFF7F9FE76E719
:1021780010492846FFF7F4FE71E7DFED0F7AEAE72A
:1021880002266CE7AFF3008000000000E0FFEF409C
:102198000000000000E06540A8F300080080464009
:1021A8000000004200405F40000018400000C842A4
:1021B800B0F00008CCF000080000000010B109B130
:1021C8000A780270704720B110B54468C068A0470B
:1021D80010BD4FF0FF30704720B110B50468C068DB
:1021E800A04710BD4FF0FF307047000007EE900A7F
:1021F800F8EEE77A9FED020A27EE800A704700BFE3
:102208000000803507EE900AF8EEE77A9FED020AA3
:1022180087EE800A704700BF0000C84210B582B040
:102228000C4600238DF8073001230DF107020F211A
:10223800FFF7C9FF9DF80730237002B010BD30B515
:1022480085B005460C4600238DF80C308DF8083013
:102258008DF804308DF80030012301AA1121FFF711
:10226800B2FF034618B19BB1184605B030BD012333
:1022780002AA24212846FFF7A6FF03460028F3D127
:1022880001236A4627212846FFF79DFF0346EAE710
:10229800012303AA0B212846FFF795FF03460028D0
:1022A800E2D19DF80420C2F38000217860F3000198
:1022B80021709DF80810C909207861F34100207049
:1022C8009DF80010C0B261F382002070C1F3400590
:1022D800C0B265F3C3002070C1F30015C0B265F346
:1022E80004102070C1F34011C0B261F34510207092
:1022F80002F0010282F00102C1B262F3861121707C
:102308009DF80C20C2F3401282F00102C9B262F3B8
:10231800C7112170A8E770B586B004460D460023A2
:102328008DF814308DF810308DF80C308DF8083099
:10233800ADF80430022301AA1121FFF744FF064635
:1023480010B1304606B070BD01A905A8FFF736FFE9
:102358000DF1050104A8FFF731FF012D11D0022D61
:102368003FD0002D6CD09DF8143043F004038DF855
:102378001430012305AA11212046FFF72DFF064638
:10238800DFE79DF8143043F080038DF81430012303
:1023980005AA11212046FFF71FFF06460028D0D1C5
:1023A800002504E06B1CDBB2042D13D81D46012365
:1023B80003AA24212046FFF706FF064648B99DF9DF
:1023C8000C30002B0BDAA368002BEBD00A209847BF
:1023D800E8E72B46042BB4D94FF0FF36B1E72B467C
:1023E800F8E79DF8143043F004038DF81430012306
:1023F80005AA11212046FFF7EFFE06460028A0D1C6
:10240800002504E06B1CDBB2042D12D81D4602A97E
:102418002046FFF714FF064650B99DF8083013F020
:10242800010F0BD0A368002BECD001209847E9E7F7
:102438002B46042B85D94FF0FF3682E72B46F8E769
:102448009DF8143043F008038DF814309DF81030CF
:1024580043F001038DF8103005A901A8FFF7AEFE7F
:1024680004A90DF10500FFF7A9FE022301AA112115
:102478002046FFF7B1FE064663E730B585B005464E
:102488000C4600238DF80C308DF80830ADF8043078
:10249800022301AA1021FFF796FE08B105B030BD4E
:1024A80001A903A8FFF78AFE0DF1050102A8FFF7AD
:1024B80085FE22789DF80C3062F3C6038DF80C3047
:1024C8006278DBB262F302038DF80C30A2789DF8D3
:1024D800083062F304138DF80830DBB223F02003D0
:1024E8008DF8083003A901A8FFF768FE02A90DF1CD
:1024F8000500FFF763FE022301AA10212846FFF713
:102508006BFECBE730B583B00C46002300938DF803
:10251800043005236A462821FFF755FE0546F0B921
:102528009DF8022062609DF8013003EB022363608E
:102538009DF8000000EB0320606000026060FFF778
:1025480055FE84ED000A9DF803009DF8043040EA2A
:10255800032000B2A081FFF755FE84ED020A284649
:1025680003B030BD08B500F0D5FC08BD10B584B087
:102578004FF0FF3402940193009201230A46BB21D5
:1025880001F0E2F808B904B010BD4FF0FF30FAE7E7
:1025980010B584B04FF0FF340294019300920123E8
:1025A8000A46BB2101F0A4F908B904B010BD4FF0E8
:1025B800FF30FAE700B583B000238DF80430ADF89A
:1025C80000308DF8023048B303461C4A10601C489E
:1025D800C3601C4B43601C4B03601C4B836000238F
:1025E800036101A9FFF71AFED8B99DF80430B42B8E
:1025F8001AD100211248FFF78EFEC0B904238DF8C6
:10260800003000238DF801308DF8023069460C48FF
:10261800FFF733FF70B903B05DF804FB4FF0FF30EC
:10262800F9E74FF0FF30F6E74FF0FF30F3E74FF0F0
:10263800FF30F0E74FF0FF30EDE700BFD417002080
:10264800C017002099250008752500086D25000889
:1026580040B108B50146064B1B6833B10548FFF782
:1026680051FF08BD4FF0FF3070474FF0FF30F8E7DB
:10267800D4170020C017002008B50648FFF79AFFB6
:1026880018B1054806F05CF908BD044806F058F989
:10269800FAE700BF3C170020E4F000080CF100083E
:1026A80000B585B0EC468CE80F006046FFF7D0FF18
:1026B80040B9009A069B1A60029A079B1A6005B0F7
:1026C8005DF804FB014806F03BF9F8E738F100082B
:1026D80082B0114B1A68D36913F0080F0BD1D36974
:1026E80013F0040F07D1D36913F0020F03D1D36994
:1026F80013F0010F09D0D3690193536A0193019B29
:1027080003E0536ADBB20193019BD36913F0200FF6
:10271800F7D102B0704700BFA816002010B59AB0D4
:1027280064242246002101A806F05CFA4FF47A736B
:10273800224601A9074804F04AFD01A8FDF798FDC3
:102748004FF0FF3382B201A9034804F0D7FC1AB056
:1027580010BD00BFA81600201416002010B50446AE
:10276800FFF7B6FF2046FDF783FD4FF0FF3382B237
:102778002146034804F0C2FCFFF7D0FF10BD00BF9C
:10278800A816002008B50248FFF7E8FF08BD00BFFB
:1027980064F1000800B583B0FF238DF807304FF0CF
:1027A800FF3301220DF10701054804F0A7FC0520BD
:1027B80000F0B0FB0348FFF7D1FF03B05DF804FB5E
:1027C800A816002074F100084F4B1B88002B00F05E
:1027D800948070B588B006464C494D4806F00AFA10
:1027E8000546002800F08B800535002405940694E2
:1027F8000794ADF810408DF8124000E001350B2C1D
:102808001CD82B78222B19D0C3B1202BF6D08DF8E9
:1028180010306B788DF8113000218DF812101022CD
:102828000DEB020005F000FB631C04F120020DEB28
:10283800020404F80C0C0235DCB2E0E70B2C60D97A
:1028480000230FE05A0008A901EB430111F80C0C12
:1028580021326A4412F80C2C42EA002221F81C2C7E
:102868000133DBB2052BEDD9BDF9043007EE103A80
:10287800B8EEC77ADFED277AC7EE276AC6ED006A99
:10288800BDF9063007EE103AB8EEC77AC7EE276AE8
:10289800C6ED016ABDF9083006EE903AF8EEE66A30
:1028A800B2EE046A86EE867ADFED1B6A37EE267A88
:1028B80086ED027ABDF90A3007EE103AB8EEC77A0B
:1028C800C7EE275AC6ED035ABDF90C3007EE103A89
:1028D800B8EEC77AC7EE275AC6ED045ABDF90E30CE
:1028E80007EE103AB8EEC77AC7EE067A77EEA67A00
:1028F800C6ED057A012008B070BD002070470020A1
:10290800F9E70020F7E700BFD81700207CF100089E
:10291800DC1700200000C842000048442DE9F047B9
:1029280082B004468846154699460A9FFFF7D0FEAE
:10293800237893BB2A460021404606F053F900F05D
:10294800E3FA064600248DF8074000F0DDFA801B04
:10295800B84232D26B1E9C422FDA0A2301220DF1B3
:1029680007011C4804F033FC0028EED104F1010AE9
:102978001FFA8AFA9DF8073008F80430B9F1000FF9
:1029880016D04846FDF774FC824513D349464046A5
:1029980006F030F980B95446D7E72046FDF768FCC1
:1029A8004FF0FF3382B221460A4804F0A7FBC1E783
:1029B8005446CAE75446C8E754461CB9204602B0F4
:1029C800BDE8F0874FF0FF3322464146024804F045
:1029D80095FBF3E7A81600201416002000B583B075
:1029E80000930023FFF79AFF03B05DF804FB000093
:1029F80010B5B2B02648FFF7B1FE4FF47A7000F078
:102A080089FA2448FFF7AAFE4FF47A7000F082FA98
:102A18002148FFF7A3FE4FF47A7000F07BFA1F48B5
:102A2800FFF79CFE4FF47A7000F074FA1C48FFF729
:102A380095FE4FF47A7000F06DFA1A48FFF78EFE93
:102A48004FF47A7000F066FA1748FFF787FE4FF4E4
:102A58007A7000F05FFA1548FFF780FE4FF47A703D
:102A680000F058FA1248FFF779FE4FF47A7000F038
:102A780051FAC82422460021684606F0B3F843F606
:102A88009823224669460B48FFF7A8FF32B010BDCD
:102A980074F1000884F1000890F10008A4F100081E
:102AA800B4F10008C4F10008D0F10008F0F1000802
:102AB80024F2000844F2000800B58FB0FDEEC07A99
:102AC800CDED027AF2EE047A60EEA70AFDEEE00A96
:102AD800FCEEC17ACDED037A9DF80C2010EE903A09
:102AE8009BB2019200939DF808300A4A282104A855
:102AF80005F02EFF4FF4FA530093074B4FF4007282
:102B0800064904A8FFF70AFF054B18800FB05DF8C7
:102B180004FB00BF50F200086CF20008DC1700202C
:102B2800D81700202DE9F0418AB005460E46164F09
:102B3800164C4FF4FA68CDF800803B464FF400720B
:102B480021461348FFF7EAFE00962B46114A20213A
:102B580002A805F0FDFE4FF4FA5300930E4B4FF414
:102B68000072214602A8FFF7D9FE0C4B1880CDF859
:102B780000803B464FF4007221460948FFF7CEFE1D
:102B88000AB0BDE8F08100BF7CF20008DC17002025
:102B980084F2000894F200086CF20008D8170020AC
:102BA800C4F100080120704708B506F083F8162321
:102BB80003604FF0FF3008BD08B54FF0FF31FFF755
:102BC800F3FFFEE770B50C461646002506E0AFF3A6
:102BD8000080214601F8010B01350C46B542F6DBB1
:102BE800304670BD70B50C461646002504E014F852
:102BF800010BFEF705FA0135B542F8DB304670BD2A
:102C08004FF0FF3070474FF400534B60002070477F
:102C18000120704700207047002807DB00F01F02E2
:102C2800400901239340024A42F82030704700BF10
:102C380000E100E0002808DB0901C9B200F16040AA
:102C480000F5614080F80013704700F00F0009019B
:102C5800C9B2014B1954704714ED00E000B500F0FB
:102C68000700C0F1070CBCF1040F28BF4FF0040C9B
:102C7800031D062B0FD9C31E4FF0FF3E0EFA0CF0B2
:102C880021EA000199400EFA03FE22EA0E0241EA07
:102C980002005DF804FB0023EEE70000074AD36852
:102CA80023F4E0631B041B0C000200F4E060034300
:102CB80043F0BF6343F40033D360704700ED00E096
:102CC80010B50446054BD868C0F30220FFF7C6FFCD
:102CD80001462046FFF7AEFF10BD00BF00ED00E043
:102CE80008B5FFF799FF08BD0138B0F1807F09D218
:102CF8004FF0E0235861002098611A6942F00302FE
:102D08001A61704701207047042838D8DFE800F0BE
:102D18000A18283703004FF0E022136943F0040330
:102D2800136170474FF0E022136923F00403136125
:102D3800134AD2F8E03023F44003C2F8E030704779
:102D48004FF0E022136923F0040313610C4AD2F810
:102D5800E03023F4400343F48003C2F8E0307047C6
:102D68004FF0E022136923F004031361044AD2F8F8
:102D7800E03023F4400343F40003C2F8E030704726
:102D8800000C02464FF0E023186910F004000CD143
:102D9800084BD3F8E03003F44003B3F5800F06D0B6
:102DA800B3F5000F04D102207047042070470120BA
:102DB800704700BF000C0246074B1B6813F0010F59
:102DC80007D1054A136823F0040303431360002066
:102DD80070470120704700BF00040340034A13688E
:102DE80043F0010313600020704700BF0004034054
:102DF80038B5274B1A78002A47D005464FF0E0230C
:102E08001C6914F004040DD0224B1C684FF47A712D
:102E1800B1FBF2F2B4FBF2F42046FFF765FF50B3C2
:102E2800012033E0FFF7AEFF01280ED0022817D0AB
:102E38000028F1D1174B1C68154A11784FF4FA5243
:102E4800B2FBF1F2B4FBF2F4E6E7114B1B784FF456
:102E58007A72B2FBF3F24FF4FA43B3FBF2F4DBE716
:102E68000B4B1B784FF47A72B2FBF3F24FF400432A
:102E7800B3FBF2F4D0E7002229464FF0FF30FFF70A
:102E88001FFF054B1D60002000E0012038BD00BF7A
:102E980000000020080000200400002010B5104A9F
:102EA800136843F4807313600320FFF7F7FE00F004
:102EB800B3FE0C4B1B6A03F00F030B4AD35CD840DC
:102EC8000A4B18600420FFF71FFF0F20FFF790FF41
:102ED80010B10124204610BD0446FEF753FBF9E764
:102EE80000200240000C02469CF400080800002064
:102EF800034B1B78034A11680B441360704700BFEB
:102F080000000020DC190020014B1868704700BF42
:102F1800DC19002038B50446FFF7F6FF0546B4F182
:102F2800FF3F02D0044B1B781C44FFF7EDFF401B0A
:102F3800A042FAD338BD00BF0000002003689A6998
:102F480012F0020F01D000229A6203689A6912F007
:102F5800010F03D19A6942F001029A61704710B4D7
:102F6800019CC1F3090141EA02411943214321F0BF
:102F7800004102685368640D04F4806444F07F746F
:102F880044F4583444F47F7444F0030423EA0403FB
:102F98000B4353605DF8044B70472DE9F04104463C
:102FA80003689E6916F010067CD00D4690461022E4
:102FB800DA61002637462368986910F0200F30D16F
:102FC8007FBBB5F1FF3FF6D0FFF79EFFA0EB0800EF
:102FD800A84201D8002DEED121684B6803F4804344
:102FE80094F84220D2B2886910F4004F02D00BB98D
:102FF800202A0ED123689B6913F0200FDBD1FFF73D
:1030080083FFA0EB08001928F4D946F02006012711
:10301800D1E74B6843F480434B60FFF775FF804668
:10302800E8E70FB92022DA6146F004060125226894
:10303800936913F4807F05D046F001064FF4807140
:10304800D161012513F4806F06D046F00806226886
:103058004FF48061D161012513F4007F24D046F03C
:10306800020623684FF40072DA6101252046FFF753
:1030780065FF2268536823F0FF7323F48B3323F42E
:10308800FF7323F001035360636C334363642023AD
:1030980084F84130002384F8423084F840302846D0
:1030A800BDE8F0810025C2E7002DF8D0DEE770B555
:1030B80004460D46164623689B6913F0020F22D179
:1030C800324629462046FFF768FFF0B9B5F1FF3FC1
:1030D800F1D0FFF719FF801BA84201D8002DEAD1D3
:1030E80023689B6913F0020FE5D1636C43F020035A
:1030F8006364202384F84130002384F8423084F844
:103108004030012000E0002070BD0120FCE72DE9DF
:10311800F8430546884617461E46DDF820902B687A
:103128009C6938EA04040CBF01230023BB4227D161
:103138004A4631462846FFF730FF20BBB6F1FF3F2D
:10314800EDD0FFF7E1FEA0EB0900B04201D8002E58
:10315800E5D12B689B6938EA03030CBF01230023E0
:10316800BB42DCD16B6C43F020036B64202385F8F1
:103178004130002385F8423085F84030012000E0D6
:103188000020BDE8F8830120FBE700002DE9F041AD
:1031980082B0044690461D46089E099F194B00932D
:1031A8004FF08073EAB2FFF7DAFE3A46314620461E
:1031B800FFF77DFFF8B9012D0ED123685FFA88F279
:1031C8009A6200973346002280212046FFF79FFF2E
:1031D800A8B902B0BDE8F08123684FEA18229A62C4
:1031E8003A4631462046FFF762FF30B923685FFA56
:1031F80088F29A62E5E70120EBE70120E9E7012080
:10320800E7E700BF002000802DE9F04182B00446C6
:1032180090461D46089E099F184B00930023EAB26A
:10322800FFF79DFE3A4631462046FFF740FFF8B9C2
:10323800012D0ED123685FFA88F29A62009733460F
:10324800002240212046FFF762FFA8B902B0BDE87E
:10325800F08123684FEA18229A623A46314620469E
:10326800FFF725FF30B923685FFA88F29A62E5E72D
:103278000120EBE70120E9E70120E7E700200080D3
:1032880070B504460D46164604E023689B6913F0A2
:10329800200F12D023689B6913F0200F1BD13246F0
:1032A80029462046FFF779FEB8B9FFF72DFE801BA7
:1032B800A842EAD8002DEDD1E7E7636C43F020037C
:1032C8006364202384F84130002384F8423084F872
:1032D8004030012000E0002070BD0120FCE7F8B577
:1032E80004460E461746002518E000236364FFF7DE
:1032F8000BFEC01BB04200D886B97DB923689B6914
:1033080013F0040F0AD1636C43F020036364202395
:1033180084F84130002384F84030012523689B69F4
:1033280013F0040F2ED16DBB3A4631462046FFF705
:1033380034FE00B1012523689A6912F0200FD6D017
:10334800002DD4D19A699A6912F0100FCDD01022AD
:10335800DA610423636423682022DA6121684B68F8
:1033680023F0FF7323F48B3323F4FF7323F001035B
:103378004B6084F84120002384F8423084F84030C0
:103388000125B4E72846F8BD00285FD010B50446EB
:1033980090F84130002B48D0242384F8413022682B
:1033A800136823F0010313606368226823F07063D5
:1033B80013612268936823F400439360E368012B48
:1033C80038D0A368226843F404439360E368022B6F
:1033D80036D02268536823F4006353602268536828
:1033E80043F0007343F4004353602268D36823F426
:1033F8000043D360236962691343A169226843EAE1
:103408000123D360E369216A22680B4313602268B1
:10341800136843F00103136000206064202384F8DC
:103428004130206384F8420010BD80F84030FEF738
:10343800BBF8B1E7A368226843F400439360C5E78B
:103448002268536843F400635360C7E7012070475C
:103458002DE9F04782B00F460A9E90F84110C9B294
:10346800202940F0A38004469046994690F84030C1
:10347800012B00F09F804FF0010A80F840A0FFF771
:1034880043FD05460090192352464FF4004120465B
:10349800FFF73DFE002840F08F80212384F841305B
:1034A800102384F8423000236364C4F82480A4F80D
:1034B8002A906363638D9BB2FF2B0AD9FF22228572
:1034C800414B00934FF0807339462046FFF747FD84
:1034D80018E0628D92B222853B4B00934FF0007347
:1034E800D2B239462046FFF73AFD0BE0628D92B220
:1034F8002285002300934FF00073D2B2394620464C
:10350800FFF72DFD638D9BB2002B33D02A46314641
:103518002046FFF7CCFD002850D1626A2368127854
:103528009A62636A01336362638D9BB2013B9BB20B
:103538006385238D013B9BB22385628D92B2002A5D
:10354800E0D0002BDED100953346002280212046B2
:10355800FFF7DDFDA0BB638D9BB2FF2BC6D9FF2211
:103568002285002300934FF0807339462046FFF7E9
:10357800F6FCC7E72A4631462046FFF781FE08BB1E
:1035880023682022DA6121684B6823F0FF7323F453
:103598008B3323F4FF7323F001034B6084F841203D
:1035A800002384F8423084F8403000E0022002B062
:1035B800BDE8F0870220FAE70120F8E70120F6E7E6
:1035C8000120F4E70120F2E7002000802DE9F04710
:1035D80082B00F460A9E90F84110C9B2202940F0E7
:1035E800A28004469046994690F84030012B00F09E
:1035F8009E804FF0010A80F840A0FFF785FC054641
:103608000090192352464FF400412046FFF77FFDF2
:10361800002840F08E80222384F84130102384F85B
:10362800423000236364C4F82480A4F82A906363BA
:10363800638D9BB2FF2B0AD9FF222285414B009351
:103648004FF0807339462046FFF789FC18E0628DF9
:1036580092B222853B4B00934FF00073D2B23946A9
:103668002046FFF77CFC0BE0628D92B22285002396
:1036780000934FF00073D2B239462046FFF76FFC33
:10368800638D9BB2002B32D02A4631462046FFF785
:1036980026FE00284FD123685A6A636A1A70636A43
:1036A80001336362228D013A92B22285638D9BB207
:1036B800013B9BB26385638D9BB2002BE0D0002A4F
:1036C800DED10095334680212046FFF720FDA0BBC0
:1036D800638D9BB2FF2BC7D9FF222285002300935D
:1036E8004FF0807339462046FFF739FCC8E72A4671
:1036F80031462046FFF7C4FD08BB23682022DA6163
:1037080021684B6823F0FF7323F48B3323F4FF7392
:1037180023F001034B6084F84120002384F84230F1
:1037280084F8403000E0022002B0BDE8F0870220B3
:10373800FAE70120F8E70120F6E70120F4E7012085
:10374800F2E700BF002400802DE9F04F83B00E4659
:10375800BDF834A00E9D90F84110C9B2202940F060
:10376800BB800446904699460C9BCBB1BAF1000F3A
:1037780016D090F84030012B00F0B2804FF0010BCA
:1037880080F840B0FFF7C0FB0746009019235A465F
:103798004FF400412046FFF7BAFC30B101209CE00D
:1037A8004FF400736364012097E0212384F84130CB
:1037B800402384F84230002363640C9A6262A4F8C0
:1037C8002AA06363019700954B464246314620463E
:1037D800FFF7DCFC70B9638D9BB2FF2B0FD9FF227A
:1037E8002285002300934FF0807331462046FFF76F
:1037F800B6FB21E0002384F8403058466DE0628D26
:1038080092B22285002300934FF00073D2B2314662
:103818002046FFF7A4FB0FE0628D92B222850023B9
:1038280000934FF00073D2B231462046FFF797FB62
:10383800638D9BB2002B33D03A4629462046FFF7CA
:1038480036FC00284ED1626A236812789A62636A4D
:1038580001336362638D9BB2013B9BB26385238D09
:10386800013B9BB22385628D92B2002AE0D0002BE7
:10387800DED100972B46002280212046FFF747FC27
:1038880090BB638D9BB2FF2BC6D9FF2222850023F4
:1038980000934FF0807331462046FFF760FBC7E77F
:1038A8003A4629462046FFF7EBFCF8B92368202260
:1038B800DA6121684B6823F0FF7323F48B3323F418
:1038C800FF7323F001034B6084F84120002384F840
:1038D800423084F8403000E0022003B0BDE8F08FA9
:1038E8000220FAE70120F8E70120F6E70120F4E7D3
:1038F8002DE9F04F83B00E46BDF834A00E9D90F828
:103908004110C9B2202940F0BC800446904699462F
:103918000C9BCBB1BAF1000F16D090F84030012BB8
:1039280000F0B3804FF0010B80F840B0FFF7ECFADD
:103938000746009019235A464FF400412046FFF7E6
:10394800E6FB30B101209DE04FF400736364012071
:1039580098E0222384F84130402384F84230002341
:1039680063640C9A6262A4F82AA0636301970095C5
:103978004B46424631462046FFF746FC70B9638DF8
:103988009BB2FF2B0FD9FF222285444B00934FF0A7
:10399800807331462046FFF7E2FA21E0002384F8DD
:1039A800403058466EE0628D92B222853B4B0093C0
:1039B8004FF00073D2B231462046FFF7D0FA0FE03D
:1039C800628D92B22285002300934FF00073D2B229
:1039D80031462046FFF7C3FA638D9BB2002B34D0E3
:1039E80000972B46002204212046FFF790FB002871
:1039F8004DD123685A6A636A1A70636A0133636235
:103A0800228D013A92B22285638D9BB2013B9BB213
:103A18006385638D9BB2002BDED0002ADCD1009732
:103A28002B4680212046FFF772FB90BB638D9BB22B
:103A3800FF2BC5D9FF222285002300934FF0807306
:103A480031462046FFF78BFAC6E73A462946204614
:103A5800FFF716FCF8B923682022DA6121684B6861
:103A680023F0FF7323F48B3323F4FF7323F0010354
:103A78004B6084F84120002384F8423084F84030B9
:103A880000E0022003B0BDE8F08F0220FAE7012031
:103A9800F8E70120F6E70120F4E700BF00240080E2
:103AA800034690F84120D2B2202A23D190F8402032
:103AB800012A21D0012280F84020242280F84120C8
:103AC8000068026822F0010202601868026822F4A5
:103AD80080520260186802681143016019680A6818
:103AE80042F001020A60202283F84120002083F876
:103AF800400070470220704702207047034690F844
:103B08004120D2B2202A21D190F84020012A1FD08A
:103B1800012280F84020242280F8412000680268B1
:103B280022F0010202601868026822F4706242EA18
:103B38000122026019680A6842F001020A60202224
:103B480083F84120002083F8400070470220704726
:103B58000220704730B583B004462D4BD3F894301B
:103B680013F0040F0FD003F039F8B0F5403F20D020
:103B7800B0F5003F1DD0B4F1805F2CD2B0F5803F86
:103B880040D0012025E0224DD5F8943043F00403BD
:103B9800C5F89430D5F8943003F004030193019BE1
:103BA80003F01CF8D5F8943023F00403C5F89430DA
:103BB800DBE7B4F1805F23D20120164A136823F0B3
:103BC8000F0303431360136803F00F0383421DD1EF
:103BD800002003B030BDB4F1005F05D9A0B9B4F13D
:103BE800405FEAD80120E8E7B4F1805F01D0012006
:103BF800E3E7B0F5803F01D00220DEE70120DCE7F3
:103C08000020DAE70320D8E70020D6E70120E0E724
:103C1800000C0246002002405B4AD369926A13F006
:103C28000C0311D002F003020C2B0BD0564AD269B8
:103C380002F00C02042A1FD0082B00F0A2800020FA
:103C4800014612E0012AF1D14F4A926812F4000F9E
:103C58000ED14D4AD2F8F420C2F303324B4951F841
:103C68002210002B00F08B8000200C2B07D070470F
:103C7800454A9268120FF1E745480021F5E700B57B
:103C88004148836A03F0030C836AC3F303230133B7
:103C980007EE103A836AC3F3001E836BC3F3CC03A9
:103CA8000EFB03F307EE903AF8EE677ABCF1020FC9
:103CB8001FD0BCF1030F47D006EE901AF8EE666AE3
:103CC800B8EE477A86EE876A2F4B5B6BC3F308031F
:103CD80007EE103AB8EE477ADFED2E6A67EEA67A5D
:103CE80077EE277AB7EE007A77EE877A66EE276A5C
:103CF80019E0B8EE477A9FED286AC6EE076A224BAC
:103D08005B6BC3F3080307EE103AB8EE477A9FEDF2
:103D1800216A67EE867A77EE277AB7EE007A77EE31
:103D2800877A66EEA76A184B5B6BC3F306630133A9
:103D380007EE903AB8EE677AC6EE877AFCEEE77A35
:103D480017EE900A5DF804FBB8EE477A9FED126A09
:103D5800C6EE076A0C4B5B6BC3F3080307EE103A19
:103D6800B8EE477A9FED0B6A67EE867A77EE277A88
:103D7800B7EE007A77EE877A66EEA76AD3E7084649
:103D880070470348704700BF000C024654F400080F
:103D98000024F400000000390024744B002800F0CF
:103DA8007181F0B583B00D4604467F4B1B6803F064
:103DB8000F038B420BD27C4A136823F00F030B438B
:103DC8001360136803F00F038B4240F05D81236892
:103DD80013F0100F0CD06269744B5B6A03F0700328
:103DE8009A4205D971494B6A23F070031A434A6213
:103DF800236813F0080F0ED022696C4B1B6A1B094D
:103E080003F070039A4206D968490B6A23F4E06309
:103E180043EA02130B62236813F0040F0CD0E26824
:103E2800624B1B6A03F070039A4205D95F490B6A1B
:103E380023F070031A430A62236813F0020F0CD0B0
:103E4800A2685A4B1B6A03F00F039A4205D95749D7
:103E58000B6A23F00F031A430A62236813F0010F59
:103E680000F0A8806368032B0AD0022B61D0002BD6
:103E780066D14E4B1B6813F0040F26D10120FFE0DA
:103E88004A4BD3F8943013F0040F0ED1474BD3F8B4
:103E9800942042F00402C3F89420D3F8943003F03D
:103EA80004030193019B012700E00027FFF72CF88A
:103EB80006463F4BDB6813F4802F26D18FBB3B4B64
:103EC8001B6813F0007F00F0E180384AD36923F0C3
:103ED800030361680B43D361FFF716F8064663686E
:103EE800032B34D0022B41D0002B4ED02F4BDB6953
:103EF80003F00C03042B5DD0FFF706F8801B41F29A
:103F080088339842F2D90320BAE0294BDB6813F4CE
:103F1800804FD3D1FEF7F8FF801B0228F5D9032084
:103F2800AEE0224AD2F8943023F00403C2F8943069
:103F3800C5E71E4B1B6813F4003FC6D101209FE064
:103F48001A4B1B6813F4806FBFD1012098E0174B00
:103F5800DB6903F00C030C2B2CD0FEF7D5FF831B79
:103F680041F288329342F2D9032089E00F4BDB6992
:103F780003F00C03082B1DD0FEF7C6FF801B41F28F
:103F880088339842F2D903207AE0084BDB6913F0B2
:103F98000C0F0FD0FEF7B8FF801B41F28833984210
:103FA800F3D903206CE000BF00200240000C024659
:103FB80000080246236813F0020F0CD0A268354BA4
:103FC8001B6A03F00F039A4205D232490B6A23F0A9
:103FD8000F031A430A62304B1B6803F00F03AB420E
:103FE8000AD92D4A136823F00F032B431360136873
:103FF80003F00F03AB424BD1236813F0040F0CD02E
:10400800E268244B1B6A03F070039A4205D22149E7
:104018000B6A23F070031A430A62236813F0080F2F
:104028000ED022691B4B1B6A1B0903F070039A42CE
:1040380006D218490B6A23F4E06343EA02130B62C1
:10404800236813F0100F0CD06269124B5B6A03F0FF
:1040580070039A4205D20F494B6A23F070031A4342
:104068004A62FFF7D9FD0B4B1B6A03F00F030B4A9B
:10407800D35CD8400A4B18600A4B1868FEF7B8FEA4
:1040880003B0F0BD012070470120F9E70120F7E7F0
:104098000120F5E7000C0246002002409CF40008CD
:1040A800080000200400002008B5FFF7B5FD054B07
:1040B8001B6A03F00F03044AD35CD840034B186013
:1040C80008BD00BF000C02469CF400080800002050
:1040D800002800F02A85F0B585B004469C4BDD69C0
:1040E80005F00C059E6A06F00306036813F0100F2E
:1040F80000F09480EDB10C2D19D0E369002B00F08D
:104108001181934A136843F001031360FEF7FCFE24
:1041180007468F4B1B6813F0040F40F0CD80FEF765
:10412800F3FEC01B0228F4D9032000F001BD012EC4
:10413800E3D1E369002B00F0FA84606A844B9B6842
:1041480013F4000F1CD0824B9B6803F07043984215
:1041580044D9E5B17E4A936843F4000393609368B9
:1041680023F07043616A0B439360636AB3F1404F75
:1041780014D3D36823F01F03216A0B43D36044E0B0
:10418800734BD3F8F4301B0403F07043DFE7FFF7F9
:10419800E1FC0028DED0012000F0CABC002B0BDBBC
:1041A800B3F1804F11D36A4AD36823F4F843216AE4
:1041B80043EA8123D36028E0654AD36823F47873FF
:1041C800216A43EA4113D3601FE0614AD36823F4AC
:1041D8007823216A43EAC133D36016E05C4A9368C6
:1041E80043F400039360936823F07043616A0B43C0
:1041F8009360636AB3F1404F36D3D36823F01F034B
:10420800216A0B43D360002D4ED0FFF74DFF514B71
:104218001868FEF7EDFD002840F08A84236813F043
:10422800010F00F0A080082D00F099800C2D00F0FF
:1042380093806368B3F5803F00F0B680B3F5A02F94
:1042480000F0C880B3F5A81F00F0D280404B1A6870
:1042580022F480321A601A6822F480221A601A68DE
:1042680022F480121A60A4E0002B0BDBB3F1804F1C
:1042780011D3374AD36823F4F843216A43EA8123E8
:10428800D360C0E7324AD36823F47873216A43EADB
:104298004113D360B7E72E4AD36823F47823216A01
:1042A80043EAC133D360AEE7606AFFF753FC0028E6
:1042B800ABD0012000F03CBC254A936843F40003CE
:1042C8009360936823F07043616A0B439360636A59
:1042D800B3F1404F06D3D36823F01F03216A0B4381
:1042E800D3609BE7002B0BDBB3F1804F11D3184A47
:1042F800D36823F4F843216A43EA8123D3608DE726
:10430800134AD36823F47873216A43EA4113D360CC
:1043180084E70F4AD36823F47823216A43EAC13338
:10432800D3607BE70A4A136823F001031360FEF7A2
:10433800EBFD0746064B1B6813F0040F3FF46EAF06
:10434800FEF7E2FDC01B0228F4D90320F0E300BF0A
:10435800000C024604000020032E7FF46AAF636855
:10436800002B00F0E783236813F0020F6BD0042DB5
:104378005DD00C2D59D0E368002B00F0BF80AA4A0D
:10438800136843F480731360FEF7BEFD0546A64B21
:104398001B6813F4806F40F0A880FEF7B5FD401B42
:1043A8000228F4D90320C3E39F4A136843F48033F7
:1043B8001360636853B3FEF7A7FD07469A4B1B6863
:1043C80013F4003FCFD1FEF79FFDC01B6428F5D939
:1043D8000320ADE3944B1A6842F480221A601A68ED
:1043E80022F480121A601A6842F480321A60E0E7F8
:1043F8008D4B1A6842F480221A601A6842F48012BF
:104408001A601A6842F480321A60D2E7FEF77CFD1F
:104418000746854B1B6813F4003FA4D0FEF774FDD4
:10442800C01B6428F5D9032082E3022EA3D1E368D8
:10443800002B00F081837C4A136923F4F813216967
:1044480043EA01431361236813F0080F00F0AF80BB
:10445800754BD3F8943013F0040F63D1724BD3F833
:10446800942042F00402C3F89420D3F8943003F067
:1044780004030193019B01256C4B9B6A13F0010F08
:1044880052D06369002B7AD0674BD3F8F030A1691A
:1044980003F08052914211D003F04062B2F1006FF4
:1044A80000F04C8313F0806F52D15F4AD2F8F0309D
:1044B80023F08053A1690B43C2F8F0305A4AD2F86E
:1044C800F03043F08063C2F8F030FEF71DFD064679
:1044D800554BD3F8F03013F0006F67D1FEF714FD99
:1044E800801B0528F4D9032022E34F4A136923F4DB
:1044F800F813216943EA01431361A4E74A4A1368A0
:1045080023F480731360FEF7FFFC0546464B1B68D7
:1045180013F4806F97D0FEF7F7FC401B0228F5D9FB
:10452800032005E30025A7E7404A936A43F0010307
:104538009362FEF7E9FC06463C4B9B6A13F0010FB9
:104548009FD1FEF7E1FC801B0228F5D90320EFE29A
:10455800354AD2F8F03023F0A053C2F8F030FEF715
:10456800D3FC0646304BD3F8F03013F0006F9CD0E4
:10457800FEF7CAFC801B0528F4D90320D8E22A4A92
:10458800D2F8F03023F0A053C2F8F030FEF7BCFCAC
:104598000646254BD3F8F03013F0006F06D0FEF72F
:1045A800B3FC801B0528F4D90320C1E295BB23681E
:1045B80013F0040F00F0D9801B4BD3F8943013F09C
:1045C800040F2FD1184BD3F8942042F00402C3F8FB
:1045D8009420D3F8943003F004030293029B01253E
:1045E800124B9B6A13F0010F22D0A36813F0010F3E
:1045F8003AD013F0040F2FD00B4BD3F8F02042F031
:104608000402C3F8F020D3F8F02042F00102C3F806
:10461800F02036E0044AD2F8943023F00403C2F8BC
:104628009430C4E70025DBE7000C02460008024688
:10463800A84A936A43F001039362FEF765FC0646B5
:10464800A44B9B6A13F0010FCFD1FEF75DFC801BD2
:104658000228F5D903206BE29F4AD2F8F03043F0E4
:104668000103C2F8F0300CE09B4BD3F8F02022F0A5
:104678000102C3F8F020D3F8F02022F00402C3F8B6
:10468800F020A368002B41D0FEF73EFC0646924B73
:10469800D3F8F03013F0020F08D1FEF735FC801B79
:1046A80041F288339842F2D9032041E2A36813F01B
:1046B800800F15D0884AD2F8F03043F08003C2F852
:1046C800F030854BD3F8F03013F4006F4CD1FEF77F
:1046D8001BFC801B41F288339842F2D9032027E261
:1046E8007D4AD2F8F03023F08003C2F8F0307A4BDC
:1046F800D3F8F03013F4006F36D0FEF705FC801BBA
:1047080041F288339842F2D9032011E2FEF7FCFB0C
:104718000646714BD3F8F03013F0020F08D0FEF7BD
:10472800F3FB801B41F288339842F2D90320FFE162
:10473800694BD3F8F03013F0800F15D0664AD2F8E1
:10474800F03023F08003C2F8F030634BD3F8F03038
:1047580013F4006F08D0FEF7D7FB801B41F28833B3
:104768009842F2D90320E3E1CDB9236813F0200F72
:1047780031D0E36ADBB1584A136843F480531360BD
:10478800FEF7C2FB0546544B1B6813F4005F22D1A9
:10479800FEF7BAFB401B0228F5D90320C8E14E4AB0
:1047A800D2F8943023F00403C2F89430DDE74A4A83
:1047B800136823F480531360FEF7A6FB0546464BA7
:1047C8001B6813F4005F06D0FEF79EFB401B02280F
:1047D800F5D90320ACE1236813F0800F29D0236BAF
:1047E8009BB13D4A136843F480431360FEF78CFB8A
:1047F8000546394B1B6813F4004F1AD1FEF784FBAA
:10480800401B0228F5D9032092E1334A136823F4A8
:1048180080431360FEF778FB05462F4B1B6813F4A3
:10482800004F06D0FEF770FB401B0228F5D9032085
:104838007EE1236813F0400F64D0636B002B4DD0EA
:10484800254A936843F400039360936823F07063E8
:10485800A16A0B439360636AB3F1404F19D3D368DD
:1048680023F01F03216A0B43D3601B4A136843F0EC
:1048780010031360FEF748FB0546174B1B6813F03F
:10488800200F3FD1FEF740FB401B0228F5D903203B
:104898004EE1002B0BDBB3F1804F11D30E4AD368E6
:1048A80023F4F843216A43EA8123D360DDE70A4A07
:1048B800D36823F47873216A43EA4113D360D4E7B9
:1048C800054AD36823F47823216A43EAC133D360C5
:1048D800CBE700BF00080246000C0246A14A136855
:1048E80023F010031360FEF70FFB05469D4B1B6872
:1048F80013F0200F06D0FEF707FB401B0228F5D95E
:10490800032015E1A36B002B00F01A81954AD269A8
:1049180002F00C020C2A00F0BC80022B14D0914A41
:10492800136823F080731360FEF7EEFA04468D4B8C
:104938001B6813F0007F00F0A380FEF7E5FA001B68
:104948000228F4D90320F3E0864A136823F0807321
:104958001360FEF7D9FA0546824B1B6813F0007FF7
:1049680006D0FEF7D1FA401B0228F5D90320DFE074
:104978007C4BD3F8943013F0040F68D1794BD3F8FB
:10498800942042F00402C3F89420D3F8943003F042
:1049980004030393039B0125734BDB6813F4802FF7
:1049A80057D10026704AD36823F48023D3606D4B17
:1049B8009A6A22F47F4222F00302E16B206C0138EC
:1049C80041EA0021606C01430A439A625A6B6748C6
:1049D8001040A26C013AC2F30802E16C01394902A5
:1049E80089B20A43216D0139090401F4FE010A4321
:1049F800616D0139090601F0FE410A43104358630D
:104A08009A6A22F010029A62E26DD2009A639A6A58
:104A180042F010029A629A6A22F00C02A16D0A43CF
:104A28009A62C6B9EDB94F4A136843F080731360B0
:104A3800FEF76AFA04464B4B1B6813F0007F18D147
:104A4800FEF762FA001B0228F5D9032070E0002562
:104A5800A2E70126A6E7444AD36843F48023D3603B
:104A6800E0E7404AD2F8943023F00403C2F89430C7
:104A7800D9E73C4A936A43F480239362002057E0C5
:104A8800384A936A23F4E02323F003039362002057
:104A98004EE0344A916A506B012B53D001F0030366
:104AA800E26B934250D1C1F30322236C013B9A423B
:104AB8004CD101F47041636C994249D1C0F30802AA
:104AC800A36C013B9A4245D1C0F34622E36C013BFB
:104AD8009A4241D1C0F30642236D013B9A423DD12F
:104AE800C0F30660636D013B984239D11D4B9B6B47
:104AF800C3F3CC03E26D934201D1002018E0194AB8
:104B0800936A23F010039362FEF7FEF90546FEF759
:104B1800FBF9A842FBD0E26DD200124B9A639A6A65
:104B280042F010029A62002002E001207047012042
:104B380005B0F0BD0120FBE70120F9E70120F7E708
:104B48000020F5E70120F3E70120F1E70120EFE776
:104B58000120EDE70120EBE70120E9E70120E7E785
:104B68000120E5E7000C02460008024600008080AC
:104B780008B5FFF799FA044B1B6AC3F30213034AFB
:104B8800D35CD84008BD00BF000C024694F400086E
:104B980008B5FFF789FA044B1B6AC3F30223034ADB
:104BA800D35CD84008BD00BF000C024694F400084E
:104BB80008B5FFF779FA044B5B6AC3F30213034A9B
:104BC800D35CD84008BD00BF000C024694F400082E
:104BD80038B50546344A136823F080531360FEF74E
:104BE80093F90446304B1B6813F0005F06D0FEF7BC
:104BF8008BF9001B0228F5D9032038BD2A4B1A6B04
:104C080022F4706222F0030229686868013841EAD8
:104C180000210A431A635A6C24481040AA68013AD2
:104C2800C2F30802E9680139490289B20A432969CD
:104C38000139090401F4FE010A43696901390906C9
:104C480001F0FE410A43104358641A6B22F00C022B
:104C5800A9690A431A631A6B296A0A431A631A6B09
:104C680022F010021A639A6C6FF3CF02E96942EAE4
:104C7800C1029A641A6B42F010021A631A6842F071
:104C880080521A60FEF740F90446074B1B6813F080
:104C9800005F06D1FEF738F9001B0228F5D903207A
:104CA800ABE70020A9E700BF000C024600008080A7
:104CB80038B50546344A136823F080631360FEF75D
:104CC80023F90446304B1B6813F0006F06D0FEF73B
:104CD8001BF9001B0228F5D9032038BD2A4BDA6AD4
:104CE80022F4706222F0030229686868013841EAF8
:104CF80000210A43DA62DA6B24481040AA68013AB4
:104D0800C2F30802E9680139490289B20A432969EC
:104D18000139090401F4FE010A43696901390906E8
:104D280001F0FE410A431043D863DA6A22F00C020C
:104D3800A9690A43DA62DA6A296A0A43DA62DA6A2C
:104D480022F01002DA621A6C6FF3CF02E96942EAC4
:104D5800C1021A64DA6A42F01002DA621A6842F092
:104D680080621A60FEF7D0F80446074B1B6813F000
:104D7800006F06D1FEF7C8F8001B0228F5D90320FA
:104D8800ABE70020A9E700BF000C024600008080C6
:104D98002DE9F04182B00446036813F0010F08D0F2
:104DA800884AD2F8E03023F00303016D0B43C2F8C0
:104DB800E030236813F0040F08D0824AD2F8E030BC
:104DC80023F03003616D0B43C2F8E030236813F021
:104DD800080F08D07B4AD2F8E03023F0C003A16D59
:104DE8000B43C2F8E030236813F0100F08D0754A5F
:104DF800D2F8E03023F44073E16D0B43C2F8E030A1
:104E0800236813F0200F08D06E4AD2F8E83023F058
:104E18000703216E0B43C2F8E830236813F0400FF4
:104E280008D0684AD2F8E03023F44063616E0B433F
:104E3800C2F8E030236813F0800F08D0614AD2F836
:104E4800E03023F44053A16E0B43C2F8E0302368EE
:104E580013F4807F08D05B4AD2F8E83023F0C0030F
:104E6800E16E0B43C2F8E830236813F4800F08D0D2
:104E7800544AD2F8E03023F44043216F0B43C2F880
:104E8800E030236813F4007F08D04E4AD2F8E830A7
:104E980023F44063616F0B43C2F8E830236813F4CE
:104EA800806F08D0474AD2F8E03023F44023A16F3E
:104EB8000B43C2F8E030236813F4006F08D0414A6E
:104EC800D2F8E83023F44073E16F0B43C2F8E830BE
:104ED800236813F4005F36D0D4F88C30402B13D0FD
:104EE8000BD81BB3202B05D104F12C00FFF770FE63
:104EF800054620E001273D4627E0602B1FD0802B88
:104F08001FD001273D4620E02E4A936A43F48033A0
:104F1800936200252B4AD2F8E43023F0E003D4F85A
:104F28008C100B43C2F8E43000270EE004F10800AF
:104F3800FFF7BEFE0546002DECD02F4605E0002504
:104F4800E8E70025E6E700273D46236813F4004F0D
:104F58002AD0D4F8A030B3F5005F13D00BD9B3F53D
:104F6800804F14D0B3F5A04F11D0B3F5405F0ED0E9
:104F780001273D4618E053B1B3F5805F07D00127FC
:104F88003D4611E004F10800FFF792FE054655B9C9
:104F98000C4AD2F8E83023F4E043D4F8A0100B43CD
:104FA800C2F8E83000E02F46236813F4803F1DD094
:104FB800D4F88430042B00F29E80DFE803F00A0561
:104FC800960A0A00000C0246BB4A936A43F48033EF
:104FD8009362002D40F09280B74AD2F8E43023F073
:104FE8000703D4F884100B43C2F8E430236813F4A1
:104FF800003F1DD0D4F88830B3F5003F00F08C8016
:1050080000F281803BB1B3F5803F79D1AA4A936A17
:1050180043F480339362002D40F08480A64AD2F88E
:10502800E83023F4E023D4F888100B43C2F8E830C2
:10503800236813F4802F00F091809F4BD3F89430AD
:1050480013F0040F70D19C4BD3F8942042F0040263
:10505800C3F89420D3F8943003F004030193019B20
:105068004FF00108954A936A43F001039362FDF7F4
:105078004BFF0646914B9B6A13F0010F05D1FDF7D4
:1050880043FF831B022BF5D90325002D61D18A4BE1
:10509800D3F8F03013F4407319D0D4F8B8209A42FA
:1050A80012D0854AD2F8F03023F44073D2F8F010C9
:1050B80041F48031C2F8F010D2F8F01021F48031B8
:1050C800C2F8F010C2F8F03013F0010F2FD1002D04
:1050D80040F0F080784AD2F8F03023F44073D4F8E6
:1050E800B8100B43C2F8F03034E004F12C00FFF79D
:1050F8006FFD05466DE701273D4677E72F4675E7C3
:1051080001273D4694E7B3F5403F84D0B3F5802F9F
:1051180081D001273D468BE704F12C00FFF758FDAD
:10512800054678E72F4683E74FF000089AE7FDF732
:10513800EBFE0646604BD3F8F03013F0020FC6D1F1
:10514800FDF7E2FE801B41F288339842F2D903252D
:10515800BDE72F46B8F1000F40F0B280236813F482
:10516800801F1ED0D4F89830B3F1006F00F0BA80D9
:1051780000F2B18043B1B3F1806F40F0A98004F12F
:105188000800FFF795FD0546002D40F0B1804A4A1A
:10519800D2F8E03023F04063D4F898100B43C2F8FB
:1051A800E030236813F4002F0ED0D4F89030B3F514
:1051B800805F00F09F80B3F5005F00F09B80002BBC
:1051C80000F0988001273D46236813F4805F09D0DA
:1051D800394AD2F8E43023F40063D4F894100B432E
:1051E800C2F8E430236813F4001F0FD0D4F89C30C1
:1051F800B3F5804F00F08A802F4AD2F8E43023F4C8
:105208008043D4F89C100B43C2F8E430236813F4AD
:10521800000F09D0284AD2F8E03023F44013D4F81C
:10522800AC100B43C2F8E030236813F0807F09D03C
:10523800214AD2F8E03023F44033D4F8B0100B43BD
:10524800C2F8E030236813F0007F09D01A4AD2F878
:10525800E83023F01803D4F8B4100B43C2F8E83050
:10526800236813F0806F15D0D4F8A830B3F5001F69
:1052780052D0D4F8A830B3F5401F53D0002D57D1E1
:105288000D4AD2F8E43023F44013D4F8A8100B43A5
:10529800C2F8E430236813F0006F5BD0D4F8803094
:1052A800B3F1807F46D0B3F1007F65D0002B46D0A4
:1052B80001274FE02F464DE7000C02460008024642
:1052C800314AD2F8943023F00403C2F8943045E709
:1052D80001273D4665E7B3F1406F3FF455AF01271D
:1052E8003D465EE7284A936A43F4003393624BE7EE
:1052F8002F4656E745B92449D1F8E42022F4405214
:105308001343C1F8E4305FE72F465DE71E4A936A0E
:1053180043F4803393626FE71B4A936A43F4003384
:105328009362A6E704F10800FFF7C2FC0546A5E76B
:105338002F46AFE7144A936A43F4003393620DBBD8
:10534800114AD2F8E03023F04073D4F880100B43B0
:10535800C2F8E030236813F0805F09D00A4AD2F817
:10536800E83023F40043D4F8A4100B43C2F8E83023
:10537800384602B0BDE8F08104F10800FFF798FC58
:105388000546DCE72F46E5E7000C024610B5824CDF
:10539800616BC1F30801A36A03F0030CA36AC3F3AA
:1053A80003235A1CA36AC3F3001EA36BC3F3CC03E5
:1053B8000EFB03F307EE903AF8EE677ABCF1020FA2
:1053C8002ED0BCF1030F00F0BA80BCF1010F00F041
:1053D8008A80714B9B6813F4000F00F0CD806E4BF0
:1053E8009B681B0F6D4C04EB830393ED006AB8EECA
:1053F800466A07EE102AB8EE477AC6EE076A07EE45
:10540800101AB8EE477A9FED666A67EE867A77EEED
:10541800277AB7EE007A77EE877A66EEA77A1BE0EE
:1054280007EE102AB8EE477A9FED5E6AC6EE076A65
:10543800594B5B6BC3F3080307EE103AB8EE477A93
:105448009FED576A67EE867A77EE277AB7EE007A8D
:1054580077EE877A66EEA77A4F4B9B6A13F4803F04
:1054680000F090804C4B5B6BC3F3462307EE103A79
:10547800B8EE477AF7EE006A37EE267AC7EE876A03
:10548800FCEEE66AC0ED006A434B9B6A13F4003FEA
:105498007BD0414B5B6BC3F3064307EE103AB8EE83
:1054A800477AF7EE006A37EE267AC7EE876AFCEE8F
:1054B800E66AC0ED016A384B9B6A13F4802F67D007
:1054C800354B5B6BC3F3066307EE103AB8EE477AC9
:1054D800F7EE006A37EE267AC7EE876AFCEEE66AD0
:1054E800C0ED026A10BD2C4B9B6813F4000F20D04E
:1054F800294B9B681B0F294C04EB830393ED006A2F
:10550800B8EE466A07EE102AB8EE477AC6EE076A82
:1055180007EE101AB8EE477A9FED216A67EE867A91
:1055280077EE277AB7EE007A77EE877A66EEA77A73
:1055380092E7194BD3F8F430C3F30333DBE707EEF4
:10554800102AB8EE477A9FED176AC6EE076A124B23
:105558005B6BC3F3080307EE103AB8EE477A9FED8A
:10556800106A67EE867A77EE277AB7EE007A77EEDA
:10557800877A66EEA77A6FE7074BD3F8F430C3F360
:1055880003332FE7002303607EE70023436092E79D
:1055980000238360A6E700BF000C024654F400080D
:1055A800000000390024744B10B5824CE16BC1F344
:1055B8000801E36A03F0030CE36AC3F303235A1CEC
:1055C800E36AC3F3001E236CC3F3CC030EFB03F39F
:1055D80007EE903AF8EE677ABCF1020F2ED0BCF1D4
:1055E800030F00F0BA80BCF1010F00F08A80714B04
:1055F8009B6813F4000F00F0CD806E4B9B681B0F67
:105608006D4C04EB830393ED006AB8EE466A07EE2F
:10561800102AB8EE477AC6EE076A07EE101AB8EEF7
:10562800477A9FED666A67EE867A77EE277AB7EE55
:10563800007A77EE877A66EEA77A1BE007EE102AE3
:10564800B8EE477A9FED5E6AC6EE076A594BDB6B88
:10565800C3F3080307EE103AB8EE477A9FED576A8E
:1056680067EE867A77EE277AB7EE007A77EE877A52
:1056780066EEA77A4F4BDB6A13F4803F00F0908008
:105688004C4BDB6BC3F3462307EE103AB8EE477A70
:10569800F7EE006A37EE267AC7EE876AFCEEE66A0E
:1056A800C0ED006A434BDB6A13F4003F7BD0414BEB
:1056B800DB6BC3F3064307EE103AB8EE477AF7EE12
:1056C800006A37EE267AC7EE876AFCEEE66AC0ED16
:1056D800016A384BDB6A13F4802F67D0354BDB6BDC
:1056E800C3F3066307EE103AB8EE477AF7EE006A9E
:1056F80037EE267AC7EE876AFCEEE66AC0ED026AE4
:1057080010BD2C4B9B6813F4000F20D0294B9B68CD
:105718001B0F294C04EB830393ED006AB8EE466A2D
:1057280007EE102AB8EE477AC6EE076A07EE101A97
:10573800B8EE477A9FED216A67EE867A77EE277A88
:10574800B7EE007A77EE877A66EEA77A92E7194B7A
:10575800D3F8F430C3F30333DBE707EE102AB8EECF
:10576800477A9FED176AC6EE076A124BDB6BC3F3E5
:10577800080307EE103AB8EE477A9FED106A67EE15
:10578800867A77EE277AB7EE007A77EE877A66EE32
:10579800A77A6FE7074BD3F8F430C3F303332FE747
:1057A800002303607EE70023436092E700238360C1
:1057B800A6E700BF000C024654F4000800000039B8
:1057C8000024744B10B5824C616CC1F30801236B43
:1057D80003F0030C236BC3F303235A1C236BC3F39B
:1057E800001EA36CC3F3CC030EFB03F307EE903A41
:1057F800F8EE677ABCF1020F2ED0BCF1030F00F06F
:10580800BA80BCF1010F00F08A80714B9B6813F4D9
:10581800000F00F0CD806E4B9B681B0F6D4C04EBA6
:10582800830393ED006AB8EE466A07EE102AB8EED5
:10583800477AC6EE076A07EE101AB8EE477A9FED68
:10584800666A67EE867A77EE277AB7EE007A77EEA1
:10585800877A66EEA77A1BE007EE102AB8EE477A39
:105868009FED5E6AC6EE076A594B5B6CC3F308038B
:1058780007EE103AB8EE477A9FED576A67EE867AD8
:1058880077EE277AB7EE007A77EE877A66EEA77A10
:105898004F4B1B6B13F4803F00F090804C4B5B6CBC
:1058A800C3F3462307EE103AB8EE477AF7EE006ADC
:1058B80037EE267AC7EE876AFCEEE66AC0ED006A24
:1058C800434B1B6B13F4003F7BD0414B5B6CC3F322
:1058D800064307EE103AB8EE477AF7EE006A37EE5D
:1058E800267AC7EE876AFCEEE66AC0ED016A384B95
:1058F8001B6B13F4802F67D0354B5B6CC3F30663C7
:1059080007EE103AB8EE477AF7EE006A37EE267AD5
:10591800C7EE876AFCEEE66AC0ED026A10BD2C4B42
:105928009B6813F4000F20D0294B9B681B0F294C50
:1059380004EB830393ED006AB8EE466A07EE102A7B
:10594800B8EE477AC6EE076A07EE101AB8EE477A3D
:105958009FED216A67EE867A77EE277AB7EE007AAE
:1059680077EE877A66EEA77A92E7194BD3F8F43088
:10597800C3F30333DBE707EE102AB8EE477A9FED4F
:10598800176AC6EE076A124B5B6CC3F3080307EE8F
:10599800103AB8EE477A9FED106A67EE867A77EE8E
:1059A800277AB7EE007A77EE877A66EEA77A6FE7FE
:1059B800074BD3F8F430C3F303332FE70023036016
:1059C8007EE70023436092E700238360A6E700BFD9
:1059D800000C024654F40008000000390024744BFF
:1059E80000B58BB0A0F500430B4300F0308348F2BC
:1059F8000103984271F1000380F0D680A0F1800382
:105A08000B4300F0E783812871F100032DD3A0F543
:105A180000630B4300F0798440F60103984271F16A
:105A2800000380F0A180A0F500730B4300F0B6845A
:105A3800A0F580630B4300F0FA84A0F5807008435A
:105A480040F09080B24BD3F8E83003F0C003802BCD
:105A580000F0148400F2F483002B00F00784402B3C
:105A680040F0EC83FEF7D8F80FE0212871F100032D
:105A780054D250EA010300F05186013841F1FF3158
:105A8800202871F1000103D300200BB05DF804FB5E
:105A98001F28F9D801A353F820F000BFBD5E000805
:105AA800915A0008915A0008015F0008915A0008AD
:105AB800915A0008915A0008455F0008915A000859
:105AC800915A0008915A0008915A0008915A000802
