:020000040800F2
:1000000000000420CD6F0008B9170008BB170008D6
:10001000BD170008BF170008C11700081D700008B1
:10002000000000000000000000000000C3170008EE
:10003000C517000800000000C7170008C91700080E
:100040001D7000081D7000081D7000081D7000085C
:100050001D7000081D7000081D7000081D7000084C
:100060001D7000081D7000081D7000081D7000083C
:100070001D7000081D7000081D7000081D7000082C
:100080001D7000081D7000081D7000081D7000081C
:100090001D7000081D7000081D7000081D7000080C
:1000A000D11700081D7000081D7000081D700008A1
:1000B0001D7000081D7000081D7000081D700008EC
:1000C0001D7000081D7000081D7000081D700008DC
:1000D0001D7000081D7000081D7000081D700008CC
:1000E0001D7000081D7000081D7000081D700008BC
:1000F0001D7000081D7000081D7000081D700008AC
:100100001D7000081D7000081D7000081D7000089B
:100110001D7000081D7000081D7000081D7000088B
:100120001D7000081D7000081D7000081D7000087B
:100130001D7000081D700008000000001D70000800
:100140001D7000081D7000081D7000081D7000085B
:100150001D7000081D7000081D7000081D7000084B
:100160001D7000081D7000081D70000800000000D0
:100170001D7000081D7000081D70000800000000C0
:100180001D7000081D7000081D7000081D7000081B
:100190001D7000081D7000081D7000081D7000080B
:1001A0001D7000081D7000081D7000080000000090
:1001B0001D7000081D7000081D7000081D700008EB
:1001C0001D7000081D7000081D7000081D700008DB
:1001D0001D7000081D7000081D7000081D700008CB
:1001E0000000000000000000000000001D7000087A
:1001F0001D700008000000001D7000081D70000840
:100200001D7000081D7000081D7000081D7000089A
:100210001D7000081D700008000000001D7000081F
:100220000000000000000000000000001D70000839
:080230001D7000081D7000089C
:1002380010B5054C237833B9044B13B10448AFF318
:1002480000800123237010BDE00E00200000000094
:100258003CBB000808B5034B1BB103490348AFF387
:10026800008008BD00000000E40E00203CBB000830
:10027800034613F8012B002AFBD1181A01387047DE
:1002880081F0004102E000BF83F0004330B54FEA3F
:1002980041044FEA430594EA050F08BF90EA020FAC
:1002A8001FBF54EA000C55EA020C7FEA645C7FEA3F
:1002B800655C00F0E2804FEA5454D4EB5555B8BF62
:1002C8006D420CDD2C4480EA020281EA030382EAD3
:1002D800000083EA010180EA020281EA0303362D65
:1002E80088BF30BD11F0004F4FEA01314FF4801C38
:1002F8004CEA113102D0404261EB410113F0004F4A
:100308004FEA03334CEA133302D0524263EB430300
:1003180094EA050F00F0A780A4F10104D5F1200E9E
:100328000DDB02FA0EFC22FA05F2801841F10001F9
:1003380003FA0EF2801843FA05F359410EE0A5F1CD
:1003480020050EF1200E012A03FA0EFC28BF4CF0FE
:10035800020C43FA05F3C01851EBE37101F00045B4
:1003680007D54FF0000EDCF1000C7EEB00006EEBC1
:100378000101B1F5801F1BD3B1F5001F0CD349084B
:100388005FEA30004FEA3C0C04F101044FEA4452A2
:1003980012F5800F80F09A80BCF1004F08BF5FEA29
:1003A800500C50F1000041EB045141EA050130BD09
:1003B8005FEA4C0C404141EB0101013C28BFB1F51B
:1003C800801FE9D291F0000F04BF01460020B1FA66
:1003D80081F308BF2033A3F10B03B3F120020CDA39
:1003E8000C3208DD02F1140CC2F10C0201FA0CF017
:1003F80021FA02F10CE002F11402D8BFC2F1200C7C
:1004080001FA02F120FA0CFCDCBF41EA0C01904031
:10041800E41AA2BF01EB0451294330BD6FEA04047A
:100428001F3C1CDA0C340EDC04F11404C4F1200265
:1004380020FA04F001FA02F340EA030021FA04F377
:1004480045EA030130BDC4F10C04C4F1200220FACE
:1004580002F001FA04F340EA0300294630BD21FA0C
:1004680004F0294630BD94F0000F83F4801306BFD2
:1004780081F480110134013D4EE77FEA645C18BFC6
:100488007FEA655C29D094EA050F08BF90EA020F5D
:1004980005D054EA000C04BF1946104630BD91EA55
:1004A800030F1EBF0021002030BD5FEA545C05D158
:1004B8004000494128BF41F0004130BD14F5800497
:1004C8003CBF01F5801130BD01F0004545F0FE410B
:1004D80041F470014FF0000030BD7FEA645C1ABF40
:1004E800194610467FEA655C1CBF0B46024650EA77
:1004F800013406BF52EA033591EA030F41F40021A3
:1005080030BD00BF90F0000F04BF0021704730B528
:100518004FF4806404F132044FF000054FF00001FD
:1005280050E700BF90F0000F04BF0021704730B5BE
:100538004FF4806404F1320410F0004548BF404293
:100548004FF000013EE700BF42004FEAE2014FEAE8
:1005580031014FEA02701FBF12F07F4393F07F4FC3
:1005680081F06051704732F07F4208BF704793F0C6
:100578007F4F04BF41F40021704730B54FF46074D9
:1005880001F0004521F000411CE700BF50EA0102DC
:1005980008BF704730B54FF000050AE050EA010285
:1005A80008BF704730B511F0004502D5404261EBF5
:1005B80041014FF4806404F132045FEA915C3FF436
:1005C800D8AE4FF003025FEADC0C18BF03325FEAD3
:1005D800DC0C18BF033202EBDC02C2F1200300FA84
:1005E80003FC20FA02F001FA03FE40EA0E0021FAA9
:1005F80002F11444BDE600BF70B54FF0FF0C4CF497
:10060800E06C1CEA11541DBF1CEA135594EA0C0F48
:1006180095EA0C0F00F0DEF82C4481EA030621EA83
:100628004C5123EA4C5350EA013518BF52EA0335BE
:1006380041F4801143F4801338D0A0FB02CE4FF070
:100648000005E1FB02E506F00042E0FB03E54FF0A0
:100658000006E1FB03569CF0000F18BF4EF0010E98
:10066800A4F1FF04B6F5007F64F5407404D25FEA94
:100678004E0E6D4146EB060642EAC62141EA555147
:100688004FEAC52040EA5E504FEACE2EB4F1FD0C89
:1006980088BFBCF5E06F1ED8BEF1004F08BF5FEA07
:1006A800500E50F1000041EB045170BD06F00046B9
:1006B80046EA010140EA020081EA0301B4EB5C0466
:1006C800C2BFD4EB0C0541EA045170BD41F480115E
:1006D8004FF0000E013C00F3AB8014F1360FDEBF83
:1006E800002001F0004170BDC4F10004203C35DA5F
:1006F8000C341BDC04F11404C4F1200500FA05F3E2
:1007080020FA04F001FA05F240EA020001F0004282
:1007180021F0004110EBD37021FA04F642EB0601F8
:100728005EEA430E08BF20EAD37070BDC4F10C0422
:10073800C4F1200500FA04F320FA05F001FA04F2E6
:1007480040EA020001F0004110EBD37041F10001D2
:100758005EEA430E08BF20EAD37070BDC4F12005DD
:1007680000FA05F24EEA020E20FA04F301FA05F245
:1007780043EA020321FA04F001F0004121FA04F2ED
:1007880020EA020000EBD3705EEA430E08BF20EABD
:10079800D37070BD94F0000F0FD101F000464000F7
:1007A80041EB010111F4801F08BF013CF7D041EA79
:1007B800060195F0000F18BF704703F0004652007D
:1007C80043EB030313F4801F08BF013DF7D043EA4E
:1007D8000603704794EA0C0F0CEA135518BF95EA04
:1007E8000C0F0CD050EA410618BF52EA4306D1D18B
:1007F80081EA030101F000414FF0000070BD50EAAA
:10080800410606BF1046194652EA430619D094EA33
:100818000C0F02D150EA013613D195EA0C0F05D11D
:1008280052EA03361CBF104619460AD181EA030171
:1008380001F0004141F0FE4141F470014FF0000029
:1008480070BD41F0FE4141F4780170BD70B54FF0C4
:10085800FF0C4CF4E06C1CEA11541DBF1CEA135544
:1008680094EA0C0F95EA0C0F00F0A7F8A4EB050426
:1008780081EA030E52EA03354FEA013100F088801D
:100888004FEA03334FF0805545EA131343EA1263E6
:100898004FEA022245EA111545EA10654FEA00269B
:1008A8000EF000419D4208BF964244F1FD0404F554
:1008B800407402D25B084FEA3202B61A65EB0305B0
:1008C8005B084FEA32024FF480104FF4002CB6EB6D
:1008D800020E75EB030E22BFB61A754640EA0C00ED
:1008E8005B084FEA3202B6EB020E75EB030E22BF2D
:1008F800B61A754640EA5C005B084FEA3202B6EB6E
:10090800020E75EB030E22BFB61A754640EA9C002C
:100918005B084FEA3202B6EB020E75EB030E22BFFC
:10092800B61A754640EADC0055EA060E18D04FEABA
:10093800051545EA16754FEA06164FEAC30343EA5A
:1009480052734FEAC2025FEA1C1CC0D111F4801F27
:100958000BD141EA00014FF000004FF0004CB6E720
:1009680011F4801F04BF01430020B4F1FD0C88BFBF
:10097800BCF5E06F3FF6AFAEB5EB030C04BFB6EBCA
:10098800020C5FEA500C50F1000041EB045170BDBD
:100998000EF0004E4EEA113114EB5C04C2BFD4EBEA
:1009A8000C0541EA045170BD41F480114FF0000E6E
:1009B800013C90E645EA060E8DE60CEA135594EAEA
:1009C8000C0F08BF95EA0C0F3FF43BAF94EA0C0FED
:1009D8000AD150EA01347FF434AF95EA0C0F7FF462
:1009E80025AF104619462CE795EA0C0F06D152EAB6
:1009F80003353FF4FDAE1046194622E750EA41069A
:100A080018BF52EA43067FF4C5AE50EA41047FF4AA
:100A18000DAF52EA43057FF4EBAE12E74FF0FF3C0F
:100A280006E000BF4FF0010C02E000BF4FF0010CE0
:100A38004DF804CD4FEA410C7FEA6C5C4FEA430C59
:100A480018BF7FEA6C5C1BD001B050EA410C0CBFA8
:100A580052EA430C91EA030F02BF90EA020F00200A
:100A6800704710F1000F91EA030F58BF994208BF71
:100A780090422CBFD8176FEAE37040F0010070472E
:100A88004FEA410C7FEA6C5C02D150EA013C07D185
:100A98004FEA430C7FEA6C5CD6D152EA033CD3D0D0
:100AA8005DF8040B704700BF8446104662468C46CA
:100AB8001946634600E000BF01B5FFF7B7FF0028FD
:100AC80048BF10F1000F01BD4DF808EDFFF7F4FF26
:100AD8000CBF012000205DF808FB00BF4DF808EDB1
:100AE800FFF7EAFF34BF012000205DF808FB00BFD4
:100AF8004DF808EDFFF7E0FF94BF012000205DF8F6
:100B080008FB00BF4DF808EDFFF7CEFF94BF0120AA
:100B180000205DF808FB00BF4DF808EDFFF7C4FFA3
:100B280034BF012000205DF808FB00BF4FEA410CEC
:100B38007FEA6C5C02D150EA013C0AD14FEA430CCF
:100B48007FEA6C5C02D152EA033C02D14FF000000C
:100B580070474FF0010070474FEA410212F500124A
:100B680015D211D56FF47873B3EB625212D94FEAEC
:100B7800C12343F0004343EA505311F0004F23FAD6
:100B880002F018BF404270474FF00000704750EA2B
:100B9800013005D111F0004008BF6FF000407047E8
:100BA8004FF00000704700BF53B94AB9002908BF89
:100BB80000281CBF4FF0FF314FF0FF3000F0B0B9F4
:100BC800ADF1080C6DE904CE00F006F8DDF804E09C
:100BD800DDE9022304B070472DE9F04F099D8846EE
:100BE80004468E46002B4AD18A4217465FD9B2FA8C
:100BF80082F64EB1C6F1200301FA06FEB740B440B2
:100C080020FA03F343EA0E0E4FEA17481FFA87FC4F
:100C1800230CBEFBF8F108FB11EE01FB0CF243EAD2
:100C28000E439A4207D9FB1801F1FF3002D29A42CB
:100C380000F2548101469B1AA2B2B3FBF8F008FBFC
:100C4800103300FB0CFC42EA034294450BD9BA1856
:100C580000F1FF332CBF01240024944502D9002C55
:100C680000F03F81184640EA0140A2EB0C02002147
:100C78001DB1F2400023C5E90023BDE8F08F8B4287
:100C880005D90DB1C5E9000100210846F5E7B3FA19
:100C980083F100294ED14345C0F01281824240F2CF
:100CA8000F810846002DE8D0C5E9004EE5E7002A87
:100CB80000F0AC80B2FA82F6002E40F0BB808B1AAE
:100CC8004FEA124EBCB20121020C80B2B3FBFEFC0B
:100CD8000EFB1C3342EA034304FB0CF29A420ED982
:100CE800FB180CF1FF382CBF4FF001094FF0000939
:100CF8009A4203D9B9F1000F00F0EC80C4469B1A60
:100D0800B3FBFEF80EFB183304FB08F440EA034279
:100D180094420BD9BA1808F1FF332CBF01200020E8
:100D2800944202D9002800F0D1809846121B48EA64
:100D38000C409DE7C1F120068B4008FA01F400FA47
:100D480001F922FA06F728FA06F88A401F4320FA22
:100D580006F3380C23431FFA87FC1C0CB8FBF0FE83
:100D680000FB1E8844EA08440EFB0CF8A0450ED987
:100D78003C190EF1FF3A2CBF4FF0010B4FF0000B5E
:100D8800A04503D9BBF1000F00F0B880D646A4EB0C
:100D980008041FFA83F8B4FBF0F300FB134403FBC9
:100DA8000CFC48EA0444A4450ED93C1903F1FF3071
:100DB8002CBF4FF001084FF00008A44503D9B8F143
:100DC800000F00F09F80034643EA0E40A4EB0C049A
:100DD800A0FB02EC64457346E04602D307D1F14517
:100DE80005D2BEEB02036CEB070C0138E0465DB19F
:100DF800B9EB030264EB080404FA06F622FA01F3DD
:100E0800CC401E43C5E90064002136E7B1FBF2FC83
:100E1800010C144680B2964641EA084120269046C5
:100E280040EA01431046B1FBF2F1A3EB080341EAA3
:100E38000C414BE7B740C6F1200301FA06F221FA4C
:100E480003F84FEA174E20FA03F3BCB2B04013433D
:100E5800020C190C80B2B8FBFEF90EFB198841EAA6
:100E6800084109FB04F8884551D9791809F1FF3C74
:100E78002CBF4FF0010A4FF0000A884502D9BAF199
:100E8800000F31D0A1EB0801B1FBFEF909FB04F812
:100E98000EFB19119BB243EA0143434535D2FB18B7
:100EA80009F1FF312CBF4FF0010A4FF0000A43450A
:100EB800BBD2BAF1000FB8D1A9F102013B44B4E7A3
:100EC800841A68EB030201209646EBE63A44A8F13F
:100ED80002082BE7ACF1020C3B4410E702393B4413
:100EE800A9E63A440238BEE6A7EB0808A9F1020CC5
:100EF8004144B1FBFEF909FB04F8C9E7AEF1020E63
:100F08003C4444E7023B3C445EE749468DE7A1EB9D
:100F18000801CC46B1FBFEF909FB04F8B8E700BFAD
:100F2800704700BF82B00D4BD3F88C2042F001020D
:100F3800C3F88C20D3F88C2002F001020092009AAA
:100F4800D3F88C2042F00202C3F88C20D3F88C30FE
:100F580003F002030193019B02B07047000C0246A4
:100F680070B505460F4808F0C1FB0124002601E0D2
:100F78000134A4B2772C0ED8610089B2642302220E
:100F8800284601F0C3FD0028F2D12146064808F0A2
:100F9800ADFB0126ECE706B170BD044808F0A6FBDE
:100FA800FAE700BF90BB0008A4BB0008CCBB000850
:100FB800F0B587B007460C46164600238DF8173063
:100FC8004D00ADB264230222294601F09FFDA0B96D
:100FD80064230293012301930DF1170200920F225B
:100FE8002946384601F0BAFC70B99DF817302246F8
:100FF8003146084808F07AFB04E0224631460648A4
:1010080008F074FB07B0F0BD22463146034808F0EB
:101018006DFBF7E70CBC0008ECBB00082CBC000813
:1010280038B504461A4808F061FB2046FFF798FFD8
:10103800184A1E212046FFF7BBFF174D2A461821E4
:101048002046FFF7B5FF2A4619212046FFF7B0FFD3
:10105800124D2A465C212046FFF7AAFF2A465D2149
:101068002046FFF7A5FF0E4A5F212046FFF7A0FFA5
:101078000C4D2A466A212046FFF79AFF2A466B2123
:101088002046FFF795FF084808F030FB38BD00BF41
:1010980050BC000870BC000880BC000894BC000864
:1010A8009CBC0008A4BC0008ACBC00082DE9F041B9
:1010B800A2B007461E4600248DF887404FF0FF3344
:1010C800264805F019F901F025F90546804602E0A1
:1010D80001F020F9804601F01DF9421BB2421AD2F4
:1010E800142301220DF187011C4805F06EF950B94F
:1010F8007E2CEDD804F188036B449DF8872003F813
:10110800842C0134E4E7002CE5D001F003F9A0EBCE
:1011180008007828DFD9002204F188036B4403F81B
:10112800842C84B101AA39460D4808F0DFFA04F18D
:1011380087030DEB030414F8843C0A2B07D00948F5
:1011480008F0D4FA03E03946074808F0CFFA28989F
:1011580001F0E6F822B0BDE8F08100BFFC0E0020E7
:10116800D0BC000828BD0008E8BC000838B5054612
:1011780001F0D0F8044603E00121002004F0CAFD84
:1011880001F0C8F8001BA842F6D338BD10B9024BCD
:1011980001221A60704700BFE40F002072B6FEE714
:1011A80008B5022004F020FE00B908BDFFF7F6FFDD
:1011B80008B5002001F006F818B901F015F810B9C3
:1011C80008BDFFF7EBFFFFF7E9FF000008B511487E
:1011D800114B036040F614634360002383600122CF
:1011E800C260036143618361C361036201F07DFAF8
:1011F80050B90021074801F03EFD38B900210548E3
:1012080001F067FD20B908BDFFF7C8FFFFF7C6FF6B
:10121800FFF7C4FF900F00200054004008B51548A0
:10122800154B03604FF41653436000238360C3607B
:1012380003610C22426183610362436283624366F5
:1012480005F0B4F970B900210A4804F048FE58B90D
:101258000021084804F068FE40B9064804F020FE62
:1012680030B908BDFFF79AFFFFF798FFFFF796FF21
:10127800FFF794FFFC0E00200024004600B59FB045
:101288006022002106A808F0AFFB00200090019022
:10129800029003900490059004F04EFDE0B91023ED
:1012A800069301220D920E934FF080430F93002373
:1012B800149306A801F0F8FF80B91F2300930021BA
:1012C80001910291039104910591684601F052FE43
:1012D80030B91FB05DF804FBFFF760FFFFF75EFF52
:1012E800FFF75CFF10B5A4B000F0DEFFFFF758FF72
:1012F800FFF7C4FFFFF716FEFFF75AFFFFF766FF79
:10130800FFF78CFF05F0C2FD002000F0B1FD0121C0
:10131800002000F0E1FD41494FF4E1330B6000206B
:10132800486008814881888100F04CFE08B1FFF7C9
:1013380035FF3B4808F0DAF93A48FFF771FE00201C
:1013480000F0BCFD4FF47A7400944FF4FA73042251
:1013580035493648FFF7AAFE00944FF42F73102240
:1013680033493448FFF7A2FE41F2883300934FF423
:10137800FA63092230493148FFF798FE16E04FF426
:101388007A73009340F6B83382B20CA92C48FFF761
:101398008DFE642300934FF4FA730D2229492A48DD
:1013A800FFF784FE47F23050FFF7E0FE05F07AFDC4
:1013B8000023089309930A930B934FF496730093B1
:1013C8004FF4FA73042218492048FFF76FFE09A961
:1013D80008A800F05DF90BA90AA800F07BF805F051
:1013E8004FFD06900998FFF7AFF8CDE904010A9878
:1013F800FFF7AAF8CDE902010898FFF7A5F8CDE9AB
:101408000001134A60210CA808F0E0F9431E5E2B86
:10141800B5D9104808F06AF9BBE700BFE80F00200B
:1014280010BD0008900F00202CBD000834BD000836
:1014380038BD00084CBD00085CBD000868BD000848
:10144800A4BD0008D0BD0008E0BD000870BD0008BC
:101458007CBD0008B4BD0008704710B584B04FF4D7
:101468007A74029401930092012341F08002BF2113
:1014780001F074FA002004B010BD10B584B04FF428
:101488007A74029401930092012341F08002BF21F3
:1014980001F08FF9002004B010BD07EE901AD0EDCE
:1014A800036A90ED017A36EEC76AF8EEE77A67EEDE
:1014B800867A90ED020A27EE007A90ED006A66EED1
:1014C800866A37EE667A77EE877A30EE460A87EED6
:1014D800800A7047002800F09D8070B58EB00C46D9
:1014E8000646B9B14C4B09934C4B0A934C4B0B93A2
:1014F8004C4B0C934C4D00232B70294609A800F047
:101508007DFA2B78BC2B07D0002333602360474833
:1015180008F054F90EB070BD05A909A800F02AFB1F
:1015280006A909A800F091FA07A909A800F03AFB52
:1015380008A909A800F0A1FA01A909A800F04AFB26
:1015480002A909A800F0B2FA03A909A800F05AFBF9
:1015580004A909A800F0DCFA012109A800F00FFA93
:10156800012109A800F0F2F9012109A800F04DFABB
:10157800694609A800F062FA9DF8003003F00303F9
:10158800032BF5D12A4D00232B80294609A800F00A
:101598000FFAB5F9001005A8FFF77FFF254B83ED7B
:1015A800000AB5EEC00AF1EE10FA30D4214B93EDE3
:1015B800007ADFED217AB4EEE77AF1EE10FA01DD78
:1015C800C3ED007A1B4B18683060FEF7BDFF02467A
:1015D8000B461A4808F08AF8194D00232B80294633
:1015E80009A800F0F8F9B5F9001001A8FFF755FFB0
:1015F80010EE100A134B83ED000A84ED000AFEF783
:10160800A3FF02460B46104808F070F882E7002254
:101618001A60CBE7704700BF831400086314000802
:1016280061140008900F0020F80F0020ECBD00089E
:1016380006100020001000200000C84200BE00086C
:1016480004100020FC0F002018BE000810B584B05C
:101658004FF47A7402940193009201230A46BB2145
:1016680001F07CF9002004B010BD10B584B04FF42F
:101678007A7402940193009201230A46BB2101F077
:1016880098F8002004B010BD08B500F049FE08BD68
:10169800002872D0F0B587B00D460646D1B1374B59
:1016A8000193374B0293374B0393374B0493052031
:1016B800FFF7EAFF354C00232370214601A800F00C
:1016C80061FB2378B32B07D0314808F077F8002363
:1016D80033602B6007B0F0BD012101A800F059FB71
:1016E8002C4C214601A800F06DFB2378002BF7D184
:1016F800012101A800F0C8FA122101A800F0DDFAC2
:1017080001236A46272101A800F094FA9DF80030C9
:1017180003F00303032BF3D11F4C00272760214656
:1017280001A800F002FB206800F096FA10EE100AFB
:101738001A4B83ED000A86ED000AFEF705FF024604
:101748000B46174807F0D2FF164C2780214601A800
:1017580000F005FBB4F9000000F08AFA10EE100A58
:10176800114B83ED000A85ED000AFEF7EDFE0246F7
:101778000B460E4807F0BAFFACE77047731600082F
:101788005516000891160008900F00200910002037
:1017980034BE000808100020181000201010002087
:1017A80048BE0008141000200C10002060BE00087D
:1017B800FEE7FEE7FEE7FEE7FEE770477047704783
:1017C80008B500F09BFD08BD08B5002000F0CEFB71
:1017D80008BD000082B0074BD3F8942042F0040201
:1017E800C3F89420D3F8943003F004030193019BC9
:1017F80002B07047000C024610B5B8B0044600218C
:1018080033913491359136913791C02202A808F06E
:10181800EBF822681B4B9A4201D038B010BD402229
:101828000023CDE9022302A802F09EFB30BB164C30
:10183800D4F88C3043F00203C4F88C30D4F88C30E0
:1018480003F002030093009BC023339312233493C5
:101858000023359336930423379333A90B4804F0B8
:1018680009F9D4F89C3043F40013C4F89C30D4F838
:101878009C3003F400130193019BCEE7FFF78EFC25
:10188800D5E700BF00540040000C024600040242A5
:1018980010B5B8B004460021339134913591369192
:1018A8003791C02202A808F09FF822681B4B9A4281
:1018B80001D038B010BD20220023CDE9022302A8B0
:1018C80002F052FB30BB164BD3F8A82042F040027E
:1018D800C3F8A820D3F8A82002F040020092009A8A
:1018E800D3F88C2042F00102C3F88C20D3F88C3056
:1018F80003F001030193019B0C23339302233493D8
:101908000023359336930823379333A9054804F009
:10191800B1F8CEE7FFF742FCD5E700BF0024004648
:10192800000C02460000024220B110B54468C068AD
:10193800A04710BD4FF0FF30704720B110B50468C4
:10194800C068A04710BD4FF0FF30704730B583B076
:1019580004460D46012301AA2021FFF7E5FF08B13F
:1019680003B030BD9DF8043065F301038DF80430F1
:10197800012301AA20212046FFF7DFFFF0E730B559
:1019880083B004460D46012301AA2021FFF7CCFFAE
:1019980008B103B030BD9DF8043065F382038DF8BB
:1019A8000430012301AA20212046FFF7C6FFF0E7F3
:1019B80010B582B00C46022301AA2821FFF7B4FF14
:1019C80038B99DF8052022809DF8043003EB0223E6
:1019D800238002B010BD10B582B00C46022301AAC4
:1019E8002A21FFF7A1FF38B99DF8052022809DF82C
:1019F800043003EB0223238002B010BD08B50A4669
:101A080001230F21FFF790FF08BD30B583B00446CE
:101A18000D46012301AA2021FFF786FF08B103B074
:101A280030BD9DF8043065F3C7138DF804300123E9
:101A380001AA20212046FFF780FFF0E708B50A46F3
:101A480001232721FFF770FF08BD10B582B00C46AF
:101A580001230DF107023021FFF766FF58B99DF801
:101A6800073007EE903AF8EE677AB6EE007A67EE3E
:101A7800877AC4ED007A02B010BD10B582B00C466A
:101A880001230DF107023121FFF74EFF58B99DF8E8
:101A9800073007EE903AF8EE677AB6EE007A67EE0E
:101AA800877AC4ED007A02B010BD000030B583B06B
:101AB80004460D4601230DF103023221FFF734FFDE
:101AC80008B103B030BD012301AA35212046FFF734
:101AD8002BFF9DF8043003F003030028F1D107EE33
:101AE800903AF8EE677A9FED097A67EE877A9DF863
:101AF800033007EE103AB8EE477A77EE877AB4EEFD
:101B0800007A67EE877AC5ED007ADAE7000080434D
:101B180030B583B004460D4601230DF1030233218D
:101B2800FFF702FF08B103B030BD012301AA352138
:101B38002046FFF7F9FE9DF80430C3F3810300281F
:101B4800F1D107EE903AF8EE677A9FED097A67EEE1
:101B5800877A9DF8033007EE103AB8EE477A77EEA9
:101B6800877AB4EE007A67EE877AC5ED007ADAE70D
:101B78000000804310B582B00C46022301AA36212A
:101B8800FFF7D2FE9DF805109DF8043003EB012302
:101B980030B91BB207EE903AF8EEE77AC4ED007A56
:101BA80002B010BD10B582B00C46022301AA3A213A
:101BB800FFF7BAFE9DF805109DF8043003EB0123EA
:101BC80030B91BB207EE903AF8EEE77AC4ED007A26
:101BD80002B010BD10B582B00C46022301AA3C2108
:101BE800FFF7A2FE9DF805109DF8043003EB0123D2
:101BF80030B91BB207EE903AF8EEE77AC4ED007AF6
:101C080002B010BD10B582B00C46022301AA3E21D5
:101C1800FFF78AFE9DF805109DF8043003EB0123B9
:101C280030B91BB207EE903AF8EEE77AC4ED007AC5
:101C380002B010BD20B110B54468C068A04710BDFF
:101C48004FF0FF30704720B110B50468C068A04756
:101C580010BD4FF0FF30704707EE900AF8EE677A34
:101C68009FED020A27EE800A704700BF000080350A
:101C780007EE900AF8EEE77A9FED020A87EE800AEF
:101C8800704700BF0000C84230B583B004460D4617
:101C9800012301AA1021FFF7CDFF08B103B030BD21
:101CA8009DF8043065F341038DF80430012301AA3F
:101CB80010212046FFF7C7FFF0E770B582B0054650
:101CC8000E46012301AA1021FFF7B4FF04460123A1
:101CD8006A4611212846FFF7ADFF201801D002B04F
:101CE80070BD9DF8043066F306138DF804300123A7
:101CF80001AA10212846FFF7A6FF0028EFD1C6F356
:101D080000129DF8003062F341038DF80030C6F3ED
:101D1800C001DBB261F300038DF8003001236A468D
:101D280011212846FFF78FFFD9E710B582B00C467E
:101D3800032301AA2821FFF77DFF70B99DF806301B
:101D480023609DF8052002EB032222609DF80430F1
:101D580003EB022323601B02236002B010BD10B501
:101D680082B00C46022301AA2B21FFF763FF38B982
:101D78009DF8052022809DF8043003EB0223238080
:101D880002B010BD08B50A4601230F21FFF752FF24
:101D980008BD30B583B004460D46012301AA1121C0
:101DA800FFF748FF08B103B030BD9DF8043065F374
:101DB80082038DF80430012301AA11212046FFF780
:101DC80042FFF0E710B582B00C46012301AA1121A9
:101DD800FFF730FF20B99DF80430C3F38003237068
:101DE80002B010BD70B588B01F4BD3F88C2042F0FC
:101DF8000102C3F88C20D3F88C2002F00102009273
:101E0800009AD3F88C2042F00102C3F88C20D3F852
:101E18008C2002F001020192019AD3F8A42042F426
:101E28008042C3F8A420D3F8A43003F4804302937B
:101E3800029B4FF400730393022404940694012335
:101E4800059307260796094D03A9284603F012FEB5
:101E58004FF4806303930494079603A9284603F07C
:101E680009FE08B070BD00BF000C02460000024227
:101E7800E8B910B586B00F4BD3F88C2042F00102B8
:101E8800C3F88C20D3F88C3003F001030093009B37
:101E98002023019301230293002403940323049332
:101EA80001A9054803F0E6FD204606B010BD6FF015
:101EB80001007047000C02460000024238B908B51C
:101EC80000222021034803F0E9FE002008BD6FF03E
:101ED800010070470000024210B586B01D4BD3F8D0
:101EE8008C2042F00402C3F88C20D3F88C3003F025
:101EF80004030093009B4FF40053019302230393C0
:101F0800049341B90023029301A9134803F0B2FDD9
:101F1800002006B010BD0446104B029301A90E48DC
:101F280003F0A8FD04EB44040D4B03EB84040D49B6
:101F3800204603F0C9FE0C4A0021204603F0B3FEF8
:101F480000220F21182000F0C1F8182000F0CEF868
:101F5800DEE700BF000C0246000802420000111034
:101F6800B41000200D0000068D1F000808B500EB16
:101F78004000034B03EB800003F0ACFE08BD00BF3C
:101F8800B410002008B50020FFF700F908BD0000D4
:101F980008B50B4A126802600A6842600C22426166
:101FA8004A8902614A6882600A89C2608A898261B4
:101FB8004FF40042C2610022426204F0F7FA08BD01
:101FC8000000002070B938B50D469422084C02FB79
:101FD80000442046FFF706FF29462046FFF7D8FFB2
:101FE80018B938BD6FF0010070476FF00300F8E7CB
:101FF8002010002010B582B00190084B18784FF4DB
:102008007A73012201A94FF0940C054C0CFB004097
:1020180004F072F9019802B010BD00BF1C10002036
:1020280020100020002807DB00F01F0240090123D0
:102038009340024A42F82030704700BF00E100E0B8
:10204800002808DB0901C9B200F1604000F56140D1
:1020580080F80013704700F00F000901C9B2014B66
:102068001954704714ED00E000B500F00700C0F106
:10207800070CBCF1040F28BF4FF0040C031D062BFE
:102088000FD9C31E4FF0FF3E0EFA0CF021EA0001F3
:1020980099400EFA03FE22EA0E0241EA02005DF8B8
:1020A80004FB0023EEE70000074AD36823F4E0634B
:1020B8001B041B0C000200F4E060034343F0BF6301
:1020C80043F40033D360704700ED00E010B50446D8
:1020D800054BD868C0F30220FFF7C6FF014620462B
:1020E800FFF7AEFF10BD00BF00ED00E008B5FFF739
:1020F80099FF08BD0138B0F1807F09D24FF0E02385
:102108005861002098611A6942F003021A61704709
:1021180001207047042838D8DFE800F00A1828376B
:1021280003004FF0E022136943F004031361704782
:102138004FF0E022136923F004031361134AD2F825
:10214800E03023F44003C2F8E03070474FF0E0225B
:10215800136923F0040313610C4AD2F8E03023F426
:10216800400343F48003C2F8E03070474FF0E022A8
:10217800136923F004031361044AD2F8E03023F40E
:10218800400343F40003C2F8E0307047000C0246F5
:102198004FF0E023186910F004000CD1084BD3F875
:1021A800E03003F44003B3F5800F06D0B3F5000F19
:1021B80004D102207047042070470120704700BFF7
:1021C800000C0246074B1B6813F0010F07D1054AA4
:1021D800136823F0040303431360002070470120B1
:1021E800704700BF00040340034A136843F001032B
:1021F80013600020704700BF0004034038B5274B28
:102208001A78002A47D005464FF0E0231C6914F0DD
:1022180004040DD0224B1C684FF47A71B1FBF2F222
:10222800B4FBF2F42046FFF765FF50B3012033E01A
:10223800FFF7AEFF01280ED0022817D00028F1D1F1
:10224800174B1C68154A11784FF4FA52B2FBF1F299
:10225800B4FBF2F4E6E7114B1B784FF47A72B2FB49
:10226800F3F24FF4FA43B3FBF2F4DBE70B4B1B78C2
:102278004FF47A72B2FBF3F24FF40043B3FBF2F47B
:10228800D0E7002229464FF0FF30FFF71FFF054B2C
:102298001D60002000E0012038BD00BF04000020C0
:1022A8000C0000200800002010B5104A136843F401
:1022B800807313600320FFF7F7FE00F099FD0C4BC5
:1022C8001B6A03F00F030B4AD35CD8400A4B186013
:1022D8000420FFF71FFF0F20FFF790FF10B1012424
:1022E800204610BD0446FFF775FAF9E700200240C2
:1022F800000C024608C200080C000020034B1B78A3
:10230800034A11680B441360704700BF04000020A3
:10231800C0100020014B1868704700BFC010002093
:1023280038B50446FFF7F6FF0546B4F1FF3F02D083
:10233800044B1B781C44FFF7EDFF401BA042FAD367
:1023480038BD00BF0400002003689A6912F0020F2C
:1023580001D000229A6203689A6912F0010F03D132
:102368009A6942F001029A61704710B4019CC1F366
:10237800090141EA02411943214321F00041026861
:102388005368640D04F4806444F07F7444F4583452
:1023980044F47F7444F0030423EA04030B435360BA
:1023A8005DF8044B70472DE9F041044603689E69C7
:1023B80016F010067CD00D4690461022DA610026F1
:1023C80037462368986910F0200F30D17FBBB5F1EC
:1023D800FF3FF6D0FFF79EFFA0EB0800A84201D808
:1023E800002DEED121684B6803F4804394F8422015
:1023F800D2B2886910F4004F02D00BB9202A0ED14E
:1024080023689B6913F0200FDBD1FFF783FFA0EB54
:1024180008001928F4D946F020060127D1E74B68AF
:1024280043F480434B60FFF775FF8046E8E70FB938
:102438002022DA6146F0040601252268936913F424
:10244800807F05D046F001064FF48071D1610125E7
:1024580013F4806F06D046F0080622684FF48061B6
:10246800D161012513F4007F24D046F002062368C9
:102478004FF40072DA6101252046FFF765FF2268F4
:10248800536823F0FF7323F48B3323F4FF7323F093
:1024980001035360636C33436364202384F8413041
:1024A800002384F8423084F840302846BDE8F081A3
:1024B8000025C2E7002DF8D0DEE770B504460D46CA
:1024C800164623689B6913F0020F22D1324629462B
:1024D8002046FFF768FFF0B9B5F1FF3FF1D0FFF7ED
:1024E80019FF801BA84201D8002DEAD123689B69F7
:1024F80013F0020FE5D1636C43F0200363642023DB
:1025080084F84130002384F8423084F840300120B8
:1025180000E0002070BD0120FCE72DE9F8430546E6
:10252800884617461E46DDF820902B689C6938EAD5
:1025380004040CBF01230023BB4227D14A4631467D
:102548002846FFF730FF20BBB6F1FF3FEDD0FFF77D
:10255800E1FEA0EB0900B04201D8002EE5D12B68BE
:102568009B6938EA03030CBF01230023BB42DCD17B
:102578006B6C43F020036B64202385F84130002303
:1025880085F8423085F84030012000E00020BDE8A1
:10259800F8830120FBE700002DE9F04182B00446F2
:1025A80090461D46089E099F194B00934FF0807373
:1025B800EAB2FFF7DAFE3A4631462046FFF77DFFDA
:1025C800F8B9012D0ED123685FFA88F29A62009754
:1025D8003346002280212046FFF79FFFA8B902B0AA
:1025E800BDE8F08123684FEA18229A623A463146DC
:1025F8002046FFF762FF30B923685FFA88F29A62D3
:10260800E5E70120EBE70120E9E70120E7E700BF64
:10261800002000802DE9F04182B0044690461D4616
:10262800089E099F184B00930023EAB2FFF79DFE0E
:102638003A4631462046FFF740FFF8B9012D0ED142
:1026480023685FFA88F29A62009733460022402195
:102658002046FFF762FFA8B902B0BDE8F081236801
:102668004FEA18229A623A4631462046FFF725FF7C
:1026780030B923685FFA88F29A62E5E70120EBE750
:102688000120E9E70120E7E70020008070B5044653
:102698000D46164604E023689B6913F0200F12D0FC
:1026A80023689B6913F0200F1BD132462946204628
:1026B800FFF779FEB8B9FFF72DFE801BA842EAD8CC
:1026C800002DEDD1E7E7636C43F02003636420231A
:1026D80084F84130002384F8423084F840300120E7
:1026E80000E0002070BD0120FCE700285FD010B595
:1026F800044690F84130002B48D0242384F8413018
:102708002268136823F0010313606368226823F0CA
:10271800706313612268936823F400439360E3684D
:10272800012B38D0A368226843F404439360E3681C
:10273800022B36D02268536823F400635360226862
:10274800536843F0007343F4004353602268D3682E
:1027580023F40043D360236962691343A1692268A3
:1027680043EA0123D360E369216A22680B431360BB
:102778002268136843F0010313600020606420237B
:1027880084F84130206384F8420010BD80F840305E
:10279800FFF732F8B1E7A368226843F40043936077
:1027A800C5E72268536843F400635360C7E7012014
:1027B80070472DE9F04F83B00E46BDF834A00E9D4A
:1027C80090F84110C9B2202940F0BB8004469046D9
:1027D80099460C9BCBB1BAF1000F16D090F8403057
:1027E800012B00F0B2804FF0010B80F840B0FFF7EA
:1027F80091FD0746009019235A464FF400412046A0
:10280800FFF78BFE30B101209CE04FF40073636446
:10281800012097E0212384F84130402384F8423096
:10282800002363640C9A6262A4F82AA06363019788
:1028380000954B46424631462046FFF7ADFE70B93B
:10284800638D9BB2FF2B0FD9FF22228500230093B3
:102858004FF0807331462046FFF787FD21E00023C3
:1028680084F8403058466DE0628D92B2228500238C
:1028780000934FF00073D2B231462046FFF775FD42
:102888000FE0628D92B22285002300934FF000730F
:10289800D2B231462046FFF768FD638D9BB2002B0C
:1028A80033D03A4629462046FFF707FE00284ED186
:1028B800626A236812789A62636A01336362638D7D
:1028C8009BB2013B9BB26385238D013B9BB2238561
:1028D800628D92B2002AE0D0002BDED100972B4601
:1028E800002280212046FFF718FE90BB638D9BB223
:1028F800FF2BC6D9FF222285002300934FF0807357
:1029080031462046FFF731FDC7E73A4629462046BB
:10291800FFF7BCFEF8B923682022DA6121684B680A
:1029280023F0FF7323F48B3323F4FF7323F00103A5
:102938004B6084F84120002384F8423084F840300A
:1029480000E0022003B0BDE8F08F0220FAE7012082
:10295800F8E70120F6E70120F4E700002DE9F04F41
:1029680083B00E46BDF834A00E9D90F84110C9B250
:10297800202940F0BC800446904699460C9BCBB178
:10298800BAF1000F16D090F84030012B00F0B38058
:102998004FF0010B80F840B0FFF7BCFC07460090F1
:1029A80019235A464FF400412046FFF7B6FD30B1CF
:1029B80001209DE04FF400736364012098E0222316
:1029C80084F84130402384F84230002363640C9A31
:1029D8006262A4F82AA06363019700954B464246B9
:1029E80031462046FFF716FE70B9638D9BB2FF2B68
:1029F8000FD9FF222285444B00934FF08073314654
:102A08002046FFF7B2FC21E0002384F84030584606
:102A18006EE0628D92B222853B4B00934FF00073BB
:102A2800D2B231462046FFF7A0FC0FE0628D92B289
:102A38002285002300934FF00073D2B2314620461E
:102A4800FFF793FC638D9BB2002B34D000972B4685
:102A5800002204212046FFF760FD00284DD123689D
:102A68005A6A636A1A70636A01336362228D013A93
:102A780092B22285638D9BB2013B9BB26385638DC5
:102A88009BB2002BDED0002ADCD100972B46802198
:102A98002046FFF742FD90BB638D9BB2FF2BC5D943
:102AA800FF222285002300934FF080733146204691
:102AB800FFF75BFCC6E73A4629462046FFF7E6FDE6
:102AC800F8B923682022DA6121684B6823F0FF7384
:102AD80023F48B3323F4FF7323F001034B6084F852
:102AE8004120002384F8423084F8403000E002207E
:102AF80003B0BDE8F08F0220FAE70120F8E70120D3
:102B0800F6E70120F4E700BF002400802DE9F04734
:102B180084B01D460023039390F84130DBB2202B8C
:102B280040F0A38006468946904603689B6913F4E3
:102B3800004F40F09C8090F84030012B00F09980C5
:102B4800012380F84030242380F841300023436477
:102B58009A4645E0C9F3090343F0007343F4005370
:102B680047E033689C69C4F340149B69C3F30013BE
:102B7800C4B9BBB9B5F1FF3FF3D0FFF7CBFBC01B1E
:102B8800A84201D8002DECD1202386F84130736C7F
:102B980043F020037364002386F84030012004B01A
:102BA800BDE8F08733689A6912F0100F3DD100979D
:102BB8002B46002220213046FFF7AFFC60B3736C30
:102BC800042B23D04FF0010A039B01330393039B8B
:102BD800434502D2BAF1000F38D1039B434538D29E
:102BE800F368012BB6D0C9F3090343F0007343F42B
:102BF800205332685360FFF78DFB074633689C69A2
:102C0800C4F340149B69C3F30013B1E7336820226F
:102C1800DA6100237364D7E732682023D36186F82A
:102C28004130002386F84030B9E71022DA61009776
:102C38002B46002220213046FFF76FFC18B9336875
:102C48002022DA61C0E74FF0010ABDE74FF0000A21
:102C5800C3E7202386F84130736C43F02003736484
:102C6800002386F84030012099E7022097E70220E8
:102C780095E7022093E7034690F84120D2B2202A34
:102C880023D190F84020012A21D0012280F8402049
:102C9800242280F841200068026822F001020260C4
:102CA8001868026822F480520260186802681143AA
:102CB800016019680A6842F001020A60202283F85C
:102CC8004120002083F8400070470220704702200E
:102CD8007047034690F84120D2B2202A21D190F8BB
:102CE8004020012A1FD0012280F84020242280F8A9
:102CF80041200068026822F0010202601868026838
:102D080022F4706242EA0122026019680A6842F0FD
:102D180001020A60202283F84120002083F8400045
:102D280070470220704702207047000030B583B01A
:102D380004462D4BD3F8943013F0040F0FD003F052
:102D48004BF8B0F5403F20D0B0F5003F1DD0B4F1AE
:102D5800805F2CD2B0F5803F40D0012025E0224D85
:102D6800D5F8943043F00403C5F89430D5F894307E
:102D780003F004030193019B03F02EF8D5F8943077
:102D880023F00403C5F89430DBE7B4F1805F23D265
:102D98000120164A136823F00F03034313601368D6
:102DA80003F00F0383421DD1002003B030BDB4F1FE
:102DB800005F05D9A0B9B4F1405FEAD80120E8E77F
:102DC800B4F1805F01D00120E3E7B0F5803F01D086
:102DD8000220DEE70120DCE70020DAE70320D8E75D
:102DE8000020D6E70120E0E7000C02460020024060
:102DF8005B4AD369926A13F00C0311D002F0030204
:102E08000C2B0BD0564AD26902F00C02042A1FD0B0
:102E1800082B00F0A2800020014612E0012AF1D11F
:102E28004F4A926812F4000F0ED14D4AD2F8F4209E
:102E3800C2F303324B4951F82210002B00F08B806B
:102E480000200C2B07D07047454A9268120FF1E713
:102E580045480021F5E700B54148836A03F0030CB3
:102E6800836AC3F30323013307EE103A836AC3F37B
:102E7800001E836BC3F3CC030EFB03F307EE903AFB
:102E8800F8EE677ABCF1020F1FD0BCF1030F47D0F0
:102E980006EE901AF8EE666AB8EE477A86EE876A0A
:102EA8002F4B5B6BC3F3080307EE103AB8EE477A73
:102EB800DFED2E6A67EEA67A77EE277AB7EE007A0C
:102EC80077EE877A66EE276A19E0B8EE477A9FEDC3
:102ED800286AC6EE076A224B5B6BC3F3080307EE4A
:102EE800103AB8EE477A9FED216A67EE867A77EE58
:102EF800277AB7EE007A77EE877A66EEA76A184BDC
:102F08005B6BC3F30663013307EE903AB8EE677A5A
:102F1800C6EE877AFCEEE77A17EE900A5DF804FBB6
:102F2800B8EE477A9FED126AC6EE076A0C4B5B6BE8
:102F3800C3F3080307EE103AB8EE477A9FED0B6A21
:102F480067EE867A77EE277AB7EE007A77EE877A99
:102F580066EEA76AD3E7084670470348704700BF84
:102F6800000C0246C0C100080024F400000000392B
:102F78000024744B002800F07181F0B583B00D4631
:102F880004467F4B1B6803F00F038B420BD27C4A2D
:102F9800136823F00F030B431360136803F00F0348
:102FA8008B4240F05D81236813F0100F0CD06269EA
:102FB800744B5B6A03F070039A4205D971494B6AF6
:102FC80023F070031A434A62236813F0080F0ED0E7
:102FD80022696C4B1B6A1B0903F070039A4206D9DD
:102FE80068490B6A23F4E06343EA02130B6223681F
:102FF80013F0040F0CD0E268624B1B6A03F07003F5
:103008009A4205D95F490B6A23F070031A430A6292
:10301800236813F0020F0CD0A2685A4B1B6A03F006
:103028000F039A4205D957490B6A23F00F031A4335
:103038000A62236813F0010F00F0A8806368032B6D
:103048000AD0022B61D0002B66D14E4B1B6813F0BF
:10305800040F26D10120FFE04A4BD3F8943013F037
:10306800040F0ED1474BD3F8942042F00402C3F862
:103078009420D3F8943003F004030193019B0127B3
:1030880000E00027FFF746F906463F4BDB6813F4DC
:10309800802F26D18FBB3B4B1B6813F0007F00F0BD
:1030A800E180384AD36923F0030361680B43D36195
:1030B800FFF730F906466368032B34D0022B41D062
:1030C800002B4ED02F4BDB6903F00C03042B5DD093
:1030D800FFF720F9801B41F288339842F2D9032088
:1030E800BAE0294BDB6813F4804FD3D1FFF712F90C
:1030F800801B0228F5D90320AEE0224AD2F894308A
:1031080023F00403C2F89430C5E71E4B1B6813F480
:10311800003FC6D101209FE01A4B1B6813F4806F53
:10312800BFD1012098E0174BDB6903F00C030C2B8F
:103138002CD0FFF7EFF8831B41F288329342F2D983
:10314800032089E00F4BDB6903F00C03082B1DD02B
:10315800FFF7E0F8801B41F288339842F2D9032048
:103168007AE0084BDB6913F00C0F0FD0FFF7D2F8A9
:10317800801B41F288339842F3D903206CE000BFEA
:1031880000200240000C024600080246236813F0A3
:10319800020F0CD0A268354B1B6A03F00F039A424A
:1031A80005D232490B6A23F00F031A430A62304BE7
:1031B8001B6803F00F03AB420AD92D4A136823F0AA
:1031C8000F032B431360136803F00F03AB424BD17B
:1031D800236813F0040F0CD0E268244B1B6A03F039
:1031E80070039A4205D221490B6A23F070031A43EF
:1031F8000A62236813F0080F0ED022691B4B1B6A62
:103208001B0903F070039A4206D218490B6A23F48B
:10321800E06343EA02130B62236813F0100F0CD02B
:103228006269124B5B6A03F070039A4205D20F4938
:103238004B6A23F070031A434A62FFF7D9FD0B4B20
:103248001B6A03F00F030B4AD35CD8400A4B186083
:103258000A4B1868FEF7D2FF03B0F0BD0120704793
:103268000120F9E70120F7E70120F5E7000C024605
:103278000020024008C200080C00002008000020BE
:1032880008B5FFF7B5FD054B1B6A03F00F03044AA9
:10329800D35CD840034B186008BD00BF000C024641
:1032A80008C200080C000020002800F02A85F0B5AC
:1032B80085B004469C4BDD6905F00C059E6A06F056
:1032C8000306036813F0100F00F09480EDB10C2D85
:1032D80019D0E369002B00F01181934A136843F079
:1032E80001031360FFF716F807468F4B1B6813F0AE
:1032F800040F40F0CD80FFF70DF8C01B0228F4D969
:10330800032000F001BD012EE3D1E369002B00F09A
:10331800FA84606A844B9B6813F4000F1CD0824BBC
:103328009B6803F07043984244D9E5B17E4A93689C
:1033380043F400039360936823F07043616A0B437E
:103348009360636AB3F1404F14D3D36823F01F032B
:10335800216A0B43D36044E0734BD3F8F4301B0469
:1033680003F07043DFE7FFF7E1FC0028DED001201F
:1033780000F0CABC002B0BDBB3F1804F11D36A4AB3
:10338800D36823F4F843216A43EA8123D36028E011
:10339800654AD36823F47873216A43EA4113D360FA
:1033A8001FE0614AD36823F47823216A43EAC133D2
:1033B800D36016E05C4A936843F400039360936813
:1033C80023F07043616A0B439360636AB3F1404F23
:1033D80036D3D36823F01F03216A0B43D360002D33
:1033E8004ED0FFF74DFF514B1868FEF707FF002836
:1033F80040F08A84236813F0010F00F0A080082DA4
:1034080000F099800C2D00F093806368B3F5803F3D
:1034180000F0B680B3F5A02F00F0C880B3F5A81F60
:1034280000F0D280404B1A6822F480321A601A6881
:1034380022F480221A601A6822F480121A60A4E02A
:10344800002B0BDBB3F1804F11D3374AD36823F439
:10345800F843216A43EA8123D360C0E7324AD3683C
:1034680023F47873216A43EA4113D360B7E72E4AFD
:10347800D36823F47823216A43EAC133D360AEE7E3
:10348800606AFFF753FC0028ABD0012000F03CBC79
:10349800254A936843F400039360936823F07043CC
:1034A800616A0B439360636AB3F1404F06D3D368F4
:1034B80023F01F03216A0B43D3609BE7002B0BDB30
:1034C800B3F1804F11D3184AD36823F4F843216A23
:1034D80043EA8123D3608DE7134AD36823F47873D2
:1034E800216A43EA4113D36084E70F4AD36823F47F
:1034F8007823216A43EAC133D3607BE70A4A136819
:1035080023F001031360FEF705FF0746064B1B680F
:1035180013F0040F3FF46EAFFEF7FCFEC01B022849
:10352800F4D90320F0E300BF000C02460800002095
:10353800032E7FF46AAF6368002B00F0E7832368EB
:1035480013F0020F6BD0042D5DD00C2D59D0E36819
:10355800002B00F0BF80AA4A136843F480731360FD
:10356800FEF7D8FE0546A64B1B6813F4806F40F0A3
:10357800A880FEF7CFFE401B0228F4D90320C3E33E
:103588009F4A136843F480331360636853B3FEF7AC
:10359800C1FE07469A4B1B6813F4003FCFD1FEF7D4
:1035A800B9FEC01B6428F5D90320ADE3944B1A6813
:1035B80042F480221A601A6822F480121A601A688B
:1035C80042F480321A60E0E78D4B1A6842F4802298
:1035D8001A601A6842F480121A601A6842F480323B
:1035E8001A60D2E7FEF796FE0746854B1B6813F470
:1035F800003FA4D0FEF78EFEC01B6428F5D9032037
:1036080082E3022EA3D1E368002B00F081837C4A79
:10361800136923F4F813216943EA0143136123680A
:1036280013F0080F00F0AF80754BD3F8943013F007
:10363800040F63D1724BD3F8942042F00402C3F80C
:103648009420D3F8943003F004030193019B0125DF
:103658006C4B9B6A13F0010F52D06369002B7AD030
:10366800674BD3F8F030A16903F08052914211D032
:1036780003F04062B2F1006F00F04C8313F0806FEA
:1036880052D15F4AD2F8F03023F08053A1690B433E
:10369800C2F8F0305A4AD2F8F03043F08063C2F8EA
:1036A800F030FEF737FE0646554BD3F8F03013F0EE
:1036B800006F67D1FEF72EFE801B0528F4D9032082
:1036C80022E34F4A136923F4F813216943EA0143BB
:1036D8001361A4E74A4A136823F480731360FEF762
:1036E80019FE0546464B1B6813F4806F97D0FEF70A
:1036F80011FE401B0228F5D9032005E30025A7E7A2
:10370800404A936A43F001039362FEF703FE0646BC
:103718003C4B9B6A13F0010F9FD1FEF7FBFD801B0A
:103728000228F5D90320EFE2354AD2F8F03023F029
:10373800A053C2F8F030FEF7EDFD0646304BD3F843
:10374800F03013F0006F9CD0FEF7E4FD801B0528D5
:10375800F4D90320D8E22A4AD2F8F03023F0A05353
:10376800C2F8F030FEF7D6FD0646254BD3F8F03008
:1037780013F0006F06D0FEF7CDFD801B0528F4D9A5
:103788000320C1E295BB236813F0040F00F0D98031
:103798001B4BD3F8943013F0040F2FD1184BD3F8E8
:1037A800942042F00402C3F89420D3F8943003F034
:1037B80004030293029B0125124B9B6A13F0010F2D
:1037C80022D0A36813F0010F3AD013F0040F2FD0C2
:1037D8000B4BD3F8F02042F00402C3F8F020D3F8E2
:1037E800F02042F00102C3F8F02036E0044AD2F893
:1037F800943023F00403C2F89430C4E70025DBE7D3
:10380800000C024600080246A84A936A43F00103E6
:103818009362FEF77FFD0646A44B9B6A13F0010FE7
:10382800CFD1FEF777FD801B0228F5D903206BE284
:103838009F4AD2F8F03043F00103C2F8F0300CE0B0
:103848009B4BD3F8F02022F00102C3F8F020D3F804
:10385800F02022F00402C3F8F020A368002B41D026
:10386800FEF758FD0646924BD3F8F03013F0020FDE
:1038780008D1FEF74FFD801B41F288339842F2D9F8
:10388800032041E2A36813F0800F15D0884AD2F8CC
:10389800F03043F08003C2F8F030854BD3F8F030B5
:1038A80013F4006F4CD1FEF735FD801B41F28833CD
:1038B8009842F2D9032027E27D4AD2F8F03023F06B
:1038C8008003C2F8F0307A4BD3F8F03013F4006F6D
:1038D80036D0FEF71FFD801B41F288339842F2D99B
:1038E800032011E2FEF716FD0646714BD3F8F030BF
:1038F80013F0020F08D0FEF70DFD801B41F288334C
:103908009842F2D90320FFE1694BD3F8F03013F065
:10391800800F15D0664AD2F8F03023F08003C2F841
:10392800F030634BD3F8F03013F4006F08D0FEF793
:10393800F1FC801B41F288339842F2D90320E3E17D
:10394800CDB9236813F0200F31D0E36ADBB1584AB0
:10395800136843F480531360FEF7DCFC0546544BB0
:103968001B6813F4005F22D1FEF7D4FC401B022829
:10397800F5D90320C8E14E4AD2F8943023F0040365
:10398800C2F89430DDE74A4A136823F48053136081
:10399800FEF7C0FC0546464B1B6813F4005F06D0D3
:1039A800FEF7B8FC401B0228F5D90320ACE12368D8
:1039B80013F0800F29D0236B9BB13D4A136843F461
:1039C80080431360FEF7A6FC0546394B1B6813F4C9
:1039D800004F1AD1FEF79EFC401B0228F5D90320A0
:1039E80092E1334A136823F480431360FEF792FC94
:1039F80005462F4B1B6813F4004F06D0FEF78AFCD0
:103A0800401B0228F5D903207EE1236813F0400FFC
:103A180064D0636B002B4DD0254A936843F40003B0
:103A28009360936823F07063A16A0B439360636AA1
:103A3800B3F1404F19D3D36823F01F03216A0B4316
:103A4800D3601B4A136843F010031360FEF762FC4F
:103A58000546174B1B6813F0200F3FD1FEF75AFCA1
:103A6800401B0228F5D903204EE1002B0BDBB3F1F4
:103A7800804F11D30E4AD36823F4F843216A43EAEE
:103A88008123D360DDE70A4AD36823F47873216A77
:103A980043EA4113D360D4E7054AD36823F4782373
:103AA800216A43EAC133D360CBE700BF000802466E
:103AB800000C0246A14A136823F010031360FEF7B6
:103AC80029FC05469D4B1B6813F0200F06D0FEF716
:103AD80021FC401B0228F5D9032015E1A36B002B1C
:103AE80000F01A81954AD26902F00C020C2A00F003
:103AF800BC80022B14D0914A136823F080731360A2
:103B0800FEF708FC04468D4B1B6813F0007F00F09D
:103B1800A380FEF7FFFB001B0228F4D90320F3E083
:103B2800864A136823F080731360FEF7F3FB05469B
:103B3800824B1B6813F0007F06D0FEF7EBFB401B9F
:103B48000228F5D90320DFE07C4BD3F8943013F03A
:103B5800040F68D1794BD3F8942042F00402C3F8DB
:103B68009420D3F8943003F004030393039B0125B6
:103B7800734BDB6813F4802F57D10026704AD36843
:103B880023F48023D3606D4B9A6A22F47F4222F09B
:103B98000302E16B206C013841EA0021606C0143AB
:103BA8000A439A625A6B67481040A26C013AC2F302
:103BB8000802E16C0139490289B20A43216D0139D1
:103BC800090401F4FE010A43616D0139090601F097
:103BD800FE410A43104358639A6A22F010029A621F
:103BE800E26DD2009A639A6A42F010029A629A6A67
:103BF80022F00C02A16D0A439A62C6B9EDB94F4A88
:103C0800136843F080731360FEF784FB04464B4B44
:103C18001B6813F0007F18D1FEF77CFB001B0228FD
:103C2800F5D9032070E00025A2E70126A6E7444A5B
:103C3800D36843F48023D360E0E7404AD2F8943055
:103C480023F00403C2F89430D9E73C4A936A43F45A
:103C580080239362002057E0384A936A23F4E023D4
:103C680023F00303936200204EE0344A916A506BBC
:103C7800012B53D001F00303E26B934250D1C1F3FF
:103C88000322236C013B9A424CD101F47041636CCE
:103C9800994249D1C0F30802A36C013B9A4245D12D
:103CA800C0F34622E36C013B9A4241D1C0F306427D
:103CB800236D013B9A423DD1C0F30660636D013B21
:103CC800984239D11D4B9B6BC3F3CC03E26D9342F1
:103CD80001D1002018E0194A936A23F01003936277
:103CE800FEF718FB0546FEF715FBA842FBD0E26D70
:103CF800D200124B9A639A6A42F010029A6200202C
:103D080002E001207047012005B0F0BD0120FBE76B
:103D18000120F9E70120F7E70020F5E70120F3E7A4
:103D28000120F1E70120EFE70120EDE70120EBE7B3
:103D38000120E9E70120E7E70120E5E7000C02465A
:103D4800000802460000808008B5FFF799FA044B86
:103D58001B6AC3F30213034AD35CD84008BD00BFF3
:103D6800000C024600C2000808B5FFF789FA044BA8
:103D78001B6AC3F30223034AD35CD84008BD00BFC3
:103D8800000C024600C2000808B5FFF779FA044B98
:103D98005B6AC3F30213034AD35CD84008BD00BF73
:103DA800000C024600C2000838B50546344A1368BC
:103DB80023F080531360FEF7ADFA0446304B1B68BE
:103DC80013F0005F06D0FEF7A5FA001B0228F5D90C
:103DD800032038BD2A4B1A6B22F4706222F00302CA
:103DE80029686868013841EA00210A431A635A6C55
:103DF80024481040AA68013AC2F30802E968013968
:103E0800490289B20A4329690139090401F4FE010A
:103E18000A4369690139090601F0FE410A43104362
:103E280058641A6B22F00C02A9690A431A631A6BC8
:103E3800296A0A431A631A6B22F010021A639A6CF1
:103E48006FF3CF02E96942EAC1029A641A6B42F041
:103E580010021A631A6842F080521A60FEF75AFA82
:103E68000446074B1B6813F0005F06D1FEF752FAB1
:103E7800001B0228F5D90320ABE70020A9E700BF03
:103E8800000C02460000808038B50546344A1368A5
:103E980023F080631360FEF73DFA0446304B1B683D
:103EA80013F0006F06D0FEF735FA001B0228F5D98B
:103EB800032038BD2A4BDA6A22F4706222F003022A
:103EC80029686868013841EA00210A43DA62DA6B36
:103ED80024481040AA68013AC2F30802E968013987
:103EE800490289B20A4329690139090401F4FE012A
:103EF8000A4369690139090601F0FE410A43104382
:103F0800D863DA6A22F00C02A9690A43DA62DA6A2B
:103F1800296A0A43DA62DA6A22F01002DA621A6C53
:103F28006FF3CF02E96942EAC1021A64DA6A42F021
:103F38001002DA621A6842F080621A60FEF7EAF943
:103F48000446074B1B6813F0006F06D1FEF7E2F931
:103F5800001B0228F5D90320ABE70020A9E700BF22
:103F6800000C0246000080802DE9F04182B0044632
:103F7800036813F0010F08D0884AD2F8E03023F024
:103F88000303016D0B43C2F8E030236813F0040FFC
:103F980008D0824AD2F8E03023F03003616D0B4339
:103FA800C2F8E030236813F0080F08D07B4AD2F833
:103FB800E03023F0C003A16D0B43C2F8E030236862
:103FC80013F0100F08D0754AD2F8E03023F440738C
:103FD800E16D0B43C2F8E030236813F0200F08D0DE
:103FE8006E4AD2F8E83023F00703216E0B43C2F87B
:103FF800E830236813F0400F08D0684AD2F8E03060
:1040080023F44063616E0B43C2F8E030236813F079
:10401800800F08D0614AD2F8E03023F44053A16EF3
:104028000B43C2F8E030236813F4807F08D05B4A62
:10403800D2F8E83023F0C003E16E0B43C2F8E83051
:10404800236813F4800F08D0544AD2F8E03023F4E0
:104058004043216F0B43C2F8E030236813F4007F1C
:1040680008D04E4AD2F8E83023F44063616F0B431E
:10407800C2F8E830236813F4806F08D0474AD2F8B2
:10408800E03023F44023A16F0B43C2F8E0302368EB
:1040980013F4006F08D0414AD2F8E83023F4407393
:1040A800E16F0B43C2F8E830236813F4005F36D0A1
:1040B800D4F88C30402B13D00BD81BB3202B05D150
:1040C80004F12C00FFF770FE054620E001273D466D
:1040D80027E0602B1FD0802B1FD001273D4620E012
:1040E8002E4A936A43F48033936200252B4AD2F810
:1040F800E43023F0E003D4F88C100B43C2F8E4302A
:1041080000270EE004F10800FFF7BEFE0546002D6B
:10411800ECD02F4605E00025E8E70025E6E7002774
:104128003D46236813F4004F2AD0D4F8A030B3F5E5
:10413800005F13D00BD9B3F5804F14D0B3F5A04F5F
:1041480011D0B3F5405F0ED001273D4618E053B1BA
:10415800B3F5805F07D001273D4611E004F1080060
:10416800FFF792FE054655B90C4AD2F8E83023F419
:10417800E043D4F8A0100B43C2F8E83000E02F4623
:10418800236813F4803F1DD0D4F88430042B00F248
:104198009E80DFE803F00A05960A0A00000C024632
:1041A800BB4A936A43F480339362002D40F09280B7
:1041B800B74AD2F8E43023F00703D4F884100B434D
:1041C800C2F8E430236813F4003F1DD0D4F88830D7
:1041D800B3F5003F00F08C8000F281803BB1B3F56D
:1041E800803F79D1AA4A936A43F480339362002DC1
:1041F80040F08480A64AD2F8E83023F4E023D4F8CB
:1042080088100B43C2F8E830236813F4802F00F0BD
:1042180091809F4BD3F8943013F0040F70D19C4BCE
:10422800D3F8942042F00402C3F89420D3F89430D1
:1042380003F004030193019B4FF00108954A936A28
:1042480043F001039362FEF765F80646914B9B6ABB
:1042580013F0010F05D1FEF75DF8831B022BF5D98A
:104268000325002D61D18A4BD3F8F03013F4407345
:1042780019D0D4F8B8209A4212D0854AD2F8F03032
:1042880023F44073D2F8F01041F48031C2F8F010F2
:10429800D2F8F01021F48031C2F8F010C2F8F030F2
:1042A80013F0010F2FD1002D40F0F080784AD2F89A
:1042B800F03023F44073D4F8B8100B43C2F8F03050
:1042C80034E004F12C00FFF76FFD05466DE7012788
:1042D8003D4677E72F4675E701273D4694E7B3F556
:1042E800403F84D0B3F5802F81D001273D468BE72E
:1042F80004F12C00FFF758FD054678E72F4683E7C1
:104308004FF000089AE7FEF705F80646604BD3F829
:10431800F03013F0020FC6D1FDF7FCFF801B41F20D
:1043280088339842F2D90325BDE72F46B8F1000F2C
:1043380040F0B280236813F4801F1ED0D4F8983060
:10434800B3F1006F00F0BA8000F2B18043B1B3F16D
:10435800806F40F0A98004F10800FFF795FD05463D
:10436800002D40F0B1804A4AD2F8E03023F0406393
:10437800D4F898100B43C2F8E030236813F4002FE8
:104388000ED0D4F89030B3F5805F00F09F80B3F57D
:10439800005F00F09B80002B00F0988001273D46CD
:1043A800236813F4805F09D0394AD2F8E43023F443
:1043B8000063D4F894100B43C2F8E430236813F474
:1043C800001F0FD0D4F89C30B3F5804F00F08A80DE
:1043D8002F4AD2F8E43023F48043D4F89C100B43DE
:1043E800C2F8E430236813F4000F09D0284AD2F841
:1043F800E03023F44013D4F8AC100B43C2F8E0309B
:10440800236813F0807F09D0214AD2F8E03023F4E2
:104418004033D4F8B0100B43C2F8E030236813F0EF
:10442800007F09D01A4AD2F8E83023F01803D4F8EC
:10443800B4100B43C2F8E830236813F0806F15D02E
:10444800D4F8A830B3F5001F52D0D4F8A830B3F58B
:10445800401F53D0002D57D10D4AD2F8E43023F431
:104468004013D4F8A8100B43C2F8E430236813F0C3
:10447800006F5BD0D4F88030B3F1807F46D0B3F1C1
:10448800007F65D0002B46D001274FE02F464DE72F
:10449800000C024600080246314AD2F8943023F054
:1044A8000403C2F8943045E701273D4665E7B3F1B8
:1044B800406F3FF455AF01273D465EE7284A936AAF
:1044C80043F4003393624BE72F4656E745B9244936
:1044D800D1F8E42022F440521343C1F8E4305FE7F6
:1044E8002F465DE71E4A936A43F4803393626FE771
:1044F8001B4A936A43F400339362A6E704F1080069
:10450800FFF7C2FC0546A5E72F46AFE7144A936AB2
:1045180043F4003393620DBB114AD2F8E03023F024
:104528004073D4F880100B43C2F8E030236813F0CE
:10453800805F09D00A4AD2F8E83023F40043D4F85F
:10454800A4100B43C2F8E830384602B0BDE8F08149
:1045580004F10800FFF798FC0546DCE72F46E5E77D
:10456800000C024610B5824C616BC1F30801A36AC6
:1045780003F0030CA36AC3F303235A1CA36AC3F30F
:10458800001EA36BC3F3CC030EFB03F307EE903AB4
:10459800F8EE677ABCF1020F2ED0BCF1030F00F0E1
:1045A800BA80BCF1010F00F08A80714B9B6813F44C
:1045B800000F00F0CD806E4B9B681B0F6D4C04EB19
:1045C800830393ED006AB8EE466A07EE102AB8EE48
:1045D800477AC6EE076A07EE101AB8EE477A9FEDDB
:1045E800666A67EE867A77EE277AB7EE007A77EE14
:1045F800877A66EEA77A1BE007EE102AB8EE477AAC
:104608009FED5E6AC6EE076A594B5B6BC3F30803FE
:1046180007EE103AB8EE477A9FED576A67EE867A4A
:1046280077EE277AB7EE007A77EE877A66EEA77A82
:104638004F4B9B6A13F4803F00F090804C4B5B6BB0
:10464800C3F3462307EE103AB8EE477AF7EE006A4E
:1046580037EE267AC7EE876AFCEEE66AC0ED006A96
:10466800434B9B6A13F4003F7BD0414B5B6BC3F316
:10467800064307EE103AB8EE477AF7EE006A37EECF
:10468800267AC7EE876AFCEEE66AC0ED016A384B07
:104698009B6A13F4802F67D0354B5B6BC3F30663BB
:1046A80007EE103AB8EE477AF7EE006A37EE267A48
:1046B800C7EE876AFCEEE66AC0ED026A10BD2C4BB5
:1046C8009B6813F4000F20D0294B9B681B0F294CC3
:1046D80004EB830393ED006AB8EE466A07EE102AEE
:1046E800B8EE477AC6EE076A07EE101AB8EE477AB0
:1046F8009FED216A67EE867A77EE277AB7EE007A21
:1047080077EE877A66EEA77A92E7194BD3F8F430FA
:10471800C3F30333DBE707EE102AB8EE477A9FEDC1
:10472800176AC6EE076A124B5B6BC3F3080307EE02
:10473800103AB8EE477A9FED106A67EE867A77EE00
:10474800277AB7EE007A77EE877A66EEA77A6FE770
:10475800074BD3F8F430C3F303332FE70023036088
:104768007EE70023436092E700238360A6E700BF4B
:10477800000C0246C0C10008000000390024744B38
:1047880010B5824CE16BC1F30801E36A03F0030C36
:10479800E36AC3F303235A1CE36AC3F3001E236CC2
:1047A800C3F3CC030EFB03F307EE903AF8EE677AF7
:1047B800BCF1020F2ED0BCF1030F00F0BA80BCF19F
:1047C800010F00F08A80714B9B6813F4000F00F012
:1047D800CD806E4B9B681B0F6D4C04EB830393EDF0
:1047E800006AB8EE466A07EE102AB8EE477AC6EEB7
:1047F800076A07EE101AB8EE477A9FED666A67EE09
:10480800867A77EE277AB7EE007A77EE877A66EEC1
:10481800A77A1BE007EE102AB8EE477A9FED5E6A8A
:10482800C6EE076A594BDB6BC3F3080307EE103A71
:10483800B8EE477A9FED576A67EE867A77EE277A61
:10484800B7EE007A77EE877A66EEA77A4F4BDB6A87
:1048580013F4803F00F090804C4BDB6BC3F346238E
:1048680007EE103AB8EE477AF7EE006A37EE267A86
:10487800C7EE876AFCEEE66AC0ED006A434BDB6A66
:1048880013F4003F7BD0414BDB6BC3F3064307EEC9
:10489800103AB8EE477AF7EE006A37EE267AC7EE96
:1048A800876AFCEEE66AC0ED016A384BDB6A13F4EE
:1048B800802F67D0354BDB6BC3F3066307EE103AE6
:1048C800B8EE477AF7EE006A37EE267AC7EE876ABF
:1048D800FCEEE66AC0ED026A10BD2C4B9B6813F42F
:1048E800000F20D0294B9B681B0F294C04EB830336
:1048F80093ED006AB8EE466A07EE102AB8EE477ADA
:10490800C6EE076A07EE101AB8EE477A9FED216ADD
:1049180067EE867A77EE277AB7EE007A77EE877AAF
:1049280066EEA77A92E7194BD3F8F430C3F3033352
:10493800DBE707EE102AB8EE477A9FED176AC6EE56
:10494800076A124BDB6BC3F3080307EE103AB8EEA5
:10495800477A9FED106A67EE867A77EE277AB7EE88
:10496800007A77EE877A66EEA77A6FE7074BD3F877
:10497800F430C3F303332FE7002303607EE70023FB
:10498800436092E700238360A6E700BF000C02465D
:10499800C0C10008000000390024744B10B5824CD7
:1049A800616CC1F30801236B03F0030C236BC3F3A1
:1049B80003235A1C236BC3F3001EA36CC3F3CC035D
:1049C8000EFB03F307EE903AF8EE677ABCF1020F9C
:1049D8002ED0BCF1030F00F0BA80BCF1010F00F03B
:1049E8008A80714B9B6813F4000F00F0CD806E4BEA
:1049F8009B681B0F6D4C04EB830393ED006AB8EEC4
:104A0800466A07EE102AB8EE477AC6EE076A07EE3E
:104A1800101AB8EE477A9FED666A67EE867A77EEE7
:104A2800277AB7EE007A77EE877A66EEA77A1BE0E8
:104A380007EE102AB8EE477A9FED5E6AC6EE076A5F
:104A4800594B5B6CC3F3080307EE103AB8EE477A8C
:104A58009FED576A67EE867A77EE277AB7EE007A87
:104A680077EE877A66EEA77A4F4B1B6B13F4803F7D
:104A780000F090804C4B5B6CC3F3462307EE103A72
:104A8800B8EE477AF7EE006A37EE267AC7EE876AFD
:104A9800FCEEE66AC0ED006A434B1B6B13F4003F63
:104AA8007BD0414B5B6CC3F3064307EE103AB8EE7C
:104AB800477AF7EE006A37EE267AC7EE876AFCEE89
:104AC800E66AC0ED016A384B1B6B13F4802F67D080
:104AD800354B5B6CC3F3066307EE103AB8EE477AC2
:104AE800F7EE006A37EE267AC7EE876AFCEEE66ACA
:104AF800C0ED026A10BD2C4B9B6813F4000F20D048
:104B0800294B9B681B0F294C04EB830393ED006A28
:104B1800B8EE466A07EE102AB8EE477AC6EE076A7C
:104B280007EE101AB8EE477A9FED216A67EE867A8B
:104B380077EE277AB7EE007A77EE877A66EEA77A6D
:104B480092E7194BD3F8F430C3F30333DBE707EEEE
:104B5800102AB8EE477A9FED176AC6EE076A124B1D
:104B68005B6CC3F3080307EE103AB8EE477A9FED83
:104B7800106A67EE867A77EE277AB7EE007A77EED4
:104B8800877A66EEA77A6FE7074BD3F8F430C3F35A
:104B980003332FE7002303607EE70023436092E797
:104BA80000238360A6E700BF000C0246C0C10008CE
:104BB800000000390024744B00B58BB0A0F5004309
:104BC8000B4300F0308348F20103984271F100036F
:104BD80080F0D680A0F180030B4300F0E7838128A2
:104BE80071F100032DD3A0F500630B4300F0798425
:104BF80040F60103984271F1000380F0A180A0F50E
:104C080000730B4300F0B684A0F580630B4300F0FB
:104C1800FA84A0F58070084340F09080B24BD3F836
:104C2800E83003F0C003802B00F0148400F2F48312
:104C3800002B00F00784402B40F0EC83FEF7D8F8F7
:104C48000FE0212871F1000354D250EA010300F06B
:104C58005186013841F1FF31202871F1000103D359
:104C680000200BB05DF804FB1F28F9D801A353F806
:104C780020F000BF95500008694C0008694C0008F6
:104C8800D9500008694C0008694C0008694C0008B4
:104C98001D510008694C0008694C0008694C00085F
:104CA800694C0008694C0008694C0008694C000808
:104CB80061510008694C0008694C0008694C0008FB
:104CC800694C0008694C0008694C0008694C0008E8
:104CD800694C0008694C0008694C0008694C0008D8
:104CE800694C0008694C0008694C0008694C0008C8
:104CF800BB510008403808431ED17B4BD3F8E03045
:104D080013F4406300F03B83B3F5806F00F03A83FF
:104D1800754A126812F4806F03D0B3F5006F00F083
:104D28004686714A106810F020009AD0B3F5406F9B
:104D380000F02B83002094E7002092E7002090E702
:104D4800A0F580530B4300F01E81A0F500500843E6
:104D580014D1654BD3F8E43003F0E003402B00F0A6
:104D6800088100F2F780002B00F00881202B40F02A
:104D7800EF8001A8FFF712FE019872E7002070E7A4
:104D8800A0F580030B4300F07483584B984271F1EF
:104D980000032CD300F17C430B4300F04C85544BAB
:104DA800984271F1000374D200F17F430B4300F085
:104DB800B58400F17E430B4300F0F084A0F50000B9
:104DC800084364D1484BD3F8E03003F44013B3F5FB
:104DD800001F00F08D8400F26E84002B00F08484A4
:104DE800B3F5801F40F06484FEF702F839E7A0F5B8
:104DF80000230B4300F05C853E4B984271F10003A1
:104E08001DD2A0F500330B4300F07C82A0F580236F
:104E18000B4371D0A0F5803008430ED1324BD3F844
:104E2800E43003F00703042B00F2BA85DFE813F03F
:104E38004F0245024A0242025202002011E7A0F541
:104E480080130B4300F0B680A0F5001008431CD176
:104E5800254BD3F8E40010F4804040F01281D3F8D9
:104E6800E03003F04063B3F1006F00F0F78000F228
:104E7800DF80002B00F0F780B3F1806F7FF4F1AE94
:104E880004A8FFF77DFC0598EBE60020E9E6002082
:104E9800E7E600F178430B4300F0E98300F1704046
:104EA80008431ED1104AD2F8E83003F40043D2F880
:104EB800F02012F0020F02D0002B00F0BE850A4A43
:104EC800D2F8F00010F000603FF4CBAE002B00F0F9
:104ED800B885D2F8F03013F0805F00F0B585FA207D
:104EE800BFE60020BDE600BF000C024601004000FE
:104EF8000100000401000800A84AD2F8F03003F4C9
:104F08004073D2F8F02012F0020F03D0B3F5807F7F
:104F180000F0F384A14AD2F8F02012F0006F02D01A
:104F2800B3F5007F0BD09D4A126812F4003F00F0E1
:104F3800EC84B3F5407F00F0EB84002091E6974BBA
:104F4800D3F8F03013F0805F00F0DB84FA2088E6B5
:104F5800002086E6602B00F0DE84802B07D18F4B83
:104F6800186810F480603FF47CAE8D4879E6002024
:104F780077E607A8FFF7F6FA079872E604A8FFF79E
:104F8800FFFB04986DE6854AD2F8E43003F4006329
:104F9800126812F4806F02D0002B00F0C0847F4AA0
:104FA800126812F4806F00F0BD84002B40F0BD84BD
:104FB800002056E6794BD3F8E03003F04063B3F1B4
:104FC800006F22D00AD82BB3B3F1806F04D104A8A4
:104FD800FFF7D6FB059844E6002042E6B3F1406FA0
:104FE80011D16E4B186810F020003FF43AAE9B6860
:104FF80013F4000F16D0694B9B68C3F30363694A27
:1050080052F823002DE600202BE607A8FFF7AAFA9E
:10501800089826E6614B186810F400503FF421AE5A
:1050280061481EE65D4BD3F8F430C3F30323E6E78B
:10503800B3F1406F7FF415AE584B186810F020009C
:105048003FF40FAE9B6813F4000F14D0534B9B68CA
:10505800C3F30363534A52F8230002E607A8FFF795
:1050680081FA0898FDE54D4B186810F400503FF49C
:10507800F8AD4D48F5E5494BD3F8F430C3F30323B5
:10508800E8E707A8FFF76EFA0798EAE5434BD3F875
:10509800E03013F0030315D0012B16D03F4A1268F5
:1050A80012F4806F02D0022B00F042843B4AD2F8FF
:1050B800F02012F0020F00F03E84032B00F03E8433
:1050C8000020CEE5FEF750FECBE5FDF791FEC8E5E2
:1050D800324BD3F8E03013F0300315D0102B16D034
:1050E8002E4A126812F4806F02D0202B00F02A8416
:1050F8002A4AD2F8F02012F0020F00F02684302B52
:1051080000F026840020ACE5FEF71EFEA9E5FDF7B9
:105118006FFEA6E5214BD3F8E03013F0C00315D09D
:10512800402B16D01D4A126812F4806F02D0802BD3
:1051380000F01284194AD2F8F02012F0020F00F0A1
:105148000E84C02B00F00E8400208AE5FEF7FCFDDB
:1051580087E5FDF74DFE84E5104BD3F8E03013F4F6
:10516800407318D0B3F5807F20D00C4A126812F42F
:10517800806F03D0B3F5007F00F0F883074AD2F8B8
:10518800F02012F0020F00F0F483B3F5407F00F036
:10519800F383002065E5FEF7D7FD62E5000C0246C3
:1051A8000024F400C0C10008006CDC02FDF720FEFA
:1051B80057E5A64BD3F8E83013F007031CD0012BB2
:1051C8001DD0A24A126812F4806F02D0022B00F0A0
:1051D800D7839E4AD2F8F02012F0020F02D0032B98
:1051E80000F0D183994A106810F020003FF439ADDF
:1051F800042B07D0002034E5FEF7C6FD31E5FDF7A6
:10520800F7FD2EE5936813F4000F06D09368C3F3F7
:1052180003638F4A52F8230023E58C4BD3F8F4300C
:10522800C3F30323F5E7894BD3F8E83003F4E043ED
:10523800B3F5805F1BD0B3F5005F1BD0FBB1B3F5AE
:10524800A04F1FD0814A126812F4003F03D0B3F573
:10525800405F00F09C837D4A126812F4806F00F072
:105268009983B3F5804F00F098830020F9E4FDF7A7
:10527800BFFDF6E404A8FFF783FA0698F1E4FDF70A
:10528800FFFFEEE4714B186810F020003FF4E9AC22
:105298009B6813F4000F07D06C4B9B68C3F3036340
:1052A8006B4A52F82300DCE4684BD3F8F430C3F3BC
:1052B8000323F5E74BF68030D3E407A8FFF752F94C
:1052C8000798CEE401A8FFF769FB0298C9E4FDF747
:1052D800D7FFC6E45D4B186810F020003FF4C1AC5E
:1052E8009B6813F4000F07D0584B9B68C3F3036304
:1052F800574A52F82300B4E4544BD3F8F430C3F3BC
:105308000323F5E7514BD3F8E83003F4E023B3F572
:10531800003F26D00AD84BB3B3F5803F04D107A885
:10532800FFF720F907989CE400209AE4B3F5403F82
:1053380000F03983B3F5802F11D1444B186810F071
:1053480020003FF48EAC9B6813F4000F11D03F4B44
:105358009B68C3F303633E4A52F8230081E40020AC
:105368007FE401A8FFF71AFB02987AE4FDF788FFAB
:1053780077E4364BD3F8F430C3F30323EBE7FEF7B7
:10538800E3FC6EE4FDF734FD6BE4936813F4000F5F
:1053980006D09368C3F303632D4A52F8230060E4F0
:1053A8002A4BD3F8F430C3F30323F5E7274BD3F89C
:1053B800E03013F4405316D0B3F5805F16D0234A7B
:1053C800126812F4806F03D0B3F5005F00F0F28228
:1053D8001E4A106810F020003FF443ACB3F5405F5C
:1053E80007D000203DE4FEF7AFFC3AE4FDF700FDEE
:1053F80037E4936813F4000F06D09368C3F303638C
:10540800134A52F823002CE4104BD3F8F430C3F3BA
:105418000323F5E7002024E4C02B11D10B4B1868B7
:1054280010F020003FF41DAC9B6813F4000F1AD055
:10543800064B9B68C3F30363054A52F8230010E444
:1054480000200EE4FEF7A0FC0BE400BF000C0246AF
:10545800C0C10008AE4B186810F480603FF401AC7E
:10546800AC48FFF7FEBBAA4BD3F8F430C3F30323D1
:10547800E2E7A74BD3F8E03013F4404317D0B3F575
:10548800804F18D0A24A126812F4806F03D0B3F587
:10549800004F00F092829E4A106810F020003FF4FE
:1054A800E0ABB3F5404F0AD00020FFF7DABBFEF7B8
:1054B8004BFCFFF7D6BBFDF79BFCFFF7D2BB93680D
:1054C80013F4000F07D09368C3F30363924A52F8AA
:1054D8002300FFF7C6BB8E4BD3F8F430C3F3032386
:1054E800F4E78B4BD3F8E83013F4407318D1884BAA
:1054F800186810F020003FF4B4AB9B6813F4000F59
:1055080008D0834B9B68C3F30363834A52F8230094
:10551800FFF7A7BB7E4BD3F8F430C3F30323F4E7BC
:105528007B4AD2F8F02012F0006F02D0B3F5807FEA
:1055380016D0774A126812F4806F03D0B3F5007F53
:1055480000F04282724AD2F8F02012F0020F00F006
:105558003E82B3F5407F00F03D820020FFF781BB1B
:105568006B4BD3F8F03013F0805F00F02982FA20FB
:10557800FFF777BB664BD3F8E83013F4406318D1D4
:10558800634B186810F020003FF46BAB9B6813F472
:10559800000F08D05E4B9B68C3F303635E4A52F862
:1055A8002300FFF75EBB5A4BD3F8F430C3F3032351
:1055B800F4E7574AD2F8F02012F0006F02D0B3F5A2
:1055C800806F16D0524A126812F4806F03D0B3F578
:1055D800006F00F007824E4AD2F8F02012F0020F56
:1055E80000F00382B3F5406F00F002820020FFF75D
:1055F80038BB474BD3F8F03013F0805F00F0EE81F2
:10560800FA20FFF72EBB424BD3F8E03013F44023C7
:105618001FD03F4AD2F8F02012F0006F02D0B3F545
:10562800802F1AD03A4A126812F4806F03D0B3F56B
:10563800002F00F0E581364AD2F8F02012F0020F70
:1056480000F0E181B3F5402F00F0E0810020FFF782
:1056580008BBFEF779FBFFF704BB2D4BD3F8F030FE
:1056680013F0805F00F0C881FA20FFF7FABA284AE1
:10567800D2F8E03003F04073126812F4003F02D011
:10568800002B00F0D181B3F1807F05D0B3F1007F0A
:1056980008D00020FFF7E5BA07A8FEF763FF0898CF
:1056A800FFF7DFBA04A8FFF76BF80498FFF7D9BA39
:1056B8000020FFF7D6BAB3F5401F12D1144B186873
:1056C80010F020003FF4CDAA9B6813F4000F18D007
:1056D8000F4B9B68C3F303630F4A52F82300FFF78D
:1056E800C0BA0020FFF7BDBAFEF73EFBFFF7B9BA14
:1056F800074B186810F480603FF4B3AA0548FFF719
:10570800B0BA034BD3F8F430C3F30323E4E700BF84
:10571800000C02460024F400C0C10008BD4BD3F8B9
:10572800E03003F44033B3F5003F28D00AD813B370
:10573800B3F5803F03D1FDF75BFBFFF792BA00207A
:10574800FFF78FBAB3F5403F12D1B24B186810F08B
:1057580020003FF486AA9B6813F4000F18D0AD4BC5
:105768009B68C3F30363AC4A52F82300FFF779BA86
:105778000020FFF776BAFEF7E7FAFFF772BAA54BF3
:10578800186810F480603FF46CAAA448FFF769BA5F
:10579800A04BD3F8F430C3F30323E4E79D4BD3F8CD
:1057A800E83003F01803182B00F24181DFE813F00A
:1057B80019003F013F013F013F013F013F013F0108
:1057C8001D003F013F013F013F013F013F013F01F4
:1057D80021003F013F013F013F013F013F013F01E0
:1057E8002A00FEF7D1FAFFF73CBAFDF701FBFFF7F5
:1057F80038BA884B186810F480603FF432AA87489A
:10580800FFF72FBA834B186810F020003FF429AA3D
:105818009B6813F4000F08D07E4B9B68C3F30363A7
:105828007D4A52F82300FFF71CBA7A4BD3F8F430BC
:10583800C3F30323F4E7774BD3F8E43003F44013BE
:10584800B3F5001F24D019D843B3B3F5801F12D184
:10585800704B186810F020003FF403AA9B6813F4FB
:10586800000F1FD06B4B9B68C3F303636A4A52F85F
:105878002300FFF7F6B90020FFF7F3B9B3F5401F8F
:1058880040F0D88004A8FEF77BFF0598FFF7E9B938
:1058980007A8FEF767FE0898FFF7E3B9FDF7A8FA2F
:1058A800FFF7DFB95B4BD3F8F430C3F30323DDE72D
:1058B800584AD2F8E43003F44053126812F4005FF7
:1058C80002D0002B00F0C480524A126812F4005F24
:1058D80003D0B3F5805F00F0BE804E4A126812F420
:1058E800806F00F0BB80B3F5005F00F0BA80002045
:1058F800FFF7B7B90020FFF7B4B94FF40040FFF73E
:10590800B0B94FF4FA40FFF7ACB90020FFF7A9B9D6
:105918004348FFF7A6B94BF68030FFF7A2B93F48D6
:10592800FFF79FB90020FFF79CB93E48FFF799B9E8
:105938003A48FFF796B90020FFF793B94FF40040B3
:10594800FFF78FB93548FFF78CB90020FFF789B901
:105958004FF40040FFF785B93048FFF782B90020BF
:10596800FFF77FB94FF40040FFF77BB92B48FFF7EB
:1059780078B90020FFF775B94FF40040FFF771B907
:105988002648FFF76EB94FF40040FFF76AB923487D
:10599800FFF767B90020FFF764B92048FFF761B93E
:1059A8000020FFF75EB94BF68030FFF75AB91B4865
:1059B800FFF757B91948FFF754B91848FFF751B915
:1059C8004FF4FA40FFF74DB91448FFF74AB90020E1
:1059D800FFF747B94FF40040FFF743B94FF4FA40D7
:1059E800FFF73FB90D48FFF73CB90020FFF739B979
:1059F8004FF40040FFF735B94FF4FA40FFF731B9DB
:105A08000648FFF72EB90020FFF72BB94FF40040E6
:105A1800FFF727B9000C0246C0C100080024F400B3
:105A280020A1070000127A000F48FFF71AB90020DA
:105A3800FFF717B90020FFF714B94FF40040FFF73C
:105A480010B91846FFF70DB94FF4FA40FFF709B936
:105A58000648FFF706B90648FFF703B90020FFF725
:105A680000B90148FFF7FDB80024F400006CDC021F
:105A780000366E01F0B504460023DAE0056825EA31
:105A88000C054C6804F001049C402C4304607F4DD5
:105A980055F8334005EBC3056D68EF08083754F82F
:105AA800276005F0070C4FEA8C0C4FF00F0E0EFA2A
:105AB8000CFE26EA0E0E0B2606FA0CF646EA0E0631
:105AC80044F8276027684FEA450C032606FA0CF6C7
