:020000040800F2
:10000000000004206D3C00080507000807070008F1
:10001000090700080B0700080D070008BD3C000891
:100020000000000000000000000000000F070008B2
:10003000110700080000000013070008150700085A
:10004000BD3C0008BD3C0008BD3C0008BD3C0008AC
:10005000BD3C0008BD3C0008BD3C0008BD3C00089C
:10006000BD3C0008BD3C0008BD3C0008BD3C00088C
:10007000BD3C0008BD3C0008BD3C0008BD3C00087C
:10008000BD3C0008BD3C0008BD3C0008BD3C00086C
:10009000BD3C0008BD3C0008BD3C0008BD3C00085C
:1000A0001D070008BD3C0008BD3C0008BD3C000821
:1000B000BD3C0008BD3C0008BD3C0008BD3C00083C
:1000C000BD3C0008BD3C0008BD3C0008BD3C00082C
:1000D000BD3C0008BD3C0008BD3C0008BD3C00081C
:1000E000BD3C0008BD3C0008BD3C0008BD3C00080C
:1000F000BD3C0008BD3C0008BD3C0008BD3C0008FC
:10010000BD3C0008BD3C0008BD3C0008BD3C0008EB
:10011000BD3C0008BD3C0008BD3C0008BD3C0008DB
:10012000BD3C0008BD3C0008BD3C0008BD3C0008CB
:10013000BD3C0008BD3C000800000000BD3C0008BC
:10014000BD3C0008BD3C0008BD3C0008BD3C0008AB
:10015000BD3C0008BD3C0008BD3C0008BD3C00089B
:10016000BD3C0008BD3C0008BD3C0008000000008C
:10017000BD3C0008BD3C0008BD3C0008000000007C
:10018000BD3C0008BD3C0008BD3C0008BD3C00086B
:10019000BD3C0008BD3C0008BD3C0008BD3C00085B
:1001A000BD3C0008BD3C0008BD3C0008000000004C
:1001B000BD3C0008BD3C0008BD3C0008BD3C00083B
:1001C000BD3C0008BD3C0008BD3C0008BD3C00082B
:1001D000BD3C0008BD3C0008BD3C0008BD3C00081B
:1001E000000000000000000000000000BD3C00080E
:1001F000BD3C000800000000BD3C0008BD3C0008FC
:10020000BD3C0008BD3C0008BD3C0008BD3C0008EA
:10021000BD3C0008BD3C000800000000BD3C0008DB
:10022000000000000000000000000000BD3C0008CD
:08023000BD3C0008BD3C0008C4
:1002380010B5054C237833B9044B13B10448AFF318
:1002480000800123237010BD6C0000200000000016
:10025800404B000808B5034B1BB103490348AFF3F3
:10026800008008BD0000000070000020404B00081E
:1002780053B94AB9002908BF00281CBF4FF0FF3105
:100288004FF0FF3000F0B0B9ADF1080C6DE904CEC5
:1002980000F006F8DDF804E0DDE9022304B0704759
:1002A8002DE9F04F099D884604468E46002B4AD119
:1002B8008A4217465FD9B2FA82F64EB1C6F12003D8
:1002C80001FA06FEB740B44020FA03F343EA0E0EE3
:1002D8004FEA17481FFA87FC230CBEFBF8F108FB0E
:1002E80011EE01FB0CF243EA0E439A4207D9FB18C0
:1002F80001F1FF3002D29A4200F2548101469B1A62
:10030800A2B2B3FBF8F008FB103300FB0CFC42EA86
:10031800034294450BD9BA1800F1FF332CBF0124CE
:100328000024944502D9002C00F03F81184640EA89
:100338000140A2EB0C0200211DB1F2400023C5E9E7
:100348000023BDE8F08F8B4205D90DB1C5E9000146
:1003580000210846F5E7B3FA83F100294ED1434559
:10036800C0F01281824240F20F810846002DE8D089
:10037800C5E9004EE5E7002A00F0AC80B2FA82F643
:10038800002E40F0BB808B1A4FEA124EBCB20121FE
:10039800020C80B2B3FBFEFC0EFB1C3342EA0343A3
:1003A80004FB0CF29A420ED9FB180CF1FF382CBF53
:1003B8004FF001094FF000099A4203D9B9F1000F33
:1003C80000F0EC80C4469B1AB3FBFEF80EFB183312
:1003D80004FB08F440EA034294420BD9BA1808F126
:1003E800FF332CBF01200020944202D9002800F0DE
:1003F800D1809846121B48EA0C409DE7C1F12006BF
:100408008B4008FA01F400FA01F922FA06F728FAF3
:1004180006F88A401F4320FA06F3380C23431FFAD4
:1004280087FC1C0CB8FBF0FE00FB1E8844EA08445D
:100438000EFB0CF8A0450ED93C190EF1FF3A2CBF63
:100448004FF0010B4FF0000BA04503D9BBF1000F93
:1004580000F0B880D646A4EB08041FFA83F8B4FB72
:10046800F0F300FB134403FB0CFC48EA0444A445E6
:100478000ED93C1903F1FF302CBF4FF001084FF0A3
:100488000008A44503D9B8F1000F00F09F80034687
:1004980043EA0E40A4EB0C04A0FB02EC644573464F
:1004A800E04602D307D1F14505D2BEEB02036CEB5F
:1004B800070C0138E0465DB1B9EB030264EB0804B0
:1004C80004FA06F622FA01F3CC401E43C5E900649B
:1004D800002136E7B1FBF2FC010C144680B29646C7
:1004E80041EA08412026904640EA01431046B1FB04
:1004F800F2F1A3EB080341EA0C414BE7B740C6F120
:10050800200301FA06F221FA03F84FEA174E20FAFF
:1005180003F3BCB2B0401343020C190C80B2B8FB11
:10052800FEF90EFB198841EA084109FB04F88845E1
:1005380051D9791809F1FF3C2CBF4FF0010A4FF04F
:10054800000A884502D9BAF1000F31D0A1EB0801A1
:10055800B1FBFEF909FB04F80EFB19119BB243EA43
:100568000143434535D2FB1809F1FF312CBF4FF049
:10057800010A4FF0000A4345BBD2BAF1000FB8D1C7
:10058800A9F102013B44B4E7841A68EB0302012095
:100598009646EBE63A44A8F102082BE7ACF1020CC8
:1005A8003B4410E702393B44A9E63A440238BEE628
:1005B800A7EB0808A9F1020C4144B1FBFEF909FBBD
:1005C80004F8C9E7AEF1020E3C4444E7023B3C4460
:1005D8005EE749468DE7A1EB0801CC46B1FBFEF981
:1005E80009FB04F8B8E700BF704700BF10B9024B19
:1005F80001221A60704700BF8800002072B6FEE72B
:1006080008B5022002F0C2FF00B908BDFFF7F6FFE7
:1006180008B5002000F094FA18B900F0A3FA10B950
:1006280008BDFFF7EBFFFFF7E9FF00B59FB06022B9
:10063800002106A803F057FC0020009001900290CA
:1006480003900490059002F049FFE0B91023069347
:1006580001220D920E934FF080430F9300231493C1
:1006680006A800F0D9FD80B91F230093002101914D
:100678000291039104910591684600F033FC30B96A
:100688001FB05DF804FBFFF7B9FFFFF7B7FFFFF7EF
:10069800B5FF000008B500F0C5FAFFF7C6FFFFF781
:1006A800AFFFFFF7B5FF002000F092F8012100200E
:1006B80000F0D0F80E494FF4E1330B600020486099
:1006C80008814881888100F03BF908B1FFF796FF5F
:1006D800084803F0B3FB002000F0A0F8064B1B68A5
:1006E800012BFBD10020044B186000F0A5F8F5E7BA
:1006F8008C000020584B000888000020FEE7FEE729
:10070800FEE7FEE7FEE770477047704708B500F060
:10071800B3FA08BD08B5002000F0E6F808BD0000EF
:1007280082B0074BD3F8942042F00402C3F8942017
:10073800D3F8943003F004030193019B02B070478F
:10074800000C024670B588B01F4BD3F88C2042F0DD
:100758000102C3F88C20D3F88C2002F00102009229
:10076800009AD3F88C2042F00102C3F88C20D3F809
:100778008C2002F001020192019AD3F8A42042F4DD
:100788008042C3F8A420D3F8A43003F48043029332
:10079800029B4FF4007303930224049406940123EC
:1007A800059307260796094D03A9284602F03CFD44
:1007B8004FF4806303930494079603A9284602F034
:1007C80033FD08B070BD00BF000C024600000242B5
:1007D800E8B910B586B00F4BD3F88C2042F001026F
:1007E800C3F88C20D3F88C3003F001030093009BEE
:1007F80020230193012302930024039403230493E9
:1008080001A9054802F010FD204606B010BD6FF0A2
:1008180001007047000C02460000024238B908B5D2
:1008280001222021034802F013FE002008BD6FF0CA
:10083800010070470000024230B908B52021044881
:1008480002F00BFE002008BD6FF00100704700BFEA
:100858000000024210B586B01D4BD3F88C2042F040
:100868000402C3F88C20D3F88C3003F004030093FF
:10087800009B4FF40053019302230393049341B95F
:100888000023029301A9134802F0CEFC002006B011
:1008980010BD0446104B029301A90E4802F0C4FC97
:1008A80004EB44040D4B03EB84040D49204602F08D
:1008B800EEFD0C4A0021204602F0D8FD00220F214F
:1008C800182000F0C1F8182000F0CEF8DEE700BFCD
:1008D800000C0246000802420000111034010020FA
:1008E8000D0000060909000808B500EB4000034B9D
:1008F80003EB800002F0D2FD08BD00BF34010020E8
:1009080008B50020FFF772FE08BD000008B50B4AC5
:10091800126802600A6842600C2242614A890261D8
:100928004A6882600A89C2608A8982614FF40042FB
:10093800C2610022426203F0F1F808BD0000002005
:1009480070B938B50D469422084C02FB0044204685
:10095800FFF7F8FE29462046FFF7D8FF18B938BD3B
:100968006FF0010070476FF00300F8E7A000002067
:1009780010B582B00190084B18784FF47A730122B1
:1009880001A94FF0940C054C0CFB004002F0F8FF55
:10099800019802B010BD00BF9C000020A0000020FC
:1009A800002807DB00F01F02400901239340024A98
:1009B80042F82030704700BF00E100E0002808DB63
:1009C8000901C9B200F1604000F5614080F80013E8
:1009D800704700F00F000901C9B2014B1954704764
:1009E80014ED00E000B500F00700C0F1070CBCF101
:1009F800040F28BF4FF0040C031D062B0FD9C31E8C
:100A08004FF0FF3E0EFA0CF021EA000199400EFA71
:100A180003FE22EA0E0241EA02005DF804FB00230D
:100A2800EEE70000074AD36823F4E0631B041B0CBD
:100A3800000200F4E060034343F0BF6343F4003373
:100A4800D360704700ED00E010B50446054BD86848
:100A5800C0F30220FFF7C6FF01462046FFF7AEFFAE
:100A680010BD00BF00ED00E008B5FFF799FF08BD15
:100A78000138B0F1807F09D24FF0E023586100209F
:100A880098611A6942F003021A61704701207047A1
:100A9800042838D8DFE800F00A18283703004FF098
:100AA800E022136943F00403136170474FF0E0221A
:100AB800136923F004031361134AD2F8E03023F4D6
:100AC8004003C2F8E03070474FF0E022136923F08A
:100AD800040313610C4AD2F8E03023F4400343F4D2
:100AE8008003C2F8E03070474FF0E022136923F02A
:100AF80004031361044AD2F8E03023F4400343F4BA
:100B08000003C2F8E0307047000C02464FF0E023C3
:100B1800186910F004000CD1084BD3F8E03003F446
:100B28004003B3F5800F06D0B3F5000F04D10220BF
:100B38007047042070470120704700BF000C024630
:100B4800074B1B6813F0010F07D1054A136823F000
:100B5800040303431360002070470120704700BF5F
:100B680000040340034A136843F0010313600020A4
:100B7800704700BF0004034038B5274B1A78002A95
:100B880047D005464FF0E0231C6914F004040DD04B
:100B9800224B1C684FF47A71B1FBF2F2B4FBF2F409
:100BA8002046FFF765FF50B3012033E0FFF7AEFFA3
:100BB80001280ED0022817D00028F1D1174B1C6845
:100BC800154A11784FF4FA52B2FBF1F2B4FBF2F481
:100BD800E6E7114B1B784FF47A72B2FBF3F24FF44D
:100BE800FA43B3FBF2F4DBE70B4B1B784FF47A7252
:100BF800B2FBF3F24FF40043B3FBF2F4D0E7002268
:100C080029464FF0FF30FFF71FFF054B1D600020FE
:100C180000E0012038BD00BF040000200C000020C7
:100C28000800002010B5104A136843F4807313605D
:100C38000320FFF7F7FE00F093F80C4B1B6A03F054
:100C48000F030B4AD35CD8400A4B18600420FFF707
:100C58001FFF0F20FFF790FF10B10124204610BDA1
:100C68000446FFF75DFDF9E700200240000C02464C
:100C7800544C00080C000020034B1B78034A1168F1
:100C88000B441360704700BF04000020400100209F
:100C9800014B1868704700BF4001002030B583B091
:100CA80004462D4BD3F8943013F0040F0FD002F004
:100CB80065FCB0F5403F20D0B0F5003F1DD0B4F141
:100CC800805F2CD2B0F5803F40D0012025E0224D36
:100CD800D5F8943043F00403C5F89430D5F894302F
:100CE80003F004030193019B02F048FCD5F894300B
:100CF80023F00403C5F89430DBE7B4F1805F23D216
:100D08000120164A136823F00F0303431360136886
:100D180003F00F0383421DD1002003B030BDB4F1AE
:100D2800005F05D9A0B9B4F1405FEAD80120E8E72F
:100D3800B4F1805F01D00120E3E7B0F5803F01D036
:100D48000220DEE70120DCE70020DAE70320D8E70D
:100D58000020D6E70120E0E7000C02460020024010
:100D68005B4AD369926A13F00C0311D002F00302B4
:100D78000C2B0BD0564AD26902F00C02042A1FD061
:100D8800082B00F0A2800020014612E0012AF1D1D0
:100D98004F4A926812F4000F0ED14D4AD2F8F4204F
:100DA800C2F303324B4951F82210002B00F08B801C
:100DB80000200C2B07D07047454A9268120FF1E7C4
:100DC80045480021F5E700B54148836A03F0030C64
:100DD800836AC3F30323013307EE103A836AC3F32C
:100DE800001E836BC3F3CC030EFB03F307EE903AAC
:100DF800F8EE677ABCF1020F1FD0BCF1030F47D0A1
:100E080006EE901AF8EE666AB8EE477A86EE876ABA
:100E18002F4B5B6BC3F3080307EE103AB8EE477A23
:100E2800DFED2E6A67EEA67A77EE277AB7EE007ABC
:100E380077EE877A66EE276A19E0B8EE477A9FED73
:100E4800286AC6EE076A224B5B6BC3F3080307EEFA
:100E5800103AB8EE477A9FED216A67EE867A77EE08
:100E6800277AB7EE007A77EE877A66EEA76A184B8C
:100E78005B6BC3F30663013307EE903AB8EE677A0B
:100E8800C6EE877AFCEEE77A17EE900A5DF804FB67
:100E9800B8EE477A9FED126AC6EE076A0C4B5B6B99
:100EA800C3F3080307EE103AB8EE477A9FED0B6AD2
:100EB80067EE867A77EE277AB7EE007A77EE877A4A
:100EC80066EEA76AD3E7084670470348704700BF35
:100ED800000C02460C4C00080024F4000000003905
:100EE8000024744B002800F07181F0B583B00D46E2
:100EF80004467F4B1B6803F00F038B420BD27C4ADE
:100F0800136823F00F030B431360136803F00F03F8
:100F18008B4240F05D81236813F0100F0CD062699A
:100F2800744B5B6A03F070039A4205D971494B6AA6
:100F380023F070031A434A62236813F0080F0ED097
:100F480022696C4B1B6A1B0903F070039A4206D98D
:100F580068490B6A23F4E06343EA02130B622368CF
:100F680013F0040F0CD0E268624B1B6A03F07003A5
:100F78009A4205D95F490B6A23F070031A430A6243
:100F8800236813F0020F0CD0A2685A4B1B6A03F0B7
:100F98000F039A4205D957490B6A23F00F031A43E6
:100FA8000A62236813F0010F00F0A8806368032B1E
:100FB8000AD0022B61D0002B66D14E4B1B6813F070
:100FC800040F26D10120FFE04A4BD3F8943013F0E8
:100FD800040F0ED1474BD3F8942042F00402C3F813
:100FE8009420D3F8943003F004030193019B012764
:100FF80000E00027FFF74CFE06463F4BDB6813F482
:10100800802F26D18FBB3B4B1B6813F0007F00F06D
:10101800E180384AD36923F0030361680B43D36145
:10102800FFF736FE06466368032B34D0022B41D007
:10103800002B4ED02F4BDB6903F00C03042B5DD043
:10104800FFF726FE801B41F288339842F2D903202D
:10105800BAE0294BDB6813F4804FD3D1FFF718FEB1
:10106800801B0228F5D90320AEE0224AD2F894303A
:1010780023F00403C2F89430C5E71E4B1B6813F431
:10108800003FC6D101209FE01A4B1B6813F4806F04
:10109800BFD1012098E0174BDB6903F00C030C2B40
:1010A8002CD0FFF7F5FD831B41F288329342F2D929
:1010B800032089E00F4BDB6903F00C03082B1DD0DC
:1010C800FFF7E6FD801B41F288339842F2D90320EE
:1010D8007AE0084BDB6913F00C0F0FD0FFF7D8FD4F
:1010E800801B41F288339842F3D903206CE000BF9B
:1010F80000200240000C024600080246236813F054
:10110800020F0CD0A268354B1B6A03F00F039A42FA
:1011180005D232490B6A23F00F031A430A62304B97
:101128001B6803F00F03AB420AD92D4A136823F05A
:101138000F032B431360136803F00F03AB424BD12B
:10114800236813F0040F0CD0E268244B1B6A03F0E9
:1011580070039A4205D221490B6A23F070031A439F
:101168000A62236813F0080F0ED022691B4B1B6A12
:101178001B0903F070039A4206D218490B6A23F43C
:10118800E06343EA02130B62236813F0100F0CD0DC
:101198006269124B5B6A03F070039A4205D20F49E9
:1011A8004B6A23F070031A434A62FFF7D9FD0B4BD1
:1011B8001B6A03F00F030B4AD35CD8400A4B186034
:1011C8000A4B1868FFF7D8FC03B0F0BD0120704740
:1011D8000120F9E70120F7E70120F5E7000C0246B6
:1011E80000200240544C00080C0000200800002099
:1011F80008B5FFF7B5FD054B1B6A03F00F03044A5A
:10120800D35CD840034B186008BD00BF000C0246F1
:10121800544C00080C000020002800F02A85F0B586
:1012280085B004469C4BDD6905F00C059E6A06F006
:101238000306036813F0100F00F09480EDB10C2D35
:1012480019D0E369002B00F01181934A136843F029
:1012580001031360FFF71CFD07468F4B1B6813F053
:10126800040F40F0CD80FFF713FDC01B0228F4D90E
:10127800032000F001BD012EE3D1E369002B00F04B
:10128800FA84606A844B9B6813F4000F1CD0824B6D
:101298009B6803F07043984244D9E5B17E4A93684D
:1012A80043F400039360936823F07043616A0B432F
:1012B8009360636AB3F1404F14D3D36823F01F03DC
:1012C800216A0B43D36044E0734BD3F8F4301B041A
:1012D80003F07043DFE7FFF7E1FC0028DED00120D0
:1012E80000F0CABC002B0BDBB3F1804F11D36A4A64
:1012F800D36823F4F843216A43EA8123D36028E0C2
:10130800654AD36823F47873216A43EA4113D360AA
:101318001FE0614AD36823F47823216A43EAC13382
:10132800D36016E05C4A936843F4000393609368C3
:1013380023F07043616A0B439360636AB3F1404FD3
:1013480036D3D36823F01F03216A0B43D360002DE3
:101358004ED0FFF74DFF514B1868FFF70DFC0028E2
:1013680040F08A84236813F0010F00F0A080082D54
:1013780000F099800C2D00F093806368B3F5803FEE
:1013880000F0B680B3F5A02F00F0C880B3F5A81F11
:1013980000F0D280404B1A6822F480321A601A6832
:1013A80022F480221A601A6822F480121A60A4E0DB
:1013B800002B0BDBB3F1804F11D3374AD36823F4EA
:1013C800F843216A43EA8123D360C0E7324AD368ED
:1013D80023F47873216A43EA4113D360B7E72E4AAE
:1013E800D36823F47823216A43EAC133D360AEE794
:1013F800606AFFF753FC0028ABD0012000F03CBC2A
:10140800254A936843F400039360936823F070437C
:10141800616A0B439360636AB3F1404F06D3D368A4
:1014280023F01F03216A0B43D3609BE7002B0BDBE0
:10143800B3F1804F11D3184AD36823F4F843216AD3
:1014480043EA8123D3608DE7134AD36823F4787382
:10145800216A43EA4113D36084E70F4AD36823F42F
:101468007823216A43EAC133D3607BE70A4A1368C9
:1014780023F001031360FFF70BFC0746064B1B68BC
:1014880013F0040F3FF46EAFFFF702FCC01B0228F5
:10149800F4D90320F0E300BF000C02460800002046
:1014A800032E7FF46AAF6368002B00F0E78323689C
:1014B80013F0020F6BD0042D5DD00C2D59D0E368CA
:1014C800002B00F0BF80AA4A136843F480731360AE
:1014D800FFF7DEFB0546A64B1B6813F4806F40F050
:1014E800A880FFF7D5FB401B0228F4D90320C3E3EB
:1014F8009F4A136843F480331360636853B3FFF75C
:10150800C7FB07469A4B1B6813F4003FCFD1FFF780
:10151800BFFBC01B6428F5D90320ADE3944B1A68C0
:1015280042F480221A601A6822F480121A601A683B
:1015380042F480321A60E0E78D4B1A6842F4802248
:101548001A601A6842F480121A601A6842F48032EB
:101558001A60D2E7FFF79CFB0746854B1B6813F41C
:10156800003FA4D0FFF794FBC01B6428F5D90320E3
:1015780082E3022EA3D1E368002B00F081837C4A2A
:10158800136923F4F813216943EA014313612368BB
:1015980013F0080F00F0AF80754BD3F8943013F0B8
:1015A800040F63D1724BD3F8942042F00402C3F8BD
:1015B8009420D3F8943003F004030193019B012590
:1015C8006C4B9B6A13F0010F52D06369002B7AD0E1
:1015D800674BD3F8F030A16903F08052914211D0E3
:1015E80003F04062B2F1006F00F04C8313F0806F9B
:1015F80052D15F4AD2F8F03023F08053A1690B43EF
:10160800C2F8F0305A4AD2F8F03043F08063C2F89A
:10161800F030FFF73DFB0646554BD3F8F03013F09A
:10162800006F67D1FFF734FB801B0528F4D903202E
:1016380022E34F4A136923F4F813216943EA01436B
:101648001361A4E74A4A136823F480731360FFF711
:101658001FFB0546464B1B6813F4806F97D0FFF7B6
:1016680017FB401B0228F5D9032005E30025A7E74F
:10167800404A936A43F001039362FFF709FB064669
:101688003C4B9B6A13F0010F9FD1FFF701FB801BB6
:101698000228F5D90320EFE2354AD2F8F03023F0DA
:1016A800A053C2F8F030FFF7F3FA0646304BD3F8F0
:1016B800F03013F0006F9CD0FFF7EAFA801B052882
:1016C800F4D90320D8E22A4AD2F8F03023F0A05304
:1016D800C2F8F030FFF7DCFA0646254BD3F8F030B5
:1016E80013F0006F06D0FFF7D3FA801B0528F4D952
:1016F8000320C1E295BB236813F0040F00F0D980E2
:101708001B4BD3F8943013F0040F2FD1184BD3F898
:10171800942042F00402C3F89420D3F8943003F0E4
:1017280004030293029B0125124B9B6A13F0010FDD
:1017380022D0A36813F0010F3AD013F0040F2FD072
:101748000B4BD3F8F02042F00402C3F8F020D3F892
:10175800F02042F00102C3F8F02036E0044AD2F843
:10176800943023F00403C2F89430C4E70025DBE783
:10177800000C024600080246A84A936A43F0010397
:101788009362FFF785FA0646A44B9B6A13F0010F94
:10179800CFD1FFF77DFA801B0228F5D903206BE231
:1017A8009F4AD2F8F03043F00103C2F8F0300CE061
:1017B8009B4BD3F8F02022F00102C3F8F020D3F8B5
:1017C800F02022F00402C3F8F020A368002B41D0D7
:1017D800FFF75EFA0646924BD3F8F03013F0020F8B
:1017E80008D1FFF755FA801B41F288339842F2D9A5
:1017F800032041E2A36813F0800F15D0884AD2F87D
:10180800F03043F08003C2F8F030854BD3F8F03065
:1018180013F4006F4CD1FFF73BFA801B41F2883379
:101828009842F2D9032027E27D4AD2F8F03023F01B
:101838008003C2F8F0307A4BD3F8F03013F4006F1D
:1018480036D0FFF725FA801B41F288339842F2D947
:10185800032011E2FFF71CFA0646714BD3F8F0306B
:1018680013F0020F08D0FFF713FA801B41F28833F8
:101878009842F2D90320FFE1694BD3F8F03013F016
:10188800800F15D0664AD2F8F03023F08003C2F8F2
:10189800F030634BD3F8F03013F4006F08D0FFF743
:1018A800F7F9801B41F288339842F2D90320E3E12B
:1018B800CDB9236813F0200F31D0E36ADBB1584A61
:1018C800136843F480531360FFF7E2F90546544B5D
:1018D8001B6813F4005F22D1FFF7DAF9401B0228D6
:1018E800F5D90320C8E14E4AD2F8943023F0040316
:1018F800C2F89430DDE74A4A136823F48053136032
:10190800FFF7C6F90546464B1B6813F4005F06D07F
:10191800FFF7BEF9401B0228F5D90320ACE1236884
:1019280013F0800F29D0236B9BB13D4A136843F411
:1019380080431360FFF7ACF90546394B1B6813F475
:10194800004F1AD1FFF7A4F9401B0228F5D903204C
:1019580092E1334A136823F480431360FFF798F940
:1019680005462F4B1B6813F4004F06D0FFF790F97C
:10197800401B0228F5D903207EE1236813F0400FAD
:1019880064D0636B002B4DD0254A936843F4000361
:101998009360936823F07063A16A0B439360636A52
:1019A800B3F1404F19D3D36823F01F03216A0B43C7
:1019B800D3601B4A136843F010031360FFF768F9FC
:1019C8000546174B1B6813F0200F3FD1FFF760F94E
:1019D800401B0228F5D903204EE1002B0BDBB3F1A5
:1019E800804F11D30E4AD36823F4F843216A43EA9F
:1019F8008123D360DDE70A4AD36823F47873216A28
:101A080043EA4113D360D4E7054AD36823F4782323
:101A1800216A43EAC133D360CBE700BF000802461E
:101A2800000C0246A14A136823F010031360FFF765
:101A38002FF905469D4B1B6813F0200F06D0FFF7C2
:101A480027F9401B0228F5D9032015E1A36B002BC9
:101A580000F01A81954AD26902F00C020C2A00F0B3
:101A6800BC80022B14D0914A136823F08073136052
:101A7800FFF70EF904468D4B1B6813F0007F00F04A
:101A8800A380FFF705F9001B0228F4D90320F3E02F
:101A9800864A136823F080731360FFF7F9F8054648
:101AA800824B1B6813F0007F06D0FFF7F1F8401B4C
:101AB8000228F5D90320DFE07C4BD3F8943013F0EB
:101AC800040F68D1794BD3F8942042F00402C3F88C
:101AD8009420D3F8943003F004030393039B012567
:101AE800734BDB6813F4802F57D10026704AD368F4
:101AF80023F48023D3606D4B9A6A22F47F4222F04C
:101B08000302E16B206C013841EA0021606C01435B
:101B18000A439A625A6B67481040A26C013AC2F3B2
:101B28000802E16C0139490289B20A43216D013981
:101B3800090401F4FE010A43616D0139090601F047
:101B4800FE410A43104358639A6A22F010029A62CF
:101B5800E26DD2009A639A6A42F010029A629A6A17
:101B680022F00C02A16D0A439A62C6B9EDB94F4A38
:101B7800136843F080731360FFF78AF804464B4BF1
:101B88001B6813F0007F18D1FFF782F8001B0228AA
:101B9800F5D9032070E00025A2E70126A6E7444A0C
:101BA800D36843F48023D360E0E7404AD2F8943006
:101BB80023F00403C2F89430D9E73C4A936A43F40B
:101BC80080239362002057E0384A936A23F4E02385
:101BD80023F00303936200204EE0344A916A506B6D
:101BE800012B53D001F00303E26B934250D1C1F3B0
:101BF8000322236C013B9A424CD101F47041636C7F
:101C0800994249D1C0F30802A36C013B9A4245D1DD
:101C1800C0F34622E36C013B9A4241D1C0F306422D
:101C2800236D013B9A423DD1C0F30660636D013BD1
:101C3800984239D11D4B9B6BC3F3CC03E26D9342A1
:101C480001D1002018E0194A936A23F01003936227
:101C5800FFF71EF80546FFF71BF8A842FBD0E26D18
:101C6800D200124B9A639A6A42F010029A620020DC
:101C780002E001207047012005B0F0BD0120FBE71C
:101C88000120F9E70120F7E70020F5E70120F3E755
:101C98000120F1E70120EFE70120EDE70120EBE764
:101CA8000120E9E70120E7E70120E5E7000C02460B
:101CB800000802460000808008B5FFF799FA044B37
:101CC8001B6AC3F30213034AD35CD84008BD00BFA4
:101CD800000C02464C4C000808B5FFF789FA044B83
:101CE8001B6AC3F30223034AD35CD84008BD00BF74
:101CF800000C02464C4C000808B5FFF779FA044B73
:101D08005B6AC3F30213034AD35CD84008BD00BF23
:101D1800000C02464C4C000810B5824C616BC1F3B4
:101D28000801A36A03F0030CA36AC3F303235A1C34
:101D3800A36AC3F3001EA36BC3F3CC030EFB03F328
:101D480007EE903AF8EE677ABCF1020F2ED0BCF19C
:101D5800030F00F0BA80BCF1010F00F08A80714BCC
:101D68009B6813F4000F00F0CD806E4B9B681B0F2F
:101D78006D4C04EB830393ED006AB8EE466A07EEF8
:101D8800102AB8EE477AC6EE076A07EE101AB8EEC0
:101D9800477A9FED666A67EE867A77EE277AB7EE1E
:101DA800007A77EE877A66EEA77A1BE007EE102AAC
:101DB800B8EE477A9FED5E6AC6EE076A594B5B6BD1
:101DC800C3F3080307EE103AB8EE477A9FED576A57
:101DD80067EE867A77EE277AB7EE007A77EE877A1B
:101DE80066EEA77A4F4B9B6A13F4803F00F0908011
:101DF8004C4B5B6BC3F3462307EE103AB8EE477AB9
:101E0800F7EE006A37EE267AC7EE876AFCEEE66AD6
:101E1800C0ED006A434B9B6A13F4003F7BD0414BF3
:101E28005B6BC3F3064307EE103AB8EE477AF7EE5A
:101E3800006A37EE267AC7EE876AFCEEE66AC0EDDE
:101E4800016A384B9B6A13F4802F67D0354B5B6B64
:101E5800C3F3066307EE103AB8EE477AF7EE006A66
:101E680037EE267AC7EE876AFCEEE66AC0ED026AAC
:101E780010BD2C4B9B6813F4000F20D0294B9B6896
:101E88001B0F294C04EB830393ED006AB8EE466AF6
:101E980007EE102AB8EE477AC6EE076A07EE101A60
:101EA800B8EE477A9FED216A67EE867A77EE277A51
:101EB800B7EE007A77EE877A66EEA77A92E7194B43
:101EC800D3F8F430C3F30333DBE707EE102AB8EE98
:101ED800477A9FED176AC6EE076A124B5B6BC3F32E
:101EE800080307EE103AB8EE477A9FED106A67EEDE
:101EF800867A77EE277AB7EE007A77EE877A66EEFB
:101F0800A77A6FE7074BD3F8F430C3F303332FE70F
:101F1800002303607EE70023436092E70023836089
:101F2800A6E700BF000C02460C4C00080000003970
:101F38000024744B10B5824CE16BC1F30801E36ACD
:101F480003F0030CE36AC3F303235A1CE36AC3F3E5
:101F5800001E236CC3F3CC030EFB03F307EE903A89
:101F6800F8EE677ABCF1020F2ED0BCF1030F00F037
:101F7800BA80BCF1010F00F08A80714B9B6813F4A2
:101F8800000F00F0CD806E4B9B681B0F6D4C04EB6F
:101F9800830393ED006AB8EE466A07EE102AB8EE9E
:101FA800477AC6EE076A07EE101AB8EE477A9FED31
:101FB800666A67EE867A77EE277AB7EE007A77EE6A
:101FC800877A66EEA77A1BE007EE102AB8EE477A02
:101FD8009FED5E6AC6EE076A594BDB6BC3F30803D5
:101FE80007EE103AB8EE477A9FED576A67EE867AA1
:101FF80077EE277AB7EE007A77EE877A66EEA77AD9
:102008004F4BDB6A13F4803F00F090804C4BDB6B46
:10201800C3F3462307EE103AB8EE477AF7EE006AA4
:1020280037EE267AC7EE876AFCEEE66AC0ED006AEC
:10203800434BDB6A13F4003F7BD0414BDB6BC3F3AC
:10204800064307EE103AB8EE477AF7EE006A37EE25
:10205800267AC7EE876AFCEEE66AC0ED016A384B5D
:10206800DB6A13F4802F67D0354BDB6BC3F3066351
:1020780007EE103AB8EE477AF7EE006A37EE267A9E
:10208800C7EE876AFCEEE66AC0ED026A10BD2C4B0B
:102098009B6813F4000F20D0294B9B681B0F294C19
:1020A80004EB830393ED006AB8EE466A07EE102A44
:1020B800B8EE477AC6EE076A07EE101AB8EE477A06
:1020C8009FED216A67EE867A77EE277AB7EE007A77
:1020D80077EE877A66EEA77A92E7194BD3F8F43051
:1020E800C3F30333DBE707EE102AB8EE477A9FED18
:1020F800176AC6EE076A124BDB6BC3F3080307EED9
:10210800103AB8EE477A9FED106A67EE867A77EE56
:10211800277AB7EE007A77EE877A66EEA77A6FE7C6
:10212800074BD3F8F430C3F303332FE700230360DE
:102138007EE70023436092E700238360A6E700BFA1
:10214800000C02460C4C0008000000390024744BB7
:1021580010B5824C616CC1F30801236B03F0030CCA
:10216800236BC3F303235A1C236BC3F3001EA36C16
:10217800C3F3CC030EFB03F307EE903AF8EE677A4D
:10218800BCF1020F2ED0BCF1030F00F0BA80BCF1F5
:10219800010F00F08A80714B9B6813F4000F00F068
:1021A800CD806E4B9B681B0F6D4C04EB830393ED46
:1021B800006AB8EE466A07EE102AB8EE477AC6EE0D
:1021C800076A07EE101AB8EE477A9FED666A67EE5F
:1021D800867A77EE277AB7EE007A77EE877A66EE18
:1021E800A77A1BE007EE102AB8EE477A9FED5E6AE1
:1021F800C6EE076A594B5B6CC3F3080307EE103A47
:10220800B8EE477A9FED576A67EE867A77EE277AB7
:10221800B7EE007A77EE877A66EEA77A4F4B1B6B9C
:1022280013F4803F00F090804C4B5B6CC3F3462363
:1022380007EE103AB8EE477AF7EE006A37EE267ADC
:10224800C7EE876AFCEEE66AC0ED006A434B1B6B7B
:1022580013F4003F7BD0414B5B6CC3F3064307EE9E
:10226800103AB8EE477AF7EE006A37EE267AC7EEEC
:10227800876AFCEEE66AC0ED016A384B1B6B13F403
:10228800802F67D0354B5B6CC3F3066307EE103ABB
:10229800B8EE477AF7EE006A37EE267AC7EE876A15
:1022A800FCEEE66AC0ED026A10BD2C4B9B6813F485
:1022B800000F20D0294B9B681B0F294C04EB83038C
:1022C80093ED006AB8EE466A07EE102AB8EE477A30
:1022D800C6EE076A07EE101AB8EE477A9FED216A34
:1022E80067EE867A77EE277AB7EE007A77EE877A06
:1022F80066EEA77A92E7194BD3F8F430C3F30333A9
:10230800DBE707EE102AB8EE477A9FED176AC6EEAC
:10231800076A124B5B6CC3F3080307EE103AB8EE7A
:10232800477A9FED106A67EE867A77EE277AB7EEDE
:10233800007A77EE877A66EEA77A6FE7074BD3F8CD
:10234800F430C3F303332FE7002303607EE7002351
:10235800436092E700238360A6E700BF000C0246B3
:102368000C4C0008000000390024744B00B58BB0F9
:10237800A0F500430B4300F0308348F20103984274
:1023880071F1000380F0D680A0F180030B4300F0C8
:10239800E783812871F100032DD3A0F500630B4377
:1023A80000F0798440F60103984271F1000380F04F
:1023B800A180A0F500730B4300F0B684A0F58063FC
:1023C8000B4300F0FA84A0F58070084340F0908039
:1023D800B24BD3F8E83003F0C003802B00F014842C
:1023E80000F2F483002B00F00784402B40F0EC83CC
:1023F800FEF7B6FC0FE0212871F1000354D250EA31
:10240800010300F05186013841F1FF31202871F1B4
:10241800000103D300200BB05DF804FB1F28F9D896
:1024280001A353F820F000BF492800081D24000824
:102438001D2400088D2800081D2400081D240008FC
:102448001D240008D12800081D2400081D240008A8
:102458001D2400081D2400081D2400081D24000850
:102468001D240008152900081D2400081D24000843
:102478001D2400081D2400081D2400081D24000830
:102488001D2400081D2400081D2400081D24000820
:102498001D2400081D2400081D2400081D24000810
:1024A8001D2400086F290008403808431ED17B4BC3
:1024B800D3F8E03013F4406300F03B83B3F5806F4A
:1024C80000F03A83754A126812F4806F03D0B3F5AE
:1024D800006F00F04686714A106810F020009AD00C
:1024E800B3F5406F00F02B83002094E7002092E7BB
:1024F800002090E7A0F580530B4300F01E81A0F563
:102508000050084314D1654BD3F8E43003F0E003DE
:10251800402B00F0088100F2F780002B00F00881C2
:10252800202B40F0EF8001A8FFF712FE019872E718
:10253800002070E7A0F580030B4300F07483584B2C
:10254800984271F100032CD300F17C430B4300F057
:102558004C85544B984271F1000374D200F17F43CB
:102568000B4300F0B58400F17E430B4300F0F08488
:10257800A0F50000084364D1484BD3F8E03003F4D9
:102588004013B3F5001F00F08D8400F26E84002B19
:1025980000F08484B3F5801F40F06484FEF7E0FB0C
:1025A80039E7A0F500230B4300F05C853E4B9842C9
:1025B80071F100031DD2A0F500330B4300F07C82BB
:1025C800A0F580230B4371D0A0F5803008430ED1CD
:1025D800324BD3F8E43003F00703042B00F2BA853A
:1025E800DFE813F04F0245024A024202520200207D
:1025F80011E7A0F580130B4300F0B680A0F500109A
:1026080008431CD1254BD3F8E40010F4804040F077
:102618001281D3F8E03003F04063B3F1006F00F0AB
:10262800F78000F2DF80002B00F0F780B3F1806FB5
:102638007FF4F1AE04A8FFF77DFC0598EBE60020D7
:10264800E9E60020E7E600F178430B4300F0E98370
:1026580000F1704008431ED1104AD2F8E83003F464
:102668000043D2F8F02012F0020F02D0002B00F045
:10267800BE850A4AD2F8F00010F000603FF4CBAEF5
:10268800002B00F0B885D2F8F03013F0805F00F02E
:10269800B585FA20BFE60020BDE600BF000C024663
:1026A800010040000100000401000800A84AD2F817
:1026B800F03003F44073D2F8F02012F0020F03D088
:1026C800B3F5807F00F0F384A14AD2F8F02012F02D
:1026D800006F02D0B3F5007F0BD09D4A126812F448
:1026E800003F00F0EC84B3F5407F00F0EB8400205D
:1026F80091E6974BD3F8F03013F0805F00F0DB845D
:10270800FA2088E6002086E6602B00F0DE84802B25
:1027180007D18F4B186810F480603FF47CAE8D4869
:1027280079E6002077E607A8FFF7F6FA079872E639
:1027380004A8FFF7FFFB04986DE6854AD2F8E43059
:1027480003F40063126812F4806F02D0002B00F0CB
:10275800C0847F4A126812F4806F00F0BD84002B99
:1027680040F0BD84002056E6794BD3F8E03003F002
:102778004063B3F1006F22D00AD82BB3B3F1806F56
:1027880004D104A8FFF7D6FB059844E6002042E6EA
:10279800B3F1406F11D16E4B186810F020003FF470
:1027A8003AAE9B6813F4000F16D0694B9B68C3F3CD
:1027B8000363694A52F823002DE600202BE607A898
:1027C800FFF7AAFA089826E6614B186810F400503B
:1027D8003FF421AE61481EE65D4BD3F8F430C3F3F5
:1027E8000323E6E7B3F1406F7FF415AE584B186842
:1027F80010F020003FF40FAE9B6813F4000F14D0C4
:10280800534B9B68C3F30363534A52F8230002E611
:1028180007A8FFF781FA0898FDE54D4B186810F4F2
:1028280000503FF4F8AD4D48F5E5494BD3F8F43086
:10283800C3F30323E8E707A8FFF76EFA0798EAE56A
:10284800434BD3F8E03013F0030315D0012B16D017
:102858003F4A126812F4806F02D0022B00F04284C3
:102868003B4AD2F8F02012F0020F00F03E84032B0E
:1028780000F03E840020CEE5FFF72EFACBE5FEF708
:102888006FFAC8E5324BD3F8E03013F0300315D0B7
:10289800102B16D02E4A126812F4806F02D0202B0B
:1028A80000F02A842A4AD2F8F02012F0020F00F031
:1028B8002684302B00F026840020ACE5FFF7FCF9D5
:1028C800A9E5FEF74DFAA6E5214BD3F8E03013F061
:1028D800C00315D0402B16D01D4A126812F4806F21
:1028E80002D0802B00F01284194AD2F8F02012F09E
:1028F800020F00F00E84C02B00F00E8400208AE541
:10290800FFF7DAF987E5FEF72BFA84E5104BD3F8E1
:10291800E03013F4407318D0B3F5807F20D00C4A10
:10292800126812F4806F03D0B3F5007F00F0F883CB
:10293800074AD2F8F02012F0020F00F0F483B3F542
:10294800407F00F0F383002065E5FFF7B5F962E505
:10295800000C02460024F4000C4C0008006CDC0259
:10296800FEF7FEF957E5A64BD3F8E83013F0070356
:102978001CD0012B1DD0A24A126812F4806F02D01D
:10298800022B00F0D7839E4AD2F8F02012F0020FF3
:1029980002D0032B00F0D183994A106810F0200070
:1029A8003FF439AD042B07D0002034E5FFF7A4F934
:1029B80031E5FEF7D5F92EE5936813F4000F06D03C
:1029C8009368C3F303638F4A52F8230023E58C4BC3
:1029D800D3F8F430C3F30323F5E7894BD3F8E83091
:1029E80003F4E043B3F5805F1BD0B3F5005F1BD061
:1029F800FBB1B3F5A04F1FD0814A126812F4003F13
:102A080003D0B3F5405F00F09C837D4A126812F44E
:102A1800806F00F09983B3F5804F00F09883002011
:102A2800F9E4FEF79DF9F6E404A8FFF783FA06989F
:102A3800F1E4FEF7DDFBEEE4714B186810F02000BE
:102A48003FF4E9AC9B6813F4000F07D06C4B9B680C
:102A5800C3F303636B4A52F82300DCE4684BD3F8F2
:102A6800F430C3F30323F5E74BF68030D3E407A82B
:102A7800FFF752F90798CEE401A8FFF769FB02981F
:102A8800C9E4FEF7B5FBC6E45D4B186810F02000FA
:102A98003FF4C1AC9B6813F4000F07D0584B9B68F8
:102AA800C3F30363574A52F82300B4E4544BD3F8F2
:102AB800F430C3F30323F5E7514BD3F8E83003F4BC
:102AC800E023B3F5003F26D00AD84BB3B3F5803FD7
:102AD80004D107A8FFF720F907989CE400209AE49E
:102AE800B3F5403F00F03983B3F5802F11D1444B43
:102AF800186810F020003FF48EAC9B6813F4000FA8
:102B080011D03F4B9B68C3F303633E4A52F823003E
:102B180081E400207FE401A8FFF71AFB02987AE419
:102B2800FEF766FB77E4364BD3F8F430C3F30323A0
:102B3800EBE7FFF7C1F86EE4FEF712F96BE4936870
:102B480013F4000F06D09368C3F303632D4A52F8B9
:102B5800230060E42A4BD3F8F430C3F30323F5E7EA
:102B6800274BD3F8E03013F4405316D0B3F5805F09
:102B780016D0234A126812F4806F03D0B3F5005FB1
:102B880000F0F2821E4A106810F020003FF443ACB7
:102B9800B3F5405F07D000203DE4FFF78DF83AE435
:102BA800FEF7DEF837E4936813F4000F06D0936855
:102BB800C3F30363134A52F823002CE4104BD3F8F1
:102BC800F430C3F30323F5E7002024E4C02B11D12C
:102BD8000B4B186810F020003FF41DAC9B6813F4F1
:102BE800000F1AD0064B9B68C3F30363054A52F8DB
:102BF800230010E400200EE4FFF77EF80BE400BF8A
:102C0800000C02460C4C0008AE4B186810F48060AB
:102C18003FF401ACAC48FFF7FEBBAA4BD3F8F43045
:102C2800C3F30323E2E7A74BD3F8E03013F44043A0
:102C380017D0B3F5804F18D0A24A126812F4806FEB
:102C480003D0B3F5004F00F092829E4A106810F04E
:102C580020003FF4E0ABB3F5404F0AD00020FFF767
:102C6800DABBFFF729F8FFF7D6BBFEF779F8FFF7CD
:102C7800D2BB936813F4000F07D09368C3F30363C0
:102C8800924A52F82300FFF7C6BB8E4BD3F8F430B4
:102C9800C3F30323F4E78B4BD3F8E83013F4407302
:102CA80018D1884B186810F020003FF4B4AB9B682B
:102CB80013F4000F08D0834B9B68C3F30363834A64
:102CC80052F82300FFF7A7BB7E4BD3F8F430C3F3C9
:102CD8000323F4E77B4AD2F8F02012F0006F02D009
:102CE800B3F5807F16D0774A126812F4806F03D04C
:102CF800B3F5007F00F04282724AD2F8F02012F059
:102D0800020F00F03E82B3F5407F00F03D820020C4
:102D1800FFF781BB6B4BD3F8F03013F0805F00F006
:102D28002982FA20FFF777BB664BD3F8E83013F413
:102D3800406318D1634B186810F020003FF46BAB68
:102D48009B6813F4000F08D05E4B9B68C3F30363C2
:102D58005E4A52F82300FFF75EBB5A4BD3F8F430B3
:102D6800C3F30323F4E7574AD2F8F02012F0006FB8
:102D780002D0B3F5806F16D0524A126812F4806FF1
:102D880003D0B3F5006F00F007824E4AD2F8F02066
:102D980012F0020F00F00382B3F5406F00F00282D8
:102DA8000020FFF738BB474BD3F8F03013F0805FB3
:102DB80000F0EE81FA20FFF72EBB424BD3F8E0304B
:102DC80013F440231FD03F4AD2F8F02012F0006FCE
:102DD80002D0B3F5802F1AD03A4A126812F4806FE5
:102DE80003D0B3F5002F00F0E581364AD2F8F02081
:102DF80012F0020F00F0E181B3F5402F00F0E081FE
:102E08000020FFF708BBFEF757FFFFF704BB2D4B69
:102E1800D3F8F03013F0805F00F0C881FA20FFF794
:102E2800FABA284AD2F8E03003F04073126812F474
:102E3800003F02D0002B00F0D181B3F1807F05D094
:102E4800B3F1007F08D00020FFF7E5BA07A8FEF726
:102E580063FF0898FFF7DFBA04A8FFF76BF8049838
:102E6800FFF7D9BA0020FFF7D6BAB3F5401F12D141
:102E7800144B186810F020003FF4CDAA9B6813F497
:102E8800000F18D00F4B9B68C3F303630F4A52F827
:102E98002300FFF7C0BA0020FFF7BDBAFEF71CFFFA
:102EA800FFF7B9BA074B186810F480603FF4B3AA6B
:102EB8000548FFF7B0BA034BD3F8F430C3F3032344
:102EC800E4E700BF000C02460024F4000C4C0008A4
:102ED800BD4BD3F8E03003F44033B3F5003F28D0BE
:102EE8000AD813B3B3F5803F03D1FDF739FFFFF7D5
:102EF80092BA0020FFF78FBAB3F5403F12D1B24B18
:102F0800186810F020003FF486AA9B6813F4000F9D
:102F180018D0AD4B9B68C3F30363AC4A52F8230047
:102F2800FFF779BA0020FFF776BAFEF7C5FEFFF77C
:102F380072BAA54B186810F480603FF46CAAA448D4
:102F4800FFF769BAA04BD3F8F430C3F30323E4E7DF
:102F58009D4BD3F8E83003F01803182B00F2418199
:102F6800DFE813F019003F013F013F013F013F0136
:102F78003F013F011D003F013F013F013F013F016C
:102F88003F013F0121003F013F013F013F013F0158
:102F98003F013F012A00FEF7AFFEFFF73CBAFDF7FD
:102FA800DFFEFFF738BA884B186810F480603FF4EA
:102FB80032AA8748FFF72FBA834B186810F0200011
:102FC8003FF429AA9B6813F4000F08D07E4B9B6836
:102FD800C3F303637D4A52F82300FFF71CBA7A4B08
:102FE800D3F8F430C3F30323F4E7774BD3F8E43092
:102FF80003F44013B3F5001F24D019D843B3B3F535
:10300800801F12D1704B186810F020003FF403AAFB
:103018009B6813F4000F1FD06B4B9B68C3F30363CB
:103028006A4A52F82300FFF7F6B90020FFF7F3B910
:10303800B3F5401F40F0D88004A8FEF77BFF059841
:10304800FFF7E9B907A8FEF767FE0898FFF7E3B9A5
:10305800FDF786FEFFF7DFB95B4BD3F8F430C3F317
:103068000323DDE7584AD2F8E43003F440531268EA
:1030780012F4005F02D0002B00F0C480524A12689C
:1030880012F4005F03D0B3F5805F00F0BE804E4AB3
:10309800126812F4806F00F0BB80B3F5005F00F097
:1030A800BA800020FFF7B7B90020FFF7B4B94FF492
:1030B8000040FFF7B0B94FF4FA40FFF7ACB9002071
:1030C800FFF7A9B94348FFF7A6B94BF68030FFF7D9
:1030D800A2B93F48FFF79FB90020FFF79CB93E48C7
:1030E800FFF799B93A48FFF796B90020FFF793B967
:1030F8004FF40040FFF78FB93548FFF78CB900202F
:10310800FFF789B94FF40040FFF785B93048FFF75A
:1031180082B90020FFF77FB94FF40040FFF77BB971
:103128002B48FFF778B90020FFF775B94FF4004036
:10313800FFF771B92648FFF76EB94FF40040FFF763
:103148006AB92348FFF767B90020FFF764B9204838
:10315800FFF761B90020FFF75EB94BF68030FFF743
:103168005AB91B48FFF757B91948FFF754B9184817
:10317800FFF751B94FF4FA40FFF74DB91448FFF77C
:103188004AB90020FFF747B94FF40040FFF743B9A9
:103198004FF4FA40FFF73FB90D48FFF73CB900205C
:1031A800FFF739B94FF40040FFF735B94FF4FA404B
:1031B800FFF731B90648FFF72EB90020FFF72BB902
:1031C8004FF40040FFF727B9000C02460C4C0008EA
:1031D8000024F40020A1070000127A000F48FFF72E
:1031E8001AB90020FFF717B90020FFF714B94FF4F8
:1031F8000040FFF710B91846FFF70DB94FF4FA4031
:10320800FFF709B90648FFF706B90648FFF703B9FB
:103218000020FFF700B90148FFF7FDB80024F400CB
:10322800006CDC0200366E01F0B504460023DAE0DB
:10323800056825EA0C054C6804F001049C402C4301
:1032480004607F4D55F8334005EBC3056D68EF0802
:10325800083754F8276005F0070C4FEA8C0C4FF03C
:103268000F0E0EFA0CFE26EA0E0E0B2606FA0CF6C8
:1032780046EA0E0644F8276027684FEA450C0326FD
:1032880006FA0CF627EA0607022606FA0CF63E436B
:10329800266021E0DE08083650F8265003F00707BC
:1032A800BF004FF00F0C0CFA07FC25EA0C0C0D6957
:1032B80005F00F05BD4045EA0C0540F82650266884
:1032C8005F000325BD4026EA05064D6805F00305A5
:1032D800BD40354325601D464E6806F1FF3CBCF1F4
:1032E800010F03D9112E01D0122E1CD1A6684FEA66
:1032F800450E4FF0030C0CFA0EFC26EA0C0CCE68B7
:1033080006FA0EF646EA0C06A66066684FF0010C4F
:103318000CFA05FC26EA0C0C4E68C6F30016AE4003
:1033280046EA0C0666604E68032E00F08280E66866
:103338006D004FF0030C0CFA05FC26EA0C0C8E68A5
:10334800AE4046EA0C06E6604D6815F0805F49D04D
:103358009E083C4F183657F8265003F0030C4FEAE6
:10336800CC0C4FF00F0E0EFA0CFE25EA0E0E364D61
:1033780005EA902505FA0CF545EA0E0547F82650AA
:103388003E686FEA020C26EA02074D6815F4801FB2
:1033980001D042EA06072B4E376076680CEA06072A
:1033A8004D6815F4001F01D042EA0607254E7760E4
:1033B800D6F884600CEA06074D6815F4003F01D082
:1033C80042EA06071F4EC6F88470D6F880600CEAF9
:1033D80006054F6817F4803F01D042EA0605194AEE
:1033E800C2F8805001330A6832FA03F526D04FF04C
:1033F800010C0CFA03FC1CEA0202F3D0134DA8429C
:103408003FF416AF4D68022D3FF444AF122D3FF440
:1034180041AF26684FEA430C032707FA0CF726EA60
:10342800070605F0030505FA0CF5354325601D462A
:1034380052E78E68012E7FF47AAF85E7F0BD00BFB2
:10344800744B0008002002467F7F2F0000000246D0
:103458000AB18161704781627047436901EA0302DA
:1034680021EA030141EA024181617047012906D03E
:10347800022907D049B94260826008467047426015
:10348800002070478260002070470120704710B10B
:1034980001600020704701207047000070B50646A3
:1034A8000368C3F3004403F01F0301259D40640132
:1034B800084BE2582A4203D0E550436803B19847C5
:1034C800054BE2582A4203D0E550B36803B1984748
:1034D80070BD00BF0C20024610200246244BDB6B57
:1034E80003F44033834219D0B0F5803F20D9204AF5
:1034F800D36823F4E023034343F48023D3601D4BB4
:103508001B681D4AA2FB03139B09322101FB03F32D
:10351800A2FB03239B0901331A4611E0B0F5803F53
:1035280004D9134AD36843F48023D360002070473A
:103538000F4AD36823F4E0230343D360DFE7013A5B
:103548000B49C96811F4004F01D1002AF7D112B90B
:1035580003207047013B064AD26B12F4004F01D199
:10356800002BF7D10BB1002070470320704700BF34
:10357800000802460C000020D34D6210024BD86BA5
:1035880000F44030704700BF00080246174B1B6824
:10359800174AA2FB03139B09322101FB03F3A2FB89
:1035A80003239B09013380B912498A6822F0020279
:1035B8008A6000E0013B0F4AD26B12F0020F01D083
:1035C800002BF7D183B1002070470A498A6842F07E
:1035D80002028A6000E0013B064AD26B12F0020F39
:1035E800F0D1002BF7D1EDE7032070470C00002045
:1035F800D34D621000080246026852E8003F23F4E7
:10360800907342E800310029F6D1026802F10803FC
:1036180053E8003F23F0805323F00103083242E8C7
:1036280000310029F1D1C36E012B06D02023C0F848
:103638008C300023C36643677047026852E8003F36
:1036480023F0100342E800310029F6D1EEE7704775
:1036580070B50446016883680269134342691343DD
:10366800C26913430868674A02401A430A6022681D
:10367800536823F44053E1680B435360A1692268FF
:10368800614B9A4205D003F180539A4201D0236AD4
:103698001943936823F06E4323F430630B4393601C
:1036A8002268D36A23F00F03616A0B43D36223684D
:1036B800564A934212D0A2F57042934235D002F591
:1036C8008062934233D002F58062934231D04E4AF1
:1036D800934201D0002002E0202000E001204A4A65
:1036E800934228D002F18052934224D0E369B3F583
:1036F800004F4FD00021FEF739FE00287ED0616AC6
:10370800434A32F81120B0FBF2F3626803EB52032C
:10371800B3FBF2F3A3F110014FF6EF7291426FD8A9
:1037280022689BB2D360002055E00420D7E7082028
:10373800D5E71020D3E70021FEF718FE0146002840
:1037480048D0626A324B33F81220B0FBF2F3656856
:1037580005EB4500984247D8B3EB053F46D800260D
:10376800334608463146FCF783FD090241EA1061F9
:1037780000026B08C0182A46334641F10001FCF7E5
:1037880077FDA0F54072234B9A4231D82368D86060
:10379800304620E00021FEF7E9FD58B3616A1C4A73
:1037A80032F81120B0FBF2F261684B0803EB4203D8
:1037B800B3FBF1F3A3F110014FF6EF7291421BD85E
:1037C8009AB222F00F02C3F3420313432268D36074
:1037D800002000E000200123A4F86A30A4F8683033
:1037E80000236367A36770BD0120F4E70120F2E7B7
:1037F8000120F0E70020EEE70120ECE70020EAE7EF
:103808000120E8E7F369FFCF0024004600380140B3
:10381800F44B0008FFFC0F00836A13F0080F06D072
:103828000268536823F40043816B0B435360836A37
:1038380013F0010F06D00268536823F40033C16AFD
:103848000B435360836A13F0020F06D00268536873
:1038580023F48033016B0B435360836A13F0040F26
:1038680006D00268536823F48023416B0B435360EE
:10387800836A13F0100F06D00268936823F480530C
:10388800C16B0B439360836A13F0200F06D0026864
:10389800936823F40053016C0B439360836A13F01D
:1038A800400F0AD00268536823F48013416C0B431D
:1038B8005360436CB3F5801F0BD0836A13F0800FFD
:1038C80006D00268536823F40023C16C0B4353608D
:1038D80070470268536823F4C003816C0B4353603C
:1038E800EBE72DE9F84305460E4617469946DDF8FD
:1038F80020802B68DC6936EA04040CBF012400240C
:10390800BC4236D1B8F1FF3FF3D0FDF7C1F9A0EBC7
:103918000900404530D8B8F1000F2FD02B681A683D
:1039280012F0040FE5D0802EE3D0402EE1D0DA6902
:1039380012F0080F11D1DA6912F4006FD9D04FF4E0
:1039480000621A622846FFF757FE2023C5F8903018
:10395800002385F8843003200CE008241C622846E4
:10396800FFF74AFEC5F89040002385F8843001200F
:1039780000E00020BDE8F8830320FBE70320F9E717
:103988002DE9F04182B01E46D0F88830202B5AD15C
:1039980004460D469046002959D00AB9012053E043
:1039A8000023C0F890302123C0F88830FDF770F963
:1039B8000746A4F85480A4F85680A368B3F5805F3E
:1039C80002D04FF0000816E0236943B34FF0000817
:1039D80011E02023C4F88830032035E038F8023B92
:1039E8002268C3F308039362B4F8562092B2013AEE
:1039F80092B2A4F85620B4F856309BB293B1009610
:103A08003B46002280212046FFF76BFF0028E0D1CB
:103A1800002DE3D015F8012B23689A62E4E7A84645
:103A28000025E8E700963B46002240212046FFF7A4
:103A380058FF18B92023C4F8883005E02023C4F8BB
:103A48008830032000E0022002B0BDE8F0810120A8
:103A5800FAE730B583B004460023C0F89030FDF78C
:103A680017F905462268126812F0080F10D123686A
:103A78001B6813F0040F28D12023C4F88830C4F839
:103A88008C300020E066206784F8840003B030BDE5
:103A98006FF07E430093034600224FF40011204646
:103AA800FFF71FFF0028E2D0226852E8003F23F00A
:103AB800800342E800310029F6D12023C4F8883079
:103AC800002384F884300320E0E76FF07E430093FE
:103AD8002B4600224FF480012046FFF702FF002802
:103AE800CAD0226852E8003F23F4907342E80031BC
:103AF8000029F6D1226802F1080353E8003F23F0B9
:103B08000103083242E800310029F3D12023C4F828
:103B18008C30002384F884300320B7E778B310B5DD
:103B28000446D0F888300BB32423C4F888302268C0
:103B3800136823F001031360A36AE3B92046FFF773
:103B480087FD012811D02268536823F490435360FD
:103B58002268936823F02A0393602268136843F06D
:103B6800010313602046FFF774FF10BD80F884300E
:103B7800FFF76DFDD8E72046FFF74EFEDEE7012090
:103B8800704700000E48D0F8883043F47003C0F83E
:103B980088300C4B01221A600022DA611A625A62DC
:103BA800196821F0A85121F4102119609A62196846
:103BB80021F4802119601A654FF000638360704713
:103BC80000ED00E0000C024610B503460C4A0D4912
:103BD8000D48006840B10C4800680344521A9342EB
:103BE80006D8094A136010BD0748084C0460F2E77C
:103BF80000F0C8F90C2303604FF0FF30F3E700BF73
:103C08000000042000040000440100209802002065
:103C180070B50C461646002506E0AFF30080214635
:103C280001F8010B01350C46B542F6DB304670BD94
:103C380070B50C461646002504E014F8010BFCF795
:103C480097FE0135B542F8DB304670BD4FF0FF30C6
:103C580070474FF400534B600020704701207047B5
:103C6800002070470D488546FFF78CFF0C480D492A
:103C78000D4A002302E0D458C4500433C4188C42BF
:103C8800F9D30A4A0A4C002301E013600432A24225
:103C9800FBD300F07DF9FCF7FDFCFEE700000420F3
:103CA800000000206C000020A84C00086C000020D8
:103CB80094020020FEE70000002310B5044683604C
:103CC800818119464366C28108228361C0E90033B5
:103CD800C0E904335C3000F006F90D4B24626362DE
:103CE8000C4BA3620C4BE3620C4B23630C4B9C42C2
:103CF80006D003F16802944202D0D0339C4205D129
:103D080004F15800BDE8104000F066B910BD00BFCE
:103D1800693E00088B3E0008C33E0008E73E0008E5
:103D280048010020024A0349034800F069B800BF6F
:103D380010000020854800082000002041680C4B36
:103D4800994210B5044601D000F098FDA168094BCE
:103D5800994202D0204600F091FDE168064B994255
:103D680004D02046BDE8104000F088BD10BD00BF5B
:103D780048010020B00100201802002010B50B4BAC
:103D880004210B4C0B4A20461A600022FFF794FFCF
:103D980004F1680001220921FFF78EFF04F1D00029
:103DA80002221221BDE81040FFF786BF80020020E2
:103DB800480100202D3D0008014800F00EB900BF61
:103DC80089020020014800F009B900BF89020020DB
:103DD80010B50446FFF7F0FF236A1BB1BDE8104099
:103DE800FFF7F0BF044B2362044B1B68002BF5D18F
:103DF800FFF7C4FFF2E700BF453D0008800200203E
:103E08002DE9F8430746884614460026D4E901956B
:103E1800B9F1010905D52468002CF7D13046BDE871
:103E2800F883AB89012B07D9B5F90E30013303D0DC
:103E380029463846C04706436835E9E70FB407B551
:103E4800064904AB086853F8042B8168019300F015
:103E5800E9F903B05DF804EB04B070471C000020DA
:103E680010B50C46B1F90E1000F068F80028ABBF89
:103E7800636DA3891B1823F48053ACBF6365A381CA
:103E880010BD2DE9F0411F468B8905460C46DB0520
:103E9800164605D502230022B1F90E1000F03CF8B1
:103EA800A3893246B4F90E10284623F48053A3811F
:103EB8003B46BDE8F04100F053B810B50C46B1F9E7
:103EC8000E1000F029F8431CA38915BF606523F480
:103ED800805343F48053A38118BFA38110BDB1F967
:103EE8000E1000F009B802440346934200D170470F
:103EF80003F8011BF9E7000038B50023054D044617
:103F080008462B60FFF7A2FE431C02D12B6803B1C1
:103F1800236038BD8402002038B50446064D0846A3
:103F2800114600222A601A46FFF79AFE431C02D166
:103F38002B6803B1236038BD8402002038B50446DD
:103F4800064D0846114600222A601A46FFF760FE11
:103F5800431C02D12B6803B1236038BD84020020C2
:103F680038B50446064D0846114600222A601A460E
:103F7800FFF75EFE431C02D12B6803B1236038BDF6
:103F880084020020014B1868704700BF1C00002005
:103F980070B50D4D00260D4C641BA410A64209D126
:103FA8000B4D00260B4C00F0C7FD641BA410A64265
:103FB80005D170BD55F8043B01369847EEE755F832
:103FC800043B01369847F2E7A04C0008A04C0008D3
:103FD800A04C0008A44C00087047704770470000C8
:103FE80038B50546002941D051F8043C0C1F002B78
:103FF800B8BFE41800F0E0F81D4A136833B96360ED
:1040080014602846BDE8384000F0DCB8A34208D95F
:10401800206821188B4201BF19685B680918216064
:10402800EDE71A465B680BB1A342FAD9116850183C
:10403800A0420BD120680144501811608342E0D19E
:1040480018685B68084453601060DAE702D90C23EB
:104058002B60D6E7206821188B4202BF19685B687D
:104068000918636008BF21605460CAE738BD00BF03
:104078009002002070B50F4E0C460546316811B904
:1040880000F0B8FC30602146284600F0B3FC431C21
:1040980003D14FF0FF34204670BDC41C24F0030444
:1040A800A042F8D0211A284600F0A4FC0130F2D131
:1040B800EFE700BF8C0200202DE9F843CD1C06462F
:1040C80025F0030508350C2D38BF0C25002D01DB24
:1040D800A94204D90C2333600020BDE8F883DFF837
:1040E800D48000F069F8D8F800301C4644BB294653
:1040F8003046FFF7BFFF431C044658D1D8F80040AC
:104108002746002F43D1002C4BD023683946304630
:1041180004EB030900F06EFC814542D1216830466A
:104128006D1A2946FFF7A6FF01303AD023682B44C1
:104138002360D8F800305A6862BBC8F800700FE0F6
:104148002268521B20D40B2A17D96119A342256073
:1041580018BF5960636808BFC8F8001062514B6007
:10416800304600F02FF804F10B00231D20F0070063
:10417800C21A1CBF1B1AA350AFE76268A3420CBF48
:10418800C8F800205A60EBE723466468AEE73C466F
:104198007F68B6E71A465B68A342FBD100235360E9
:1041A800DEE70C233046336000F00CF894E7056036
:1041B800D6E700BF900200200148FFF70EBF00BFFE
:1041C800880200200148FFF709BF00BF88020020CD
:1041D8009368013B002B10B4936008DA9469A342FA
:1041E80001DB0A2903D15DF8044B00F06FBB1368AB
:1041F800581C1060084619705DF8044B7047F8B5F4
:1042080006460F461446D518AC4201D1002007E0F7
:104218003A4614F8011B3046FFF7DAFF431CF3D186
:10422800F8BD00002DE9F04F0D469DB014469846A4
:10423800064618B1036A0BB9FFF7CAFD6B6ED907BA
:1042480005D4AB899A0502D4A86DFFF7C6FEAB89E1
:104258001B0701D52B699BB92946304600F074FB32
:1042680070B16B6EDC0704D54FF0FF301DB0BDE8B0
:10427800F08FAB899805F7D4A86DFFF7AFFEF3E789
:104288000023CDF80C804FF00109DFF8B4810993C1
:1042980020238DF8293030238DF82A3023469A467A
:1042A80013F8012B0AB1252AF9D1BAEB040B0BD06C
:1042B8005B46224629463046FFF7A1FF013000F051
:1042C800A780099A5A4409929AF80030002B00F006
:1042D8009F8000234FF0FF320AF1010A04930793ED
:1042E8008DF853301A93CDE90523544605225448D6
:1042F80014F8011B00F08EFB049AD8B9D10644BF0C
:1043080020238DF85330130744BF2B238DF85330E7
:104318009AF800302A2B15D0079A544600204FF0FF
:104328000A0C214611F8013B303B092B4BD9B0B19F
:10433800079214E0A0EB0803A24609FA03F313431B
:104348000493D2E7039B191D1B68002B0391BBBF85
:104358005B4242F0020207930793B8BF04922378A6
:104368002E2B0AD163782A2B32D1039B02341A1DD3
:104378001B6843EAE37303920593DFF8D4A0032292
:104388002178504600F046FB38B1A0EB0A004022E5
:10439800049B013482401343049314F8011B062242
:1043A80028488DF8281000F035FB00283FD0264B10
:1043B8001BBB039B073323F0070308330393099BB5
:1043C8003B4409936AE70CFB02320C460120A8E73C
:1043D800002301344FF00A0C19460593204610F8C3
:1043E800012B303A092A03D9002BC6D00591C4E71E
:1043F8000CFB012104460123F0E703AB2A4604A97C
:1044080030460093114BAFF300800746781CD6D195
:104418006B6ED90705D4AB899A0502D4A86DFFF74E
:10442800DDFDAB895B063FF51FAF09981EE703ABBF
:104438002A4604A930460093044B00F07DF8E4E7CF
:10444800644C00086E4C0008000000000742000899
:104458006A4C00082DE9F047164698468A680746D0
:104468000B690C46DDF820909342B8BF13463360C1
:1044780091F843200AB1013333602368990642BF9B
:10448800336802333360256815F0060506D104F158
:10449800190AE36832689B1AAB422BDC94F8433064
:1044A8002268003B18BF0123920630D404F143026E
:1044B80041463846C847013023D023681A3454F897
:1044C8000A2C03F00603042B0ABF54F80E5C0025DF
:1044D80033684FF0000608BFED1A54F8123C08BFC5
:1044E80025EAE5759342C4BF9B1AED18B5421AD167
:1044F800002008E00123524641463846C8470130AB
:1045080003D14FF0FF30BDE8F0870135C1E7E1186E
:104518005A1C30200233224481F8430094F8451095
:1045280082F84310C2E70123224641463846C8476D
:104538000130E6D00136D9E72DE9FF470F7E9146D5
:1045480080460C46782F9A460C9E01F1430207D804
:10455800622F0AD8002F00F0D180582F00F0B880C1
:1045680004F1420684F842703AE0A7F16303152B80
:10457800F6D801A151F823F0D9450008ED45000807
:10458800694500086945000869450008694500084B
:10459800ED450008694500086945000869450008B7
:1045A80069450008EB46000817460008A5460008BC
:1045B80069450008694500080D4700086945000875
:1045C800174600086945000869450008AD46000817
:1045D80033681A1D1B68326004F1420684F84230C1
:1045E80001239CE033682068191D3160060601D557
:1045F8001D6803E04506FBD5B3F90050002D03DA2A
:104608002D236D4284F8433058480A2311E021686D
:104618003368080653F8045B02D4490648BFADB2B4
:104628006F2F3360514814BF0A230823002184F8F0
:1046380043106668002EA66005DB21682E4321F032
:10464800040121604BD01646B5FBF3F103FB11576B
:10465800C75D06F8017D2F460D46BB42F4D9082BED
:104668000BD12368DF0708D5236961689942DEBF4B
:10467800302306F8013C06F1FF36921B22614B46B7
:1046880003AA21464046CDF800A0FFF7E3FE01301B
:104698004AD14FF0FF3004B0BDE8F087236843F0FB
:1046A8002003236078273248236884F845701F0662
:1046B800316851F8045B02D45F0648BFADB231607F
:1046C800D90744BF43F0200323601DB11023ADE791
:1046D8002648E9E7236823F020032360F6E7164617
:1046E800BDE733682568181D616930602E061B68B0
:1046F80001D5196002E06806FBD51980002316462B
:104708002361BCE7336800211A1D32601E686268A5
:10471800304600F07FF908B1801B60606368236150
:10472800002384F84330AAE72369324649464046C5
:10473800D0470130ADD023689B0713D4E068039BB2
:104748009842B8BF1846A6E7012332464946404674
:10475800D04701309DD00135E36803995B1AAB421D
:10476800F2DCEBE7002504F11906F5E7754C0008C3
:10477800864C0008B1F90C202DE9F04116070546D2
:104788000C4654D44B68002B02DC0B6C002B48DD24
:10479800E66A002E45D0002312F480522F68216A61
:1047A8002B6030D0626DA389590705D56368D21A8A
:1047B800636B0BB1236CD21A0023E66A216A284680
:1047C800B047431CA38906D129681D292BD82A4A3A
:1047D800CA40D60727D50022D90462602269226020
:1047E80004D5421C01D12B6803B96065616B2F6049
:1047F800B9B104F14403994202D02846FFF7F0FB0F
:10480800002363630DE001232846B0470246501C8D
:10481800C9D12B68002BC6D01D2B01D0162B1DD15A
:104828002F60002021E043F040031BB21AE00F691B
:10483800002FF6D093070E680F600CBF4B6900235A
:10484800A6EB07088B60B8F1000FEADD43463A464D
:10485800216A2846A66AB047002808DCB4F90C305B
:1048680043F040034FF0FF30A381BDE8F0810744D7
:10487800A8EB0008E7E700BF0100402038B50B6946
:1048880005460C4613B90025284638BD18B1036AF9
:104898000BB9FFF79DFAB4F90C30002BF3D0626E18
:1048A800D00704D4990502D4A06DFFF796FB2846DB
:1048B8002146FFF75FFF636E0546DA07E4D4A38954
:1048C8009B05E1D4A06DFFF789FBDDE7F8B50E463F
:1048D8001446054618B1036A0BB9FFF779FAA369BC
:1048E800A360A3891A0701D5236943B9214628463D
:1048F80000F02AF818B14FF0FF373846F8BD2368A2
:10490800F6B222693746981A6369834205DC214664
:104918002846FFF7B3FF0028EDD1A368013BA36049
:1049280023685A1C22601E70431C62699A4204D094
:10493800A389DB07E1D50A2EDFD121462846FFF7F8
:104948009DFF0028D9D0D6E738B5294B05460C4637
:10495800186818B1036A0BB9FFF73AFAB4F90C30C2
:10496800190722D4DA0607D409222A6043F0400343
:104978004FF0FF30A38133E0580712D5616B41B186
:1049880004F14403994202D02846FFF729FB00238B
:104998006363A38923F02403A3810023636023694D
:1049A8002360A38943F00803A38123694BB9A38932
:1049B80003F42073B3F5007F03D02146284600F0A6
:1049C8005CF8B4F90C3013F001020AD00022A2609E
:1049D80062695242A261226942B913F08000C5D1CE
:1049E80038BD990758BF6269A260F4E70020F7E76D
:1049F8001C00002038B50023054D044608462B60EE
:104A0800FFF7E2F8431C02D12B6803B1236038BDDD
:104A180084020020C9B20346024410B593421846E6
:104A280001D1002003E0047801338C42F6D110BD97
:104A380070B50C46B1F90E1096B0154600291E4601
:104A48000CDAA389002113F0800F14BF40234FF420
:104A58008063002031602B6016B070BD6A4600F09C
:104A680049F80028EDDB019901F47041A1F50053E4
:104A7800594259414FF48063EBE78B89F7B59D079D
:104A880006460C4607D504F147032360236101233A
:104A9800636103B0F0BD01AB6A46FFF7C9FF009F31
:104AA800054630463946FFF707FB48B9B4F90C30DC
:104AB8009A05EED423F0030343F00203A381E2E74F
:104AC800A389206043F08003A381019BC4E9040704
:104AD8005BB1B4F90E10304600F01EF828B1A38976
:104AE80023F0030343F00103A381A3891D43A58198
:104AF800CFE7000038B50023064D044608461146A6
:104B08002B60FFF7A6F8431C02D12B6803B1236082
:104B180038BD00BF8402002038B50023054D044687
:104B280008462B60FFF79AF8431C02D12B6803B1A3
:104B3800236038BD84020020F8B500BFF8BC08BC6B
:104B48009E467047F8B500BFF8BC08BC9E46704743
:104B580057656C636F6D6520746F2053544D333205
:104B680020776F726C6420210A0D00000000024259
:104B780001000000000002420300000000000242A1
:104B88000600000000040242010000000004024286
:104B98000A0000000008024202000000000C024265
:104BA8000D000000000C0242020000000008024252
:104BB8000A0000000004024200000000000802424F
:104BC8000C0000000004024203000000000402423E
:104BD8000400000000100242000000000010024221
:104BE8000200000000100242030000000100020061
:104BF8000400060008000A000C0010002000400015
:104C080080000001006CDC0200366E010024F40014
:104C1800001BB70000093D0080841E00504B1400A3
:104C280040420F0000E02E000070170000A00F00A7
:104C380000B80B00801A0600400D03008807020028
:104C4800A08601000000000001020304000000002B
:104C5800000000000102030406070809232D302B79
:104C68002000686C4C006566674546470030313265
:104C780033343536373839414243444546003031BC
:0F4C88003233343536373839616263646566001C
:084C980010B6FF7F01000000CF
:044CA0005D020008A9
:044CA40039020008C9
:104CA80000380140010000001000000000093D002C
:104CB8000000000003000000480100202000002040
:104CC8000000000048010020B00100201802002068
:104CD80000000000000000000000000000000000CC
:104CE80000000000000000000000000000000000BC
:104CF80000000000000000000000000000000000AC
:0C4D08000000000000000000000000009F
:0400000508003C6D46
:00000001FF
